:020000040802F0
:10000000B0290020E9AC020811AB020813AB0208CA
:1000100015AB020817AB020819AB0208000000007C
:100020000000000000000000000000001BAB020800
:100030001DAB0208000000001FAB020821AB020844
:1000400011AD020815AD020819AD02081DAD020878
:1000500021AD020825AD020829AD02082DAD020828
:1000600031AD020835AD020839AD02083DAD0208D8
:1000700041AD020845AD02082FAB020835AB0208BE
:1000800049AD02084DAD020851AD020855AD020858
:100090003BAB020859AD02085DAD020861AD020834
:1000A00065AD020869AD02086DAD020871AD0208C8
:1000B00075AD020879AD02087DAD020881AD020878
:1000C00085AD020889AD02088DAD020891AD020828
:1000D00095AD020841AB020899AD02089DAD02083A
:1000E000A1AD0208A5AD0208A9AD0208ADAD020898
:1000F000B1AD0208B5AD0208B9AD0208BDAD020848
:10010000C1AD0208C5AD0208C9AD0208CDAD0208F7
:10011000D1AD0208D5AD0208D9AD0208DDAD0208A7
:10012000E1AD0208E5AD0208E9AD0208EDAD020857
:1001300000F5E0700268914203D343681A4491428B
:1001400002D380680028F5D17047DFF808170868E7
:1001500090B94FF4805048604FF480324FF0FF3038
:10016000C86008610420DFF8F0368A604861C3F88F
:10017000BC01DFF8E80608600120704701F10803C0
:1001800013F0070F0EBF0023C3F1080303F00703AA
:100190001944D21A8161C26042F001034B60091D0B
:1001A0004FF0280C41F802C0DFF8A8261369C3619C
:1001B00070472DE9FC4B074601F1080010F0070FCE
:1001C0000FBF8946C0F1080000F0070001EB0009ED
:1001D00002F1080111F0070F06D002F10800C0F18A
:1001E000080000F0070002441546A5EB090009EBE2
:1001F0000306A0EB030B43F00303C9F80430AE423F
:1002000028BF00F073FF2879C10758BF00F06EFFC8
:10021000BBF1100F38BF00F069FFB869854208D103
:10022000F9688B44C7F80CB0BE614BF001007060F8
:1002300051E1786985420AD1B9688B44C7F808B0A2
:100240007E614BF00100706046F80BB043E16868D6
:1002500000F00301012940F0AC80C008C00001900B
:10026000C0081F2839D8AC68D5F80C8000904545E7
:1002700008BF00F03BFFA54208BF00F037FF6868E9
:100280000099C008C000B0EBC10F18BF00F02EFFEE
:10029000009907F1280000EBC100844206D03969BB
:1002A0008C42C0F08180E268AA427DD1A04506D18F
:1002B00000983968012383409943396076E080458E
:1002C00006D0396988456FD3D8F80800A8426BD1A9
:1002D000C4F80C80C8F8084068E0EC68D5F81880CD
:1002E000AC420CD0A8683969884223D3C268AA42BC
:1002F00004BFA168A9421DD1C460A0601CE005F143
:1003000014010C6834B905F110010C68A4B101E0C6
:1003100011460C6804F114021068002802BF04F1B1
:10032000100210680028F3D13869814202D30022FC
:100330000A6001E000F0DAFEB8F1000F36D0E9699A
:1003400007F5987000EB81000268954208D10460BF
:10035000A4B9E8697968012282409143796025E077
:100360003869804508D3D8F81010A94214BFC8F8DE
:100370001440C8F8104001E000F0B8FEB4B139698B
:100380008C4211D3C4F81880286928B1884226BF4E
:100390002061846100F0AAFE686938B13969884239
:1003A00002D36061846101E000F0A0FE01996D1844
:1003B0008B4469684908490069604BF0010070602E
:1003C0004FEADB0446F80BB01F2C23D807F12800B6
:1003D00000EBC4084546BBF1100F38BF00F086FEA5
:1003E000386820FA04F1CA0705D4012101FA04F49F
:1003F00004433C6007E0D8F80800396988422CBF04
:10040000054600F073FEC8F80860EE60B560C6F8F7
:100410000C8060E05FEA1B2008BF002123D0B0F50C
:10042000803F28BF1F211ED2A0F58072120C02F05F
:1004300008029040A0F58051090C01F004018840A9
:10044000A0F580431B0CC2F10E0203F00203521A06
:10045000D21A984002EBD032D01D2BFA00F101F0F5
:10046000010101EB4201F161002307F5987273610C
:1004700002EB810033617A6822FA01F3DC0707D4CA
:10048000012303FA01F1114379600660B0611DE0B8
:1004900002681F291DBF4908C1F119010BFA01F1BA
:1004A000594600E002465068C008C000584516D0C2
:1004B00002F11003C80F03EB8003490018680028FD
:1004C000F0D13869834204D31E60B261F660B66031
:1004D00001E000F00BFE09F10800BDE8F68B396978
:1004E00090688A4228BF8842F3D3C6609660B060A5
:1004F000F2600020B061EEE72DE9FE4F04468B4626
:10050000A5692E46904699463146FFF711FE0268CE
:10051000416802EB010AAAF1270111F007000EBFA2
:100520000021C1F1080101F007010AEB0100A0F16F
:100530002F0706F110018F4238BF374607F1180226
:10054000002101920091A8F1280259462046FFF7A8
:1005500015FE07F1080010F0070F18BF00F0C6FDE8
:100560001B20786007F1080104F5E07090E80C505A
:1005700081E80C50C0F800B0C0F80480C0F80C90BE
:10058000816007220198009900E0001D491C00F1DC
:10059000080353454260F8D30129D8BF00F0A6FDF7
:1005A000B74200F09580BF1B301D321DC15949086C
:1005B0004900D15147F0010070604FEAD70BF75165
:1005C000BBF11F0F21D804EBCB0000F12805A84692
:1005D000102F38BF00F08AFD206820FA0BF1CA07FF
:1005E00005D4012101FA0BF10843206006E0A86858
:1005F000216988422CBF804600F078FDAE60C8F8C3
:100600000C60C6F80880F5606FE0380A08BF00216A
:1006100023D0B0F5803F28BF1F211ED2A0F58072E5
:10062000120C02F008029040A0F58051090C01F074
:1006300004018840A0F580431B0CC2F10E0203F0B8
:100640000203521AD21A984002EBD032D01D27FA78
:1006500000F101F0010101EB420104EB81020023F2
:1006600002F59870F16173613361626822FA01F3F7
:10067000DB0707D4012303FA01F11143616006602F
:10068000B0611DE002681F291DBF4908C1F11901B1
:1006900007FA01F1394600E002465068C008C00080
:1006A000B84216D002F11003C80F03EB80034900D3
:1006B00018680028F0D12069834204D31E60B2611B
:1006C000F660B56011E003B0BDE8F04F00F00EBD7C
:1006D0000BE0216990688A4228BF8842F3D3C66044
:1006E0009560B060F2600020B06103B0BDE8F08FAB
:1006F0002DE9F041574F05463868884608B9FFF79D
:1007000024FDB96801EB08002F30491E20EA0101E1
:1007100088457DD205F5D876B06828B13268891849
:100720008A4275D2884273D300F020FD01001CBFBD
:100730000C6811F1010F6BD03068201805F5D872E4
:1007400030605368984238BF18467060A86960BB33
:10075000286908B1814200D22961316174610020A9
:10076000F0614FF0FF303A686A62286205F12802B2
:100770000020D260926002F1080757611761801C67
:1007800010322028F5D33448854208BFA4F128024E
:1007900028D055F8040CC00805EBC002A2F10800EF
:1007A0000A19121A283A01461CE005F5E0700246C3
:1007B00000E092687AB3136857681F44B942F8D1D1
:1007C000137B1F0727D4AB691768BB4223D3D2F82A
:1007D00004C06744BB421ED2A444C2F804C0E86807
:1007E000A96922182846FFF7C9FC1FE08068C0B13C
:1007F00003689342FAD1027B130712D402680160A6
:100800004368E418446043462846BDE8F041D0E41C
:100810000020BDE8F0812A69914238BF29610A1998
:10082000E5E7002322462846FFF766FEE868804594
:10083000EED2A0EB0800A969E86001EB0802AA610A
:1008400040F00100506048F00300486001F10800EA
:10085000BDE8F08158150020E80D00206859883C5B
:100860002DE9F84F00258946090AC9F1000B08BF98
:10087000002323D0B1F5803F28BF1F231ED2A1F54E
:100880008072120C02F008029140A1F580531B0CFB
:1008900003F004039940A1F58044240CC2F10E0238
:1008A00004F00204D21A121BA14002EBD132D11D76
:1008B00029FA01F303F0010303EB4203074607F5AE
:1008C000987858F8230030B31F2B0FBF4C465C08B4
:1008D000C4F1190409FA04F4AC46594600E0640076
:1008E0004268D208D200A2EB09028A4203D2110068
:1008F000054600F06981426910304FEAD47B50F818
:100900002B00002A1CBF824294460028E7D18B4668
:100910006046B0BBBDBB012202FA03F35B00584244
:10092000796803430B4000F04E81584203405B1E40
:10093000180B00F01000C340590901F00801CB402A
:100940009A0802F00402D3405C0804F0020408187C
:10095000E3401018C3F3400620183044F3401B183E
:1009600058F823000DE008464168C908C900A1EB0A
:10097000090159453CBF8B46054601690029F2D162
:1009800040690028F0D1002D00F01D81B868A0EB6F
:100990000900834580F0178139698D42C0F01181CB
:1009A0006868C008C00009EB0B01884218BF00F05E
:1009B0009DFB05EB0906B54280F00381EC68D5F894
:1009C00018A0AC420CD0A8683969884223D3C26809
:1009D000AA4204BFA168A9421DD1C460A0601CE066
:1009E00005F114010C6834B905F110010C68A4B1CB
:1009F00001E011460C6804F114021068002802BFDF
:100A000004F1100210680028F3D13869814202D342
:100A100000220A6001E000F069FBBAF1000F36D055
:100A2000E86908EB800001688D4209D1046020006C
:100A300014D1E8697968012282409143796026E007
:100A40003869824508D3DAF81010A94214BFCAF8F1
:100A50001440CAF8104001E000F048FBBCB138690E
:100A6000844212D3C4F818A0286930B13969884289
:100A700026BF2061846100F039FB686938B13969AB
:100A8000884202D36061846101E000F02FFBBBF17A
:100A9000100F0CD2D94449F00300291D6860281DAD
:100AA00051F8092042F0010240F8092088E049F09D
:100AB000030068604BF0010070604FEADB0046F80D
:100AC0000BB01F281DD807EBC00101F128043968BD
:100AD00021FA00F2D307A34605D4012202FA00F05E
:100AE0000843386006E0A068396988422CBF834615
:100AF00000F0FCFAA660CBF80C60C6F808B0F46011
:100B00005EE05FEA1B2008BF002123D0B0F5803FE4
:100B100028BF1F211ED2A0F58072120C02F008021D
:100B20009040A0F58051090C01F004018840A0F527
:100B300080431B0CC2F10E0203F00203521AD21AB8
:100B4000984002EBD032D01D2BFA00F101F00101E8
:100B500001EB4201F16100227261326108EB810018
:100B60007A6822FA01F4E30707D4012404FA01F1B8
:100B7000114379600660B0611DE002681F291DBF46
:100B80004908C1F119010BFA01F1594600E002468A
:100B90005068C008C000584518D002F11003C80FB3
:100BA00003EB8003490018680028F0D138698342BC
:100BB00004D31E60B261F660B66001E000F096FA00
:100BC00014E100F093FA0EE18B46A2E639699068D1
:100BD0008A4228BF8842F1D3C6609660B060F26056
:100BE0000020B061ECE72DE9F84F064688467168B1
:100BF00048420140491E080B00F01000C1404A095C
:100C000002F00802D1408B0803F00403D9404D08DC
:100C100005F002051018E9401818C1F3400428181F
:100C200006F5987A2044E14009185AF821104868DE
:100C3000C008C0000D46A0EB080909E0014648685D
:100C4000C008C000A0EB080048453CBF81460D46E7
:100C500008690028F2D149690029F0D1306985423C
:100C6000C0F0BF806968C90808EB090BC900594585
:100C700018BF00F03BFA05EB08008542009080F0B9
:100C8000B080EF68AC69AF420CD0A8683169884287
:100C900023D3C268AA4204BFB968A9421DD1C76064
:100CA000B8601CE005F114010F6837B905F11001B7
:100CB0000F68A7B101E011460F6807F11402106830
:100CC000002802BF07F1100210680028F3D1306934
:100CD000814202D300220A6001E000F007FA002CF2
:100CE00031D0E8690AEB800001688D4208D10760C5
:100CF0008FB9E8697168012282409143716022E0F6
:100D00003069844205D32169A94214BF6761276114
:100D100001E000F0EBF9B7B13069874211D3BC6153
:100D2000286930B13169884226BF3861876100F097
:100D3000DDF9686938B13169884202D37861876129
:100D400001E000F0D3F9B9F1100F0BD24BF0030022
:100D5000291D6860281D51F80B2042F0010240F85F
:100D60000B203DE048F003012A1D696049F00100B5
:100D700042F80800009941F80990D6F808804FEA37
:100D8000D80BBBF1200F28BF00F0B0F9B8F1000F6D
:100D900022D006EBCB00776900F12804A246B8F117
:100DA000100F38BF00F0A2F9306820FA0BF1CA0723
:100DB00005D4012101FA0BF10843306006E0A06878
:100DC000316988422CBF824600F090F9A760CAF8CA
:100DD0000C70C7F808A0FC60C6F808900098706115
:100DE00004E000F083F90020BDE8F28F05F108006F
:100DF000BDE8F28F2DE9FE4F0546AFF30080F52DDB
:100E0000DFF8E46280F004810B2D31BF10250B3533
:100E1000ED08ED003068EC08E04010F0030F46D01C
:100E2000C04300F00100041906F1280000EBC408DB
:100E3000E700D8F808506868C008C000B84218BF7A
:100E400000F054F9D5F80890454508BF00F04EF978
:100E50004D4508BF00F04AF96868C008C000B842B4
:100E600018BF00F043F9C84507D13068012101FAE5
:100E700004F420EA040434600DE03069814508D3AD
:100E8000D9F80C10A94204D1C8F80890C9F80C8010
:100E900001E000F02BF947F00300291D6860281DD0
:100EA000CA5942F00102C25105F10804F8E0B168E4
:100EB000A94280F0BE80002800F0A1804FF0010818
:100EC00008FA04F1490000FA04F4484201430C40D6
:100ED00060420440641E200B00F01000C440610911
:100EE00001F00801CC40A20802F00402D4406308DB
:100EF00003F002030818DC401018C4F34007181868
:100F00003818FC40241806F1280000EBC40AE7005A
:100F1000DAF80890D9F80400C008C000B84218BF39
:100F200000F0E4F8D9F808B0D14508BF00F0DEF8C9
:100F3000D94508BF00F0DAF8D9F80400C008C000AD
:100F4000B84218BF00F0D2F8DA4506D1306808FA86
:100F500004F420EA040434600DE031698B4508D3C1
:100F6000DBF80C00484504D1CAF808B0CBF80CA057
:100F700001E000F0BBF87F1B45F0030009F104021B
:100F8000C9F8040047F00101515109EB0502019233
:100F9000D751B4684FEAD40ABAF1200F28BF00F045
:100FA000A5F834B3CDF800A006F12800756900EB70
:100FB000CA0AD346102C38BF00F098F83168009860
:100FC00021FA00F2D30704D408FA00F00843306095
:100FD00007E0DAF80800316988422CBF834600F048
:100FE00085F8CAF80850CBF80C50C5F808B0C5F819
:100FF0000CA0B76009F108040198706150E07068B6
:10100000C0B329463046FFF7EEFD040011D047E09B
:1010100015F1400F28BF4FF0FF350AD20B35ED0810
:101020007068ED0028B129463046FFF719FC04002E
:1010300036D1B068A8421DD3411B726910290AD36A
:1010400050197061B16041F001034360415045F0B7
:10105000030555600BE00021B1607161131D40F084
:1010600003015160111D1C5844F001040C5002F1A1
:10107000080415E0F06885420DD2401BB169F060AC
:101080004A19B26140F00100506045F003054D601F
:1010900001F1080404E029463046FFF729FB044625
:1010A000AFF300802046FFF720BB38B5002558B1CC
:1010B00041EA0002120C01FB00F512041EBFB5FB51
:1010C000F0F088424FF0FF352846FFF793FE04000A
:1010D0001CBF14F8040C10F0030F03D0294620465F
:1010E00000F05AF8204632BDE80D0020012000F043
:1010F00073B8F0B40246106895681318506803EB93
:101100005004C0071DD54D441BE013F8017B05F8C2
:10111000017B491EF9D1A0B1B60813F8011B06F0F6
:101120000306032E08BF13F8016B01EB06214942A9
:10113000801C294405D011F8016B05F8016B401E95
:10114000F9D1A3420ED013F8016B16F0030104BFCE
:1011500013F8011BC91C30090F28DAD113F8010B51
:101160000F30D6E7F0BC02F10C0070470749086861
:1011700008B1002070470648C008C0000860054953
:10118000C908C900091A0160704700BFA4150020F2
:10119000B7290020B02D0020002200F027B830B47D
:1011A000002513E050F8042BD30744BFA9F1010335
:1011B0009A18091F042942F8045BFAD213468C07D7
:1011C00044BF15809B1CC90748BF1D7050F8041B05
:1011D0000029E7D130BC704780B500F01DF8024A05
:1011E00011001820ABBEFBE7260002004018491C86
:1011F0001CBFB1F1010100F8012DF9D170478268DF
:10120000521C8260426832B10268531C0360117044
:101210004168491E4160704780B500F015F8020032
:101220000023DB431068984204D011000220ABBEBB
:10123000002010605068984204D0111D0220ABBEFF
:101240000020506001BD0000014870470000000010
:10125000100200202DE9F0439FB000BF65A6269C38
:10126000DFF8B48A8DF83B40029100240B944FF0D4
:10127000FF37044691461D460AE019F8011B029803
:10128000A0470028029000F0A1800B98401C0B9012
:1012900099F8000050B12528EFD1002100220591D6
:1012A00006920791089209910A9203E00B98A5E033
:1012B00041F0010119F8010F2028F9D023280CD0A2
:1012C0002B2804D02D2805D0302809D080E041F00B
:1012D0000201EFE741F00401ECE741F00801E9E722
:1012E00041F01001E6E70D920AE00D98404505DA5D
:1012F00000EB800002EB4002303A0D9209F1010947
:1013000099F80020A2F130000A28EED399F80000E5
:101310002E2818BF0C9726D119F8010F2A2808D1BA
:101320002868286009F1010950F8042B28600C9204
:1013300019E02D280CBF09F10109002000220C92B0
:101340000BE040B90C9A424505DA02EB820203EB4E
:101350004203303B0C9309F1010999F80030A3F1E5
:1013600030020A2AEDD3ADF83810304699F8001053
:1013700000F06AFE08B119F8010B8DF83A009DF8EB
:101380003A00682805D199F8000068280CD162213C
:1013900006E06C2804BF99F800006C2804D1712184
:1013A0008DF83A1009F1010910A804902A4619F89D
:1013B000013B6946204600F061F838B910AA694639
:1013C000204600F08FF900287FF562AF384615E01F
:1013D0002A2888D12A682A6052F8040B2A6000283B
:1013E0000D9003D540420D9041F0040109F101092F
:1013F0008CE70000686A6C747A4C00001FB0BDE88E
:10140000F083622820D0682811D06A2803D06C2885
:1014100027D0712825D10868C01D20F0070008607A
:10142000D0E9002308300860194610467047002AAA
:101430000A680A60106803D0121D0A6000B217E043
:10144000121D0A6080B217E0002A0A680A6010685C
:1014500003D0121D0A6040B20AE0121D0A60C0B239
:101460000AE0002A0A680A60106803D0121D0A60A8
:10147000C1177047121D0A600021704770B51C46E5
:101480000D46B4F125002E69114600F019811C3873
:1014900068D0001F022865D9133842D0093861D0BE
:1014A000801E16D0401E1ED0401E02285AD9001F92
:1014B00019D0401F00F08180401E32D0401E00F045
:1014C000CB80C01E00F0DA80801E2AD0C01E28D03B
:1014D000FCE06869421C6A610A680A6052F8043BD1
:1014E0000A603354FCE095F83A000122FFF789FFC7
:1014F000C5E90001002904D56869411C69612D22F4
:101500000DE0288F810704D56869411C69612B2291
:1015100005E0C00721D56869411C69612022325469
:101520001BE095F83A000022FFF76BFFC5E90001C8
:1015300095F83800010710D5D5E90023002B08BF26
:10154000002A0AD044F02000782806D168693021AA
:101550003154401C421C6A6134542146686930444D
:10156000E86087E00868C01D20F007000860D0E947
:10157000002308300860C5E90023D5E90001C80F41
:1015800004D06869411C69612D220DE0288F810714
:1015900004D56869411C69612B2205E0C00704D5A8
:1015A0006869411C69612022325468693044E860EE
:1015B0002146284600F0C4F992E005F13A0250783D
:1015C00020B14FF0FF340FF6202062E0107862283F
:1015D00008D0682824D06A2812D06C282ED0712810
:1015E0000ED02BE00A680A6052F8040B0A6020B99A
:1015F0004FF0FF340FF608204BE0E96A01706FE00E
:101600000A680A6052F8040B0A6020B94FF0FF34F0
:101610000FF6EC103DE0EA6AD317C0E900235FE063
:101620000A680A6052F8040B0A6020B94FF0FF34D0
:101630000FF6CC102DE0E96A018051E00A680A60DB
:1016400052F8040B0A6020B94FF0FF340FF6B010C7
:101650001FE0E96A016043E00A680A6052F8040B7F
:101660000A60002120F0000221F0FF33C5E90023C9
:10167000EE607821284600F0BBF831E00868086089
:1016800050F8044B0860EC603CB94FF0FF340FF6A3
:10169000881000F0E5FC201A70BD2E6B002E04D5DA
:1016A000204600F0FDFC044608E0324600212046BA
:1016B00000F000FD002814BF041B3446AC610FE0AD
:1016C0006869411C69612522325409E06969481C36
:1016D000686125227254210002D0431C6B6134548E
:1016E000002070BD2DE9FC410F46064690467A6BFE
:1016F0007869396ABC6A121AB869521A796A121A78
:10170000F869521A121A97F83800141B41070FD4BF
:101710002020002C8DF800000ADD254601236A46B2
:101720003946304600F048FC00285DD16D1EF5D1E9
:101730007B6942463946304600F03EFC002853D1D2
:1017400030208DF800003D6A002D09DD01236A4636
:101750003946304600F030FC002845D16D1EF5D1E9
:10176000BB69FA683946304600F026FC00283BD1B8
:1017700030208DF800007D6A002D08DD01236A46C7
:101780003946304600F018FC70BB6D1EF6D1F86883
:10179000B969FB6942183946304600F00DFC18BBA8
:1017A00030208DF80000BD6A002D08DD01236A4657
:1017B0003946304600F000FCB0B96D1EF6D197F8FE
:1017C000380041070DD52020002C8DF8000008DDE1
:1017D00001236A463946304600F0EEFB20B9641E0C
:1017E000F6D10020BDE8F6814FF0FF30BDE8F6816C
:1017F0002DE9FC4307466F293E6908BF082405D040
:1018000041F02000782814BF0A2410243C25D7E991
:101810000023642918BF69299046994605D1002BF9
:1018200003D5D8F1000869EB4909B9F1000F08BFE9
:10183000B8F1000F1FD1386BE8B9082C4CD197F8DC
:101840003800010748D530203B2586F83B0043E0AF
:1018500000280ED597F8380000F01400102808D1A1
:101860007B6B7969386A5B1A1B1A9A1A002AC8BFFF
:101870003A62BDE8F3838DF800104046494622469F
:10188000E31700F043FC3032D0B26D1E3A280195C8
:1018900004DB9DF80000A0F151018A187255404602
:1018A00049462246E31700F031FC80465FEA010911
:1018B00008BFB8F1000F03D0F86871198842DCD373
:1018C000082C09D197F83800010705D5705D30283C
:1018D00002D06D1E30207055C5F13C02BA617119FD
:1018E000F960386B8242B3DA821A3A624FF6EF70CF
:1018F000398F01403987BDE8F3832DE9D04306468F
:101900000F4614464FF00008DFF8109412E0E0078D
:1019100007D542464B463046394600F07BFC06462A
:101920000F464046494642464B4600F073FC641061
:1019300080468946002CEAD130463946BDE8D0833E
:101940002DE9F84F05468A464AF020048EB0D5E9C5
:101950000089612C02AE09D0286B002848BF062000
:1019600003D408BF672C01D101202863D5E9000109
:101970004A005215521C0DD10B030BD0AAF1610184
:1019800003201A29A86102D20FF2A86110E00FF219
:10199000A8610DE04A005215521C0ED10B030CD168
:1019A000AAF1610103201A29A86116D30FF29061F0
:1019B000E868032200F000FDC0E1CDE90C01DDE99B
:1019C0000C2323F00043B3F5801F0DD20027002B1A
:1019D00008BF002A019703D111E00FF26061E7E729
:1019E00001AA00F0F5FC0AE0CD48CE4900EB135007
:1019F000DDE90C2301900B40CB4910461943C5E9A2
:101A00000001612C0DD1E86830210170821CBAF10F
:101A1000610FEA600CBF7821582141706869801C11
:101A20006861D5E90001CDE90C01DDE90C2333F053
:101A3000004104BF0028002300F04881612C40F0E1
:101A4000A080286B494600284CBF4FF0210B00F1C5
:101A5000010B404600220023DDE90C8900F0F0FC78
:101A600001990BF1010738BF89F00049091F002FC8
:101A700001918DF808200DF1090040F33581A94945
:101A800000910646404649460022002300F0F0FC43
:101A900080F029814800400D00F11C0211D0002A7D
:101AA0000FDD40F2FF739A4205DBA04909F00040C8
:101AB0000143002011E0009B194041EA02514046D9
:101AC0000BE028F0000039F0004108BF00280FBFEC
:101AD00049461C22494600F0E3FC8046894600F056
:101AE0007DFDFF1F002F044609DD00F095FD024635
:101AF0000B464046494600F0A1FD80468946F01D50
:101B0000072104E004F00F0200F8012D2411002C3D
:101B100001DD491EF6D5491E5CBF002200F8012DEB
:101B2000F9D5DCE00020194602AA0A4400E05B1E59
:101B300012F80149491E8442F9D00F2804D10DF151
:101B40000900425C521C4254002904D50198001D32
:101B500002AE5B1C0190581E0CD43118AAF13A0455
:101B60000A783032D7B23A2FA8BFA218401E01F827
:101B70000129F5D5286B002840F1A780591E29635B
:101B8000A3E001996A4A47F29750414391FBF2F270
:101B9000019229F00046D2F1070204DD40463146A9
:101BA000FFF7ABFE0AE0524200206249FFF7A5FEB4
:101BB00002460B464046314600F0B2FD8046662C98
:101BC000286B06BF019F0A3706273F18142FC8BF8E
:101BD000142730208DF8080089460DF1090000E037
:101BE0003046002F34DD06464046494600F0BCFE34
:101BF00001460A4606F1080304200A26B2FBF6F65F
:101C000006EB860EA2EB4E02303203F8012C0A22BC
:101C1000B6FBF2F202EB820EA6EB4E063036401E09
:101C200003F8026DE9D1083F002F03F10806D7DD64
:101C3000084600F0ADFE02460B464046494600F01D
:101C4000FDFC00223C4B00F0E5FA80468946CBE7DC
:101C50000DF10901401A0DF1090604E00199491E30
:101C6000401E0191761C31783029F7D0662C02D1C4
:101C70000199491C03E0652C0CBF012100212B6B4D
:101C8000CB189842B8BF431E002B1ED4834204DAFF
:101C9000F05C3528A8BF392000DA30201946721EC2
:101CA00002EB010800E05B1E18F80199491E81450E
:101CB000F9D0392802D1705C401C7054002904D539
:101CC0000198401C16465B1C0190019800B20090E0
:101CD0001BB232465146284600F034F82EE0C61DAD
:101CE000002F3FF7CFAE30460DF10901401A0346F1
:101CF0005845C8BF5B46002B0DF109063FF53AAFCA
:101D00008342BFF60FAF0DF10900C15C07297FF7D1
:101D100009AF0F2007E70000CBCCCC0C000024401B
:101D200002FCFFFFFFFF0F800000E03F0000F07F9C
:101D3000A08601000000F03F84D797410FB0BDE8B6
:101D4000F08F00002DE9F84783B006468A46174613
:101D5000984600F02BFEB8F1000F406A356B90F802
:101D6000009002DC4FF00108B6A74AF02000BDF950
:101D70003040662808BF641C15D0672840F0848076
:101D800014F1040FC0F28680AC4280F2838096F892
:101D90003800641C010702D4A845B8BF454620B2EC
:101DA0002D1A48BF00250FFA84FAF068B169BAF11C
:101DB000000F25DC4A1C30234354002D03DC96F829
:101DC0003800010703D5F06800F80290521C15EBAB
:101DD0000A0FB8BF6C4220B2441941424445B8BF13
:101DE000A046B26171620FFA88F5F561F068B369D7
:101DF0002A463946184400F0DFFA641BB462C4E096
:101E000022B29045084417DA4246394600F0D4FA27
:101E1000B0694044B061AAEB0801002D716203DC97
:101E200096F838100A0705D5F16801F80090F069B6
:101E3000401CF061B562A8E0394600F0BDFAB06917
:101E4000002D5044A8EB040803DC96F838100A076C
:101E500003D5F16801F80090401CB0610FFA88F0DA
:101E60008542F368B069B8BFA8460FFA88F207EB5D
:101E70000A01184400F0A0FAB1690FFA88F0014491
:101E8000B161281A706280E0BAF1610F14D14FF08D
:101E9000700A16E0A84504DA96F838100A0758BF09
:101EA00045466D1E48BF0025BAF1670F14BF4FF0BD
:101EB000450A4FF0650A04E0BAF1410F08BF4FF040
:101EC000500AB169F368481CB061002D17F8012B66
:101ED0005A5403DC96F838100A071BD5F168431CE6
:101EE000B36101F80090002D14DDA8F101080FFA8C
:101EF00088F039468542F768B8BFA8460FFA88F2DD
:101F0000F81800F059FAB0690FFA88F108446D1A10
:101F1000B0617562F068B1690844002C80F800A0D7
:101F200003D42B224270811C03E02D2141706442B6
:101F3000811C00206A460AE023460A2493FBF4F43D
:101F400004EB8405A3EB450302F8013B401C24B2DB
:101F5000002CF1DC012806DC4AF02002652A04BFCF
:101F6000302201F8012B48B9302001F8010B07E0BD
:101F7000401E1DF80030303301F8013B0028F7DC2B
:101F8000F268B0691044091AF16196F8380000F05F
:101F9000140010280DD17269B169706A8A18F1694C
:101FA0008218B06A8A188218706B8242BCBF821A8B
:101FB000326204B0BDE8F087F8B505460E46174614
:101FC0001C46002074B117F8011BB068A847B06028
:101FD00030B1F06A401CF0620020641EF3D1F2BD03
:101FE0004FF0FF30F2BD00007072696E74665F736F
:101FF0003A20256E20646973616C6C6F77656400AC
:102000007072696E74663A2062616420256E206188
:102010007267756D656E74007072696E74665F7359
:102020003A2062616420257320617267756D656E68
:10203000740000006E616E004E414E00696E6600D5
:10204000494E460030000000C9B202788A421AB1F7
:102050001CBF10F8012FF9E718BF002070470000DF
:1020600080B500B906A005490B681BB122220021EA
:10207000984701E0FFF73AF8222002BDA81500209A
:10208000636F6E73747261696E742068616E646CE4
:1020900065723A20626164206D65737361676500E3
:1020A00000F1010310F8011B11B110F8011BFBE74F
:1020B000C01A7047C9B2830706D0521E22D310F847
:1020C000013B9942F7D11FE0083A13D302F1040211
:1020D00041EA012141EA014150F8043B121F21BFAE
:1020E0004B40A3F1013C2CEA030C1CF0803FF3D0E1
:1020F000C9B2001F083210F8013B521E28BF91EAF6
:10210000030FF8D818BF0120401E7047D3BBD9B1C8
:10211000B2F5803F5BD2022A1ED98C46B1FBF2F1A8
:1021200002FB11C31B0443EA1043B3FBF2FC02FBA6
:102130001C3380B240EA0343B3FBF2F002FB1032DF
:1021400040EA0C4000237047022A05D98446B0FBC0
:10215000F2F002FB10C270474AB105D100F0010253
:1021600049085FEA3000704700220023704700F002
:1021700021BC0B000200002100207047F7D3002291
:1021800000237047904271EB030CF2D370B5B1FAA3
:1021900081F4B3FA83F52C1BA340C4F1200532FA75
:1021A00005F63343A2405FF00046E64002E05B08DC
:1021B0005FEA3202841A71EB030524BF20462946E8
:1021C0007641F4D302000B003000002170BD70B5E1
:1021D000B1FA81F4B2FA82F5C4F120046419B4F1C1
:1021E0002006DAD3B2405FF00044F440002502E05C
:1021F00052085FEA3303C61A71EB020E24BF304661
:10220000714664416D41F3D302000B0020002900A8
:1022100070BD0000B0B581EA030C0CF0004C40F238
:10222000FF7515EA11541DBF15EA1357AC42AF42B2
:1022300039E0E41923EA455343F48013C90241F01D
:10224000004141EA505EC7021100A7FB02020028CC
:102250004FF00000EEFB01204FF00001E3FB0721EF
:1022600018BF42F00102401800214941E3FB0E0172
:10227000A4F580640F0302D252004041494154F159
:1022800001046CDD470872F1004250F1000051EB8F
:102290000451A1F580115CBF41EA0C01B0BD4CEACC
:1022A00005510020B0BD05EA1357AC4214BFAF4240
:1022B00041E050EA410E1CBF52EA430E02E0614683
:1022C0000020B0BD24423C441BD15FEA070EF6D08B
:1022D000090302BF01460020AEF1140EB1FA81F7E6
:1022E000AEEB070401FA07FE0C37C7F1200100FA34
:1022F00007F7C8404EEA000E23EA455343F4801323
:10230000A2E733F00043B3FA83F704BFB2FA82FEC8
:1023100077440B3FE41BB7F1200E2FBF02FA0EF3F8
:10232000BB40C7F1200E22FA0EFE38BF43EA0E036F
:10233000BA40641C82E750EA410E14BF52EA430ED1
:102340006FF000014FF4001717EB430F8ABF1946D7
:1023500017EB410FB5E74CEA05510020B0BDD4F1B1
:102360000104B4F120070FDAC4F12007520828BF96
:1023700042F0010210FA07F501FA07F7E1BF2A431C
:10238000E0403843E1400FE0352C98DCC7F12004F1
:1023900052EA400220FA07F218BF42F0010231FA75
:1023A00007F0A1400A43002172F1004250F1000001
:1023B00051EB0C01B0BD00004AB1000011F8013B27
:1023C000521E00F8013B1CBF11F8013BF8E77047B3
:1023D00010B5144600F002F8226010BDC1F30A5394
:1023E00043B14A0012F5001F28D2A3F2FE32A1EB3E
:1023F0000251704750EA410C20D001F0004C31EA04
:102400000C01B1FA81F204BFB0FA80F3D2180B3A92
:10241000B2F120032CBF00FA03F1914041EA0C0114
:102420003EBFC2F1200C20FA0CF3194390405242F7
:1024300040F2FD33D21A01EB03517047002270477E
:102440004FF4001C1CEB410F94BF1CEB430F09E041
:1024500041EA030C50EA4C0C52EA0C0C03D29942AC
:1024600008BF9042704714BF8B4282427047000001
:102470004FF4001C1CEB410F94BF1CEB430F09E011
:1024800041EA030C50EA4C0C52EA0C0C03D28B428A
:1024900008BF8242704714BF9942904270470000C3
:1024A000124254D440F2FF7C1CEA11530FD0634512
:1024B00031D09B1863453CBF01EB0251704701F0DE
:1024C000004141EA0C510020AFF30080704750EA10
:1024D000410320D001F0004C91EA0C011CD0B1FA6C
:1024E00081F30B3B9A420DD9D21A994051EA0C0163
:1024F000C3F1200C20FA0CFC61449840531C40F2BC
:10250000FF7CD7E7914041EA0C01C2F1200C20FA90
:102510000CF3194390407047B0FA80F31533202B29
:10252000E0D3202AEED3203A203B9A4209D9D21A8E
:1025300000FA03F141EA0C010020531C40F2FF7C39
:10254000B8E700FA02F141EA0C010020704752425C
:1025500040F2FF7C1CEA11530DD06345DBD0B2EB97
:10256000030C3CBFA1EB025170470CF1010221EAC0
:10257000035141F4801150EA410CCCD001F0004CE1
:10258000352A27DC30B481EA0C01B2F1200309DAE4
:10259000C2F12003044601FA03F5D0402843D1409C
:1025A0009C400CE0C3F12002450020FA03F418BF60
:1025B00044F0010421FA03F091400C43002174F12E
:1025C000004550F1000051EB0C01244230BC7FF477
:1025D0007BAF70476146002076E70000C1F30A53E5
:1025E00040F2FE329B1A14DDD3F120034FEAE17270
:1025F00008DDC90241EA505141F00040D84080183E
:102600005040704703F2E13010B1D24382F00040F5
:102610007047002070470000C11768B14840401A59
:10262000B0FA80F29040D21CC907C2F5846241EA38
:10263000025202EBD02140057047000070B44FF009
:10264000004591EA030F40F1B7816B40841A71EBAA
:10265000030603D2001BB141121973414FF4001C51
:102660001CEB410F34BF7CEB430442E00C0DA4EBA8
:102670001356352E4FDC45EAC323DB0A45EAC12158
:10268000C912B6F120050DDD63FA05F6EB4086EAC6
:102690000305124218BF45F00105C01851F10001B1
:1026A0000CD213E062FA06F5F2405540F3415A406D
:1026B000B340F3405A408018594107D349085FEAB4
:1026C00030005FEA350528BF45F0010501F58011AE
:1026D000420875F1004250F1000041EB04514E00F8
:1026E00016F5001F70BC38BF70470020090D0905A2
:1026F00070471CEB410F10D252EA43060BD0BCEBE3
:10270000410F05D80C0DAB43661E342EB6DD02E03A
:10271000AB438018594170BC704770BC70470000D3
:10272000F0B540F2FF7581EA030C0CF0004C15EA9D
:1027300011541DBF15EA1357AC42AF42E5E0BC414E
:10274000C1F31301C3F31303801A994143F48013B7
:1027500004D2641E4000494180185941C90241EA2F
:102760005051B1FBF3F603FB1611A2FB0675D7EB34
:10277000C020A94102D2761E80185941C90241EAFF
:102780005051B1FBF3FE03FB1E11A2FB0E75D7EBFC
:10279000C020A94103D2AEF1010E8018594189022F
:1027A00041EA9051760546EA8E2EB1FBF3F603FB23
:1027B0001611A2FB0675D7EB8020A94102D2761E26
:1027C00080185941C90241EA50514EEA060EB1FB48
:1027D000F3F603FB1611A2FB0675D7EBC020A94147
:1027E00002D2761E80185941C90241EA5051B1FB0C
:1027F000F3F703FB1711A2FB0735D3EBC020A94168
:1028000067F100070CBF004247F0010766F3D527C8
:102810004FEA1E31B80814F5806412DDBD0775F16A
:10282000004250EB0E5051EB045111F5801F5CBF7C
:1028300041EA0C01F0BD4CF07F6141F0E041002025
:10284000F0BDBD076D0840EA0E5041F48011D4F18F
:102850000104B4F120060ADAC4F120060200E040C7
:1028600001FA06F3E1401843B24015430EE0342C60
:1028700013DCC6F1200445EA40056D0820FA06F293
:10288000154321FA06F0A1400D43002175F10042E5
:1028900050F1000051EB0C01F0BD00205FEA0C018B
:1028A000F0BDCFB992185B41B3FA83F704BFB2FA17
:1028B00082F6BF190B3FB7F120062FBF02FA06F3CD
:1028C000BB40C7F1200622FA06F638BF3343BA40B0
:1028D0001CB1E419641E33E77F4231F00041B1FAC4
:1028E00081F404BFB0FA80F6A4190B3CB4F12006C1
:1028F0002FBF00FA06F1A140C4F1200620FA06F627
:1029000038BF3143A0403C1B1AE7AC421ABF05EA6E
:102910001357AF4212E050EA41061CBF52EA430689
:10292000BFE750EA4107304661461CBF41EA055106
:10293000F0BD52EA430C08BFC143F0BD00204FF484
:10294000001616EB410F98BF16EB430F08BF16EBAE
:10295000410F24BFC14305E016EB430F0CBF614696
:102960004CEA0551F0BD0000400D491840EA8120B5
:102970000CD2490DA1F58061491C40F0004005DBF7
:10298000D1F11F0154BFC840C017704700207047E5
:10299000014648B1B0FA80F18840C91CC1F5846194
:1029A000090501EBD0214005704700000048704741
:1029B000D801002070470000841A71EB030604D28E
:1029C0006E40001BB141121973414FF4001C1CEB07
:1029D000410F34BF7CEB430683E00C0DA4EB135690
:1029E000362E00F37C80012E45EAC32341DC43EA06
:1029F000525312BFD20292025B08240545EAC1215C
:102A000041EA5051D2EBC020994125D407D1B0FA08
:102A100080F610FA06F162D00020203608E0B1FA04
:102A200081F6B140C6F1200220FA02F21143B04013
:102A30004FEAF474B4EB465434F001064FEA7404E0
:102A40000AD8D6F50016760D04F00044F04061FA7D
:102A500006F25040F1404840C00A40EA415021F09F
:102A6000004128BF5FEA500550F1000044EBD1213E
:102A700035E0DB0A45EAC121C90AB6F120050EDDC1
:102A800042EA0242120CC5F1200603FA06F6EB40B8
:102A900042EA06056D42984161F100010DE062FADB
:102AA00006F5F240554063FA06FC82EA0C02F34058
:102AB0005A406D42904161EB030111F4801F05D132
:102AC000641E620502D06D004041494121F480112D
:102AD000430875F1004350F1000041EB045170BC14
:102AE00070471CEB410F15D223F0004352EA430616
:102AF0000BD04FEA4C0CBCEB410F04D80C0D661EFA
:102B0000342EB7DDEBE7801A994150EA410608BF41
:102B10000021E4E708BF1CEB430F28BF6FF0000162
:102B2000DDE7000038B5044600F044F80500DFF8A2
:102B3000380A0DD18CB90FF6AC210FF690230FF6A1
:102B40006C22009154304FF4BE7100F03FFEFEE75E
:102B5000002184F83410283002E0012184F8341078
:102B6000216800F045FE284632BD742138B5DFF8F3
:102B7000F8590FF6202305F1B40205F1540000F0D6
:102B800025FE05F1F002752105F1540000F01EFE4E
:102B9000DFF8D80900244460FFF7C4FF010018BF24
:102BA0000446204632BD00B901E000207047DFF83E
:102BB000BC0970472DE9FF410400DFF8AC590FF65E
:102BC000EC180FF6D81607D1009642460FF6FC1304
:102BD000FC2100F011FCFEE700F0E9FD070040F0E9
:102BE0001181606A40B9009642460FF6E81340F240
:102BF000091100F001FCFEE72069DFF87489002864
:102C00001CBFA08A002805D0A06900281CBF207F17
:102C1000002843D19F2103208DF80810009003ABBA
:102C2000676A012202A904F12000B847070047D1D2
:102C30009DF80C00207308F53D7203A8417861737C
:102C400040F25E318078A0730190607B009005F1C6
:102C50005400237B00F0BAFD204600F02FFE90BB0D
:102C60000021182048434044237B02799A4202BF46
:102C70004279637B9A4202BF8279A37B9A4203D056
:102C8000491C1029EDD909E00168A1608268226120
:102C90008189A1820269A261007D207720690028D4
:102CA0001CBFA08A002805D0A06900281CBF207F77
:102CB00000282AD108F5067000F09AFD0120A2E054
:102CC00008F5557093E00020A06004F14800816889
:102CD00021610288012A07BF0221A1820122A2826A
:102CE000C168A1610121007C207704EBC10000F1E3
:102CF0005402106828B1A369984202D2A0611079E9
:102D00002077491C0329F0D9C8E7002008EBC0014F
:102D1000237B91F89C219A4228D0401C1028F5D39F
:102D200008F52A70216900F063FD662000F026FC9A
:102D30000746380008F5347658D100F023F9992079
:102D400000218DF80500009100F04EFB070002D134
:102D500000F018F9074638001AD10FF6FC024FF4BC
:102D6000527105F1540000F031FD14E0D1F89811D2
:102D70000029D5D02369A26822B108F5147000F0AB
:102D800037FDD2E71A4608F51F7000F031FDCCE799
:102D9000304600F02DFD380034D1207D410706D5A6
:102DA00000220121204600F0AFFB07002AD1206954
:102DB000DFF8C017884222D30121204600F0E1FA53
:102DC00007001FD1B72000F0D9FB07000FF6B801AC
:102DD00010D1012284F835200B4608F5607240F2CC
:102DE000AD3105F1540000F0F1FC0BE0304600F08D
:102DF000FFFC07E008F5697000F0FAFC02E0002033
:102E000084F83500384604B0BDE8F0812DE9FE4372
:102E10000400884616461D46DFF84CC70FF28C7238
:102E20000FF2D07109D100910CF154000FF29C7394
:102E30004FF4C87100F0CAFCFEE74DB900910CF1E7
:102E400054000FF2BC7340F2911100F0BFFCFEE79A
:102E500004F13407387848B900910CF154000FF2AE
:102E6000A87340F2931100F0B1FCFEE7206906EB75
:102E70000801884205D20CF59A7000F0B9FC0520D3
:102E800023E0A16A09B100F018F900F07BF881464F
:102E9000A8B903208DF804000DF105024146204633
:102EA00000F004FB787800962B460028656A14BF72
:102EB0000522042201A904F12000A8478146E16A05
:102EC00011B104F1200088474846BDE8FE837CB577
:102ED0000400DFF894560FF2D4620FF23C7109D16E
:102EE000009105F154000FF2E46340F2C11100F0CB
:102EF0006DFCFEE794F8340048B9009105F15400E8
:102F00000FF2047340F2C31100F060FCFEE7A16A07
:102F100009B100F0D2F80121204600F032FA060093
:102F200027D1C7208DF80400217D08070DD59421F5
:102F30008DF8051080228DF806209A2100208DF84A
:102F4000071000900023042203E0002000900023DB
:102F50000122666A01A904F12000B047064630004C
:102F600004D005F5AE7000F043FC02E000F00AF872
:102F7000064600F0EFF9E16A11B104F1200088473C
:102F8000304676BD204662E22DE9FE4F04460D46EE
:102F90000026DFF8D4950FF214600FF28C6344B969
:102FA000009302460FF2246340F2FD1100F02AF96B
:102FB000FEE704F13407397841B9009302460FF275
:102FC000486340F2FF1100F01DF9FEE792462069C8
:102FD0000AEB0501884205D209F59A7000F008FC59
:102FE000052056E0002D08BF824503D12046FFF79B
:102FF0006EFF4EE0A16A09B100F05FF8A0465446AA
:10300000B24606E0701B0818A04237D2AD186C1A01
:103010008D199CB3387C58B122462946404600F0B1
:10302000ADFE08EBC000543090F804B0066803E031
:1030300098F81CB0D8F818600121404600F0A1F9BA
:103040008246D8B98DF804B00DF1050229464046F4
:1030500000F02CFA7878002814BF05220422002002
:1030600000900023D8F824C001A908F12000E0470F
:10307000824680B109F5C67000F0BAFB00214046D7
:1030800000F07FF9D8F82C1011B108F12000884722
:103090005046BDE8FE8F404600F0D9F90028824630
:1030A000ECD1B5FBF6F17143A21B681AAAD1A64276
:1030B0003CBF14467519ACD3E0E704F12000084783
:1030C0002DE9FE4F06460025DFF89C940FF2DC4008
:1030D0000FF2605446B90246009440F262210FF2AA
:1030E000EC4300F08FF8FEE7012B18BFB3F5807FAB
:1030F0009A4608D00246009409F5DC734FF4197122
:1031000000F080F8FEE706F1340702973B7843B9F8
:103110000246009440F266210FF2EC4300F072F890
:10312000FEE714460F463069E119884205D209F5D9
:103130009A7000F05DFB052062E0B16ADDF8308036
:1031400011B106F120008847ADF804A006E0304632
:1031500000F07DF90028054648D1D844002C45D020
:103160000121304600F00DF9002805463ED1DFF878
:103170000854022028706A1C3946304600F096F93F
:1031800002994878BDF804100028B7FBF1FB14BF82
:103190004FF0050A4FF0040A01FB0BFBB7EB0B00E5
:1031A00004D0C81B8344A34505D303E0A14238BF24
:1031B0008B4600D3A3465A46414605EB0A00FFF76B
:1031C000FBF8002100910023D6F824C00BEB0A0283
:1031D000294606F12000E0470028A4EB0B045F44D9
:1031E0000546B4D009F5F07000F002FB002130462E
:1031F00000F0C7F8F16A11B106F1200088472846AF
:10320000BDE8FE8F09F1540000F0E0BA2DE9FE4F51
:1032100004001F464FF00108DFF84CA30FF28C307A
:103220000FF228450AD10246009540F2B9210FF26B
:103230009C330AF1540000F0C9FAFEE704F1340BA4
:103240009BF8003053B90246009540F2BA210FF2C4
:10325000B8330AF1540000F0B9FAFEE71646894681
:10326000206906EB0901884205D20AF59A7000F040
:10327000BFFA052066E0A16A09B1FFF71EFF5FEA09
:10328000C97008D500F060F87F1C0028054609F1D8
:1032900001094ED1761E0121204600F072F8002867
:1032A000054646D1AD208DF8040001AD07E0FFF7DB
:1032B00069FE01003CD1B61E09F10209BF1C012EB6
:1032C0002ED95FEA080015D00DF1050249462046C7
:1032D00000F0ECF89BF80100002814BF052204223E
:1032E0003878A8540DF10500797881544FF0000822
:1032F000921C04E03878687003227978A970002065
:1033000000900023D4F824C001A904F12000E04774
:103310000100CCD005460AF5F07000F069FA09E02A
:1033200000F018F8054620B9012E05D100F00CF880
:1033300005460DB100F00EF8E16A11B104F120006C
:1033400088472846BDE8FE8F0097012301224946A1
:103350002046B5E60021204613E07CB51C46858A50
:103360000023EE0705D500944FF48073FFF7A8FE05
:1033700004E06D0703D52346FFF748FF03461846D0
:1033800076BDFEB504000E46774D08D10FF2E4205D
:1033900000F086F840F2723100F02EF8FEE73000BF
:1033A00019BF06218DF8051004228DF80520002094
:1033B000009000F019F8010003D101A9204600F0A7
:1033C0001FF801000FD1002E9DF8041004D08A07C9
:1033D00009D405F5037003E08A0704D505F50C70E0
:1033E00000F006FA0220FEBD0023676A01220DF1FB
:1033F000050104F12000384705F1540000F0E6B95A
:103400001CB5044605208DF804000B46DFF8580172
:1034100066A20FF27C213CB9009154306BA34FF4AB
:10342000707100F0D3F9FEE743B9009154300FF208
:10343000742340F2C13100F0C9F9FEE70120009089
:10344000012204F12000646A01A9A04716BDFEB55F
:103450000500454EEC6B0ED10FF2502000F020F825
:1034600040F2CB3106F1540000F0B0F9FEE7010064
:1034700018BF8047641E01A92846FFF7C1FF070057
:1034800003D19DF80400C10707D5A86B002CEED12D
:1034900006F5157000F0ACF904273846FEBD0000B3
:1034A0000FF2281341A200907047000038B5134670
:1034B000DFF8B4400FF2F4027FA548B9CDF8005010
:1034C0004FF4787141A304F1540000F07FF9FEE756
:1034D00043B9009540F2E1317DA304F1540000F0BE
:1034E00075F9FEE790F83500002814BF042003208A
:1034F000002206E0841A641EE40021FA04F59D54BB
:10350000521C8242F6DB31BDFEB504001646164D54
:1035100008D100BF70A0FFF7C3FF4FF47E71FFF723
:103520006BFFFEE719B1502000F028F802E00121FE
:10353000FFF727FF074638000ED101218DF8041050
:103540008DF805600021009104F12000646A0023D9
:10355000022201A9A047074638001CBF05F51F70CD
:1035600000F046F93846FEBD149802083C000020E1
:103570004494020801000001C00F002000218DF8D2
:10358000040000910023676A012201A904F12000D0
:1035900038470000312E312E30000000686172641F
:1035A000776172655F696E69740000002825732970
:1035B0002068617320617373657274206661696C41
:1035C00065642061742025732E000000666C6173B1
:1035D00068000000666C6173682D3E7370692E7719
:1035E00072000000736F6674776172655F696E695F
:1035F00074000000736675645F72656164000000AA
:103600006461746100000000666C6173682D3E693E
:103610006E69745F6F6B0000736675645F636869E1
:10362000705F657261736500736675645F65726172
:1036300073650000706167653235365F6F725F31A8
:103640005F627974655F7772697465006161695F53
:103650007772697465000000466C61736820646568
:10366000766963652072657365742073756363653D
:1036700073732E007365745F77726974655F656E2E
:1036800061626C6564000000456E74657200000044
:10369000736675645F726561645F7374617475737A
:1036A00000000000737461747573000077616974C1
:1036B0005F627573790000006D616B655F616472B4
:1036C0006573735F627974655F617272617900001E
:1036D0006172726179000000736675645F77726968
:1036E00074655F73746174757300000000224FF499
:1036F0008051474800F016BD70477047C821084602
:10370000411E0028FBD170472DE9F8438946160079
:103710001D4640480FF24C124EA109D0B9F1000FDE
:1037200006D100915FF0CC0156A300F04FF8FEE700
:10373000089C3CB135B900915FF0D00154A300F072
:1037400045F8FEE7FFF7D2FFFFF7D0FFDFF8C880AC
:103750004FF6FF7705E019F8010B00F021F800F0B3
:1037600058FD30463E1880B20028F4D1FFF7BEFF66
:1037700008E0FF2000F014F800F0E3FD9DF80000E1
:1037800005F8010B20463C1880B20028F1D1012237
:103790004FF480511E4800F0C5FC0020BDE8F283C4
:1037A0008DF800003B4601226946404670471B49A0
:1037B0001B4A416282621B491B4AC16202631B4968
:1037C0001B4A8163C26300207047000008B478B5CB
:1037D00014460A464FEA000130A0164E00F0FAFFE8
:1037E00000F02FF800F028F871BC5DF808FB00002D
:1037F0000EB478B5044600BF2EA00E4E00F0EAFFCE
:1038000000F01FF800F018F871BC5DF810FB000024
:10381000000C0140F0A90208F0130020093702084B
:10382000F9360208FB3602089C150020FD36020816
:10383000C0270900C81000204FEA06011BA000F0B5
:10384000C9BF05AD2B4622464FF48071304600F0CB
:10385000D5BF00007370695F77726974655F7265C8
:1038600061640000282573292068617320617373E7
:10387000657274206661696C6564206174202573CB
:103880002E00000077726974655F62756600000043
:10389000726561645F627566000000005B534655A7
:1038A000445D2825733A256C6429200025730D0A90
:1038B000000000005B534655445D000070B50400F5
:1038C00086B0DFF818550AD10FF218500FF24453A2
:1038D0000FF220520090512100F0B2F8FEE702A949
:1038E0000020C1E9000004F144060823307002AA58
:1038F0000021204600F0FCF958B10FF22050FFF7EC
:1039000077FF216805F18800FFF772FF002006B0FD
:1039100070BD9DF80800532804BF9DF80900462893
:1039200029D19DF80A00442804BF9DF80B005028B7
:1039300021D19DF80C20B2709DF80D307370012BD1
:1039400005DD194605F59870FFF752FFD9E79DF898
:103950000E0001900092842105F5B47200F070F819
:1039600004A9204600F00FF80028CAD004A9204678
:1039700000F06AF8CBE705F1E4027A2105F12400B2
:10398000FFF724FFBDE770B586B00C4604A90022FE
:10399000C1E90022DFF844540FF258420FF29C4173
:1039A00040B9009105F124000FF268439621FFF71A
:1039B0000DFFFEE744B9009105F124000FF290439A
:1039C0009721FFF703FFFEE7082304AA082100F070
:1039D0008FF920B105F5D470FFF70AFF21E09DF8BB
:1039E0001000207004AB5A7862709978A170022997
:1039F000D878E0701B799DF8156043EA06239DF89E
:103A0000166043EA0643636004DB05F5F070FFF7D8
:103A1000EFFE06E0092806DA014605F50D70FFF70E
:103A2000E7FE00200AE0039302900192009105F561
:103A30001F722378AF2100F003F8012006B070BD9B
:103A400005F12400FFF7C2BE2DE9F0430D468DB00D
:103A500080466F68DFF8846304A831462422FEF7AD
:103A6000ABFCB8F1000F0FF28C320FF2F43006D13C
:103A70000090C2210FF29C3300F036F9FEE735B911
:103A80000090C3210FF2C83300F02EF9FEE7242383
:103A900004AA3946404600F02BF910B106F54270F1
:103AA000CCE006F55072CB2100F01AF90FF2C432C7
:103AB000CC2100F015F9002504A800EB85006B1C53
:103AC000017803916D1C4278029206F55A72817852
:103AD0000191CF21C078009000F006F9092DEBDBB1
:103AE00004AF08F144057878E8719DF8101001F0F2
:103AF0000301012902D0032919D020E00120A87177
:103B000006F56372EB79D72106F12400FFF75EFE1C
:103B10009DF81000800810F0010002D0012811D09B
:103B200018E00120A880E6210FF2643210E00020A6
:103B3000A87106F57472DB2100F0D2F8E8E706F20E
:103B400004407BE04FF48070A88006F23C42EA21FA
:103B500000F0C6F89DF81000C00810F0010002D077
:103B6000012806D024E00120287206F58D62F52197
:103B70001CE00020287206F59362FA2100F0B0F8EC
:103B80009DF81000000910F0010002D0012807D0B4
:103B90000EE05020687206F2DC424FF4807105E0BE
:103BA0000620687206F2545240F2051100F098F8AF
:103BB000B878400810F0030003D0022828D01FD3A3
:103BC0002EE00021E972012085F80A0040F20F1171
:103BD000B7A200F085F8B979FA799DF815303879EF
:103BE000090441EA026141EA032101430127D209A4
:103BF00002D0012A1AD029E0C908491CE96025E051
:103C00000120A87285F80B004FF48A71AEA2E0E79C
:103C10000121E9720020A87240F21911B1A2D8E77F
:103C20000020A872E87206F2CC5007E021F00041B3
:103C3000242907D30020E86006F5BE60FFF7D8FD11
:103C400000204AE0C81E07FA00F0E86040F2311197
:103C5000D5F80C30A9A206F12400FFF7B7FD002427
:103C6000A14604A800EB4401087FA0B108EBC902FB
:103C700007FA00F042F8540F487F107100904FF49B
:103C80009C7113689B0A06F5C76200F02DF809F1D4
:103C900001005FFA80F9641C042CE2DB002108EBD0
:103CA000C10202F15403491C186890B10A460EE0A3
:103CB00008EBC20656F8540F40B11F68B84205D24F
:103CC0001C7918603079187137603471521C042ADD
:103CD000EEDB0429E3DB012028700DB0BDE8F083A2
:103CE00006F12400FFF772BD06F12400FFF76EBD58
:103CF000FEB500BFA4A50C46D5E9006701A9250AB9
:103D0000C1E90067210C8DF805108DF806508DF87B
:103D10000740324D0FF2DC017EA638B90A46009604
:103D20004FF4AD713BA3FFF78BFEFEE7B4F1807F4C
:103D300008D30A46CDF8006040F25B1179A3FFF783
:103D40007FFEFEE742B90A46CDF800604FF4AE713F
:103D500078A3FFF775FEFEE7446A3CB90A46009671
:103D600040F25D1176A3FFF76BFEFEE7009301A919
:103D7000134605222030A047FEBD00007CB5144646
:103D800000F144020B461178002559B90FF2C0101A
:103D90000FF2DC1317A200904FF4B7711048FFF731
:103DA00015FDFEE71169B3FBF1F201FB123109B118
:103DB000002076BD032201E072B1521E00EBC20169
:103DC000496D0029F8D08C42F6D3B3FBF1F601FB24
:103DD00016310029F0D11546284676BDD08D02084F
:103DE000F48D0208736675645F726561645F736663
:103DF0006470000028257329206861732061737343
:103E0000657274206661696C656420617420257335
:103E10002E000000666C6173680000004572726FCE
:103E2000723A2043616E27742072656164205346A4
:103E30004450206865616465722E0000726561649B
:103E40005F62617369635F68656164657200000049
:103E500062617369635F6865616465720000000098
:103E6000726561645F62617369635F7461626C65EE
:103E7000000000004D53422D4C534220203320209F
:103E8000202032202020203120202020300000005F
:103E90005772697465206772616E756C61726974BE
:103EA00079206973203120627974652E000000004A
:103EB000332D42797465206F6E6C79206164647271
:103EC000657373696E672E00332D206F7220342D59
:103ED000427974652061646472657373696E672EDC
:103EE00000000000342D42797465206F6E6C7920DB
:103EF00061646472657373696E672E0043617061FB
:103F00006369747920697320256C64204279746533
:103F1000732E0000726561645F736664705F646134
:103F20007461000061646472203C20314C203C3C90
:103F300020323400726561645F62756600000000C3
:103F4000666C6173682D3E7370692E777200000095
:103F5000736675645F736664705F6765745F7375BD
:103F6000697461626C655F657261736572000000FF
:103F7000666C6173682D3E736664702E617661694C
:103F80006C61626C650000005A000000FF000000D8
:103F90002DE9F8470027BE46644A654B4FF00F08ED
:103FA00082460BE0D6683040D06006E094604C68F2
:103FB000A402F7D5D0680643D6607F1C0E6836FA97
:103FC00007F000F0AD80012000FA07F52E40AE4268
:103FD000F3D1486858B301281AD002281FD003280B
:103FE00033D0112817D012281DD0524CA0421CBF2C
:103FF000514CA0421BD0514CA0421CBF504CA0427F
:1040000015D0504CA0421CBF4F4CA0420FD01EE018
:10401000D1F80CE01BE0C86800F1040E17E0C86896
:1040200000F1080E13E0C86800F10C0E0FE088687C
:1040300010B94FF0040E0AE001284FF0080E14BF2B
:10404000CAF81450CAF8105001E04FF0000EB6F54F
:10405000807F03D250464FEA870C05E0A7F10804A1
:104060000AF104004FEA840C046808FA0CF5AC432A
:104070000EFA0CF52C4304604868C0009DD5186802
:10408000DFF8C8C040F0010018601C6804F00104AB
:104090000094BC000098B8085CF8205004F00C04B0
:1040A00008FA04F925EA0909294DAA4508BF00259F
:1040B00018D0284DAA4508BF012513D0264DAA4582
:1040C00008BF02250ED0254DAA4508BF032509D0FB
:1040D000234DAA4508BF042504D0224DAA450CBF94
:1040E0000525062505FA04F444EA09044CF82040A5
:1040F000F0434C68E40314684CBF3443044014603C
:104100004C68A40354684CBF3443044054604C686A
:104110009568E4024CBF46EA050400EA050445E759
:10412000BDE8F18702B9090401617047000401404C
:1041300018100240000011100000121000002110A1
:104140000000221000003110000032100800014071
:1041500000080140000C0140001001400014014023
:1041600000180140001C014038B5040001D10120B5
:1041700032BD606A28B900F080F905D00021E16104
:1041800002E00020206160610020A06204F150057F
:10419000687820B900212970204600F06CFB0220CD
:1041A000687000F076FA6068A168E26800F48270D6
:1041B00001F404410843217C02F400621043227D93
:1041C00001F002010843A16902F001021043227FBD
:1041D00001F40071084394F8201002F038021043F3
:1041E000A26A01F080010843216802F400521043E2
:1041F0000860A0692168000C00F004004860206895
:10420000C16921F40061C161002068600121697009
:1042100032BD2DE9F84300F01BFA984608BF022092
:1042200000F08D800120387000F064FB797801295E
:1042300018BF02264BD1002C18BFB9F1000F7BD05C
:10424000032179707E602C63A5F83490A5F8369030
:10425000AE63AE87EE876E642E64AB68B3F5004F35
:1042600009D129680B6823F040030B6029680C68AA
:1042700044F480440C6029680B685C0603D40B6826
:1042800043F040030B604446E968B1F5006F69688C
:1042900021D1002918BFB9F1010F00F0EEF98046D5
:1042A00004E0296B0A88C26000F0C4F9E88E002897
:1042B00033D0286881688A07F3D400F01BFBA0EB99
:1042C0000800A04204D314F1010FEFD0032634E01C
:1042D000002CEBD1FAE7002918BFB9F1010F00F06B
:1042E000C0F9804606E0296B0A780273286B411CEE
:1042F00000F0A2F9E88E80B1286881688A07F2D4BC
:1043000000F0F8FAA0EB0800A04203D314F1010F6B
:10431000F0D0DBE7002CEDD1D8E742462146284615
:1043200000F043FA08B120207860A86810B900F0C6
:1043300088F9009A786800B1012600F0A2F8BDE87B
:10434000F2832DE9F843002604460D4600F095F867
:1043500004BFA06800289146984604F1500709D18F
:1043600004267E70CDF800804B462A46204600F099
:104370008EF880E03878012808BF02207BD0012029
:10438000387000F0B7FA7978012918BF022670D189
:10439000002D18BFB9F1000F6AD0042179707E603A
:1043A000A563A4F83C90A4F83E902663A686E68612
:1043B00026646664A268B2F5004F09D121680A68D4
:1043C00022F040020A6021680B6823F480430B60EE
:1043D00021680A68530603D40A6842F040020A6062
:1043E0000546E168002926D108E0007BA16B087032
:1043F000A06B421CA263E08F411EE187E08F68B38F
:1044000020688168CA07F0D400F074FA401B404568
:1044100004D318F1010FF1D003262AE0B8F1000F00
:10442000ECD1F9E7C068A16B0880A06B821CA26385
:10443000E08F411EE187E08F80B120688168CA0764
:10444000F0D400F057FA401B404503D318F1010F98
:10445000F1D0E1E7B8F1000FEDD1DDE72A464146A2
:10446000204600F07DF908B120207860786800B11E
:10447000012600F006F8BDE8F2836068B0F5827F9F
:1044800070470120787000213970304670472DE95F
:10449000FC4700F0DDF84FF0010808BF022000F0F3
:1044A000BC809A4687F8008000F024FA7B78012BC4
:1044B00009D06968B1F5827F02BFA9680029042B81
:1044C00001D00226A4E0002C1CBFB9F1000FBAF104
:1044D000000F01D101269BE07B78042B1CBF052136
:1044E00079707E60C5F83890A5F83EA0A5F83CA08C
:1044F0002C63A5F836A0A5F834A02E646E64296854
:104500000C68630603D40C6844F040040C60E9684E
:104510000A9CB1F5006F696838D1002918BFBAF15B
:10452000010F00F0AAF88146E88E002804BFE88F4A
:10453000002874D02968886882070BD5E88E002887
:1045400018BFB8F1000F05D0286B0288CA60B046CA
:1045500000F070F829688868C2070CD5E88F50B160
:10456000C868A96B08804FF00108A86B821CAA6379
:10457000E88F411EE98700F0BDF9A0EB0900A042D9
:10458000D2D314F1010FCFD0032641E0002918BF88
:10459000BAF1010F00F065F88146E88E002804BFEB
:1045A000E88F00283BD02968886882070DD5E88EFF
:1045B000002818BFB8F1000F07D0286B02780A73E3
:1045C000B046286B411C00F037F829688868C2079C
:1045D0000CD5E88F50B1C868A96B08704FF001087E
:1045E000A86B421CAA63E88F411EE98700F082F99C
:1045F000A0EB0900A04203D314F1010FCDD0C3E713
:10460000002CCAD1C0E7A86810B900F01AF80098C9
:1046100001217970002038703046BDE8F6872146C8
:104620004A46284600F0C1F80028ECD02021012697
:104630007960EDE7286B811C2963E88E411EE986CD
:10464000704700962968CA6800928968009170478F
:10465000054605F150070026387801280C4691469A
:10466000704709D1296B2B680A781A73296B4A1C89
:104670002A63E98E4A1EEA86704709D1296B2B68A6
:104680000A88DA60296B8A1C2A63E98E4A1EEA8648
:1046900070472068016821F0400101607047000008
:1046A0002DE9F843089C05460E4690461F4600F04B
:1046B00021F9381A241800F01DF981464448016890
:1046C0004901090D6143009105E0009800B90024FB
:1046D0000098401E0090286881683140B1420CBFAC
:1046E00001200020404532D017F1010FF3D000F037
:1046F00001F9A0EB0900A04201D2002CE5D1286805
:10470000416821F0E00141606868B0F5827F08D11E
:10471000A868B0F5004F18BFB0F5806F01D100F068
:1047200019F8A86AB0F5005F09D12868016821F47A
:10473000005101602868026842F40052026005F1ED
:1047400050000121417000220270032000E000208F
:10475000BDE8F2832868016821F0400101607047DC
:104760001CB504460B46FFF788FE08D1A068B0F5DB
:10477000004F18BFB0F5806F04D1FFF78AFFFFF735
:104780007CFE06D1A068B0F5806F02D100920121B5
:1047900001E00092802100222046FFF781FF10B146
:1047A00000F00FF816BD002016BD1CB500920B4698
:1047B000044600228021FFF773FF08B100F001F8E2
:1047C00016BD606D40F0200060650320704700005A
:1047D000BC0000200EB4C0B5024603A80021019021
:1047E000009101AB0121044878440C30FCF732FD04
:1047F00006BC5DF810FB00BFBB64000008B584B0C8
:104800000023039300290EBF01930190491E0291DA
:10481000009301A904AB074878441830FCF71AFD4F
:10482000019909B100220A70002858BF039805B009
:1048300000BD00BFCBC9FFFF80B52A482A490160EF
:104840004FF4827242600121022202614161002321
:104850004FF400720A218360C3608261C361036206
:1048600043628362C162FFF77FFC18B1BDE801407B
:1048700000F09BB801BD30B585B0044601A81021F9
:1048800000F096F82468184DAC4228D11748184C0F
:10489000416841F480414160416801F480410091E8
:1048A0000099026842F0080202604FF4204100685B
:1048B00000F008000090022200980191029203216A
:1048C0000491204601A9FFF763FB4FF480400021CB
:1048D000019002910391204601A9FFF759FB05B011
:1048E00030BD0000F01300200038004018100240D6
:1048F000000C014001484068704700BFB000002034
:1049000080B500F069F800F071F800F00FF800F0E1
:104910007FF800F0B9F800F0D7F800F063F9FFF77E
:104920008BFF00F04DF800F047F8FCE700B595B0BC
:104930000BA8282100F03CF86846142100F038F854
:1049400005A8182100F034F84FF4803100220C91B2
:104950000D92139101200B900F9002224FF4E01161
:10496000129214910BA800F067F908B100F01DF83D
:10497000022101910F204FF48061009000220391E9
:10498000029204920221684600F0E6FA08B100F0B3
:104990000CF81021002205910A9205A800F0B2FB44
:1049A00008B100F002F815B000BD72B6FEE70000D5
:1049B000002200F01BBC000080B500F049FCFCE7C1
:1049C00080B50748FFF706FF00F000FD00F086FD08
:1049D000BDE8014000F03EBC024903480860704752
:1049E0003CAC020808ED00E00000020880B5074872
:1049F000016841F010010160032000F07EFD0020FD
:104A000000F0D2FD00F0F0FD002002BD00200240C9
:104A100018B585B001A81021FFF7CAFF184804682F
:104A200044F0100404600168164C01F0100100917C
:104A30000099026842F008020260036803F008036C
:104A400000930099026842F00402026000220068AC
:104A500000F0040000904FF4805100982046FFF7CA
:104A600061FB4FF4805101910122029200210391D8
:104A70000222049201A92046FFF78AFA06B010BD6F
:104A800018100240000C014080B50E48016841F04A
:104A9000010101600022006800F001000090002187
:104AA00000980E2000F036FD0E2000F050FD002290
:104AB00000210F2000F02EFDBDE802400F2000F085
:104AC00046BD00BF1410024080B540484049016017
:104AD0004FF4E13200230C2142608360C360036124
:104AE00041618361C36100F0A1FD18B1BDE80140DF
:104AF000FFF75BBF01BD78B585B0044601A8102162
:104B0000FFF756FF2568324EB5425CD13148324D31
:104B10000168324E41F480410160026802F4804233
:104B200000920099026842F0040202604FF40071A2
:104B3000006800F0040000900222009801910292A7
:104B400003210491284601A9FFF722FA4FF480605F
:104B50000021019002910391284601A9FFF718FA5C
:104B60001F4D05F11400306000218020F06071605D
:104B7000B16031617161B161F161304601F02AF8D3
:104B800008B1FFF712FF102000216663B064F164E2
:104B9000802030657165B165F16531667462756458
:104BA00006F1440001F016F808B1FFF7FEFE06F129
:104BB00044002063B46600220021252000F0AAFCF6
:104BC000252000F0C4FC06B070BD0000D814002001
:104BD000003801401810024000080140681300200E
:104BE0004400024010B5104C10490022204601F04C
:104BF00012FA08B1FFF7D9FE0D49204601F01EFA5E
:104C000008B1FFF7D2FE0B49204601F01BFD08B1A9
:104C1000FFF7CBFE204601F019FA18B1BDE81040AD
:104C2000FFF7C3BE10BD00BF24090020C000002054
:104C300010010020740100202DE9F843040016D073
:104C40002078DFF87C64C10713D5706800F00C0091
:104C5000042807D0706800F00C00082840D1706864
:104C6000C1033DD53068810303D56068002800F09A
:104C7000F4802078DFF85874810719D5706810F037
:104C80000C0F07D0706800F00C00082860D1706825
:104C9000C1035DD43068810703D52069012840F045
:104CA000DC803168606921F0F80141EAC0013160BF
:104CB0002178080770D5A069DFF81814002865D09E
:104CC00001220A60FFF716FE0546706A810700F1AF
:104CD000C680FFF70FFE401B0228F6D9032035E1FE
:104CE0006068B0F5803F04D1306840F480303060B7
:104CF00014E008B930680AE0B0F5A02F306806D19A
:104D000040F480203060316841F4803105E020F4C7
:104D100080303060316821F480213160606858B1A2
:104D2000FFF7E8FD054630688103A2D4FFF7E2FDF6
:104D3000401B6528F7D3D1E7FFF7DCFD0546306857
:104D4000810396D5FFF7D6FD401B6528F7D3C5E74D
:104D5000206970B101213960FFF7CCFD054630684C
:104D6000810700F1B680FFF7C5FD401B0228F6D988
:104D7000B4E73860FFF7BEFD05463168880797D570
:104D8000FFF7B8FD401B0228F7D9A7E70860FFF737
:104D9000B1FD0546706A810770D5FFF7ABFD401B7A
:104DA0000228F7D99AE708B9306A09E00528306A7D
:104DB00006D140F004003062306A40F0010005E0A6
:104DC000400840003062306A20F00400306241F256
:104DD0008938E06868B1FFF78DFD8146306A810748
:104DE00000F18480FFF786FDA0EB09004045F5D374
:104DF00074E7FFF77FFD8146306A810776D5FFF7BC
:104E000079FDA0EB09004045F6D367E7FFF772FD97
:104E1000401B02287BD961E7FFF76CFD001B0228CD
:104E200040F28F805AE700F093F804463068810121
:104E300040F18B80FFF75EFD001B0228F6D94DE79D
:104E400001280AD07068226A00F48031914202BFC2
:104E500000F47010616A884277D0012076E0DFF8B4
:104E600064020168C9084FF47A72B1FBF2F2009251
:104E700000BF0098411E00280091F9D12078410719
:104E800039D5F0690025C10009D4F06940F080509F
:104E9000F0610125F06900F0805000900098DFF883
:104EA0003882D8F80000C1051BD4D8F8000040F4BF
:104EB0008070C8F80000FFF71DFD8146D8F800009B
:104EC000C1050ED4FFF716FDA0EB09006528F5D348
:104ED00004E73068616920F0F80040EAC100306002
:104EE000E6E6E06801287FF45EAF65E71DB1F06992
:104EF00020F08050F061E06938B3716801F00C0176
:104F000008299DD002288ED100F022F8054630688D
:104F100081013FF57BAF206AB0F5803F05D1716814
:104F2000A06821F40031014371607268206A616AEF
:104F300022F4741202430A437260012000F009F85F
:104F40000446306881017FF567AF0020BDE8F28339
:104F500000203866FFF7CEBC2DE9F04104008846FA
:104F600072D05E4E00F077F802D200F06FF86BD18D
:104F70002068534D810712D5400703D5696841F475
:104F8000E06169602078010703D5686840F46050EB
:104F900068606968A06821F0F001014369602178C8
:104FA000C80749D56068012802D129688A0303E04F
:104FB0000228296802D18A0102D445E08A0743D534
:104FC0006968890840EA81006860FFF793FC07463A
:104FD0006868616800F00C00B0EB810F2CD0FFF71F
:104FE00089FCC01B41F289318842F1D3032021E0C2
:104FF0002078410705D56A68E06822F4E062024340
:105000006A602178080706D56968206921F4605133
:1050100041EAC001696000F023F86A683049294B11
:10502000C2F30312895CC84018602848006800F089
:10503000BBFA0020BDE8F081306800F00700804531
:10504000D6D200F003F8D3D00120F3E73168C908C5
:1050500048EAC1013160306800F007004045704700
:10506000204919480A6802F00C03082B00D0704749
:1050700010B500BF1EA4C2F38343D203E35C08D57E
:10508000096858431EA3C1F340415A5CB0FBF2F0DB
:1050900010BD18461449484310BD0A48114A00681B
:1050A00013681249C3F3022206E006480D4A00685D
:1050B00013680E49C3F3C222895CC84070470000E0
:1050C00000100240BC00002000127A00B80000204E
:1050D0000000424280044242007000400020024032
:1050E000D8AC02080410024000093D0004AD0208DB
:1050F00002030405060708090A0B0C0D0E0F101019
:10510000010200002DE9FC410646354D3078C1070B
:1051100050D5A8690024C10009D4A86940F0805086
:10512000A8610124A86900F08050009000982D4FDC
:105130003868C10519D4386840F480703860FFF7CA
:10514000D9FB80463868C1050FD4FFF7D3FBA0EB2D
:1051500008006528F6D303203FE0FFF7CBFBC01B18
:1051600041F28931884217D3F5E7E86910F44070BD
:105170001EBF716801F44071884210D01A49E86975
:1051800001220A60002320F440700B60E861C00730
:1051900005D5FFF7AFFB0746E8698107DDD5EA696A
:1051A000706822F440720243EA611CB1A86920F0E1
:1051B0008050A8613078810705D52A68B06822F44C
:1051C000404202432A603178C80605D529687069D3
:1051D00021F48001014329600020BDE8F681000030
:1051E00004100240007000404004424200B500BF7D
:1051F000130096469446103928BFA0E80C50FAD800
:105200005FEA417C28BF0CC048BF40F8042BC907A7
:1052100028BF20F8022B48BF00F8012B00BD00007A
:10522000704701F037BB01F0C2BC704780B522481F
:105230000168491CB1F57A7F03D14268521C0021F4
:105240004260016001F0F7FCBDE8014001F0FABCEA
:1052500001F0DCBC10B5194C194941F288334FF408
:105260007A72204601F0B0FC204601F0B5FC002324
:105270003222144904F1100001F0A6FC04F11000E0
:1052800001F0AAFC05234FF47A720F4904F12000C3
:1052900001F09AFC04F1200001F09EFC32234FF44F
:1052A0007A720A4904F1300001F08EFC04F13000FA
:1052B000BDE8104001F090BC7C150020981400203F
:1052C0002152020823520208275202082B520208D8
:1052D0002DE9F8438046DDF828900D4617461C4618
:1052E0001C20FBF787FD0646484635607760B460B2
:1052F00001F0DAFCF06000B9FEE709980899B08285
:1053000019B9FBF777FD306100E03161306978B1A0
:105310000B98B061484840F828602868C16841F09F
:105320001001C1602846B28A316900F013FA304694
:10533000BDE8F2837CB501683F4D002455F8240098
:1053400018B1006802688A4203D0641C072CF5DBA0
:1053500073BDE4B24CB355F82400006801680A68D4
:10536000D30622D500F043FA0020009055F82430EF
:10537000196809680A68009249680091009858689D
:105380000268998A5668D8688E1B1969324601F0FE
:1053900067FC55F8240000693146FBF7FDFE55F81F
:1053A000240000F004F802B00BE073BD7047016800
:1053B0000968CA6842F01002CA600169828A0068FE
:1053C0007047BDE8704000F0C5B90000F8B5002096
:1053D0004FF4807180220390029101920090174B4C
:1053E000174A18490120FFF773FF1349486830B97D
:1053F0000DF1140D5DF804EB15A0FFF7EBB905B046
:1054000000BD01B5FF23012269460E4800F049F9AD
:1054100000990D480268D3070BD50C480268D307E2
:1054200001D406E000BF4FF0604210680028F9D0B8
:105430001170009802BD000038150020AC13002048
:1054400068130020D8140020800E00E0000E00E059
:105450006372656174652075617274206F70742069
:1054600068616E646C65206661696C642E0A000078
:105470007CB500F01AF810B94FF0FF3076BD0699F0
:10548000009133462246294601F084FD76BD70B571
:1054900000F00BF810B94FF0FF3070BD33462246D4
:1054A0002946BDE8704001F021BD0C4615461E4658
:1054B00001F0F9BC10B50C4601F0F5FC20B1214615
:1054C00001F022FEC043C00F10BD80B501F0EBFC1F
:1054D00010B94FF0FF3002BD806B02BD01F092BEEB
:1054E0000901020002D4294881547047284B02F078
:1054F0000F021A4402F8041C7047264B19684FF635
:10550000FF020002114000F4E06008432249084312
:105510001860704738B51F4B1C68C4F30223C3F1F1
:105520000704052C28BF04241D1D072D34BF0023AC
:10553000DB1E012505FA04F4641E2140994005FA9A
:1055400003F35B1E1A401143BDE83440C8E7010075
:1055500007D4012200F01F01104B8A40400943F894
:105560002020704710B5401EB0F1807F01D301208C
:1055700010BD0B4C60600F214FF0FF30FFF7B0FF04
:105580000021A16007202060002010BD00E400E0A1
:1055900018ED00E00CED00E00000FA0500E100E08D
:1055A00010E000E0FFF742BE38B50D4D0D4B2A78F4
:1055B00004464FF47A711868B1FBF2F2B0FBF2F0D6
:1055C000FFF7D0FF50B9102C08D2002221464FF02F
:1055D000FF30FFF79FFFAC60002032BD012032BDDD
:1055E000B0000020BC0000200E4881B0016841F0EE
:1055F00001010160026802F0010200920099426814
:1056000042F080524260406800F080500090009864
:105610000548016821F0E06141F00071016001B0CE
:10562000704700BF181002400400014038B5040064
:1056300001D1012032BD00F021F808B900F022F8B4
:1056400000F012F800F023F8FFE7416100F001F8E4
:1056500032BD2068C16841F40051C160002068601B
:1056600020216970A9707047242068702068C16883
:1056700021F40051C160204600F06CBA04F13805F5
:1056800068787047002129702046FFF734BA2068F7
:10569000016921F4904101612068416921F02A01EA
:1056A00070472DE9F843054605F138060C46707839
:1056B00020281746994642D10CB1380001D101206B
:1056C0003EE0307801283AD001213170002070602E
:1056D00021227270FFF70EF9AF848046EF84A8682C
:1056E000B0F5805F04BF286900280EBF274620461A
:1056F00000270021317004460EE014F8012B4260AF
:1057000007E02868002CF8D137F8021BC1F3080124
:105710004160E88C411EE9844346E88CCDF8009056
:1057200000280FD000228021284600F082F90028AE
:10573000E7D0032004E020207070002000E0022069
:10574000BDE8F28300224021284600F072F90028CB
:10575000F1D0EEE77CB5044604F138051346A8788D
:1057600020283ED109B1180001D1012076BD28784A
:10577000012836D001202870A162A38500226A602A
:105780002220A8700026606B0FF21D228262606BDF
:105790000FF24D22C262606B0FF24D2202630A4685
:1057A000606B46632668606B311D00F053FA002081
:1057B000009021680A68009200224B6800930098CC
:1057C0002A70CB6843F48073CB602068416941F054
:1057D000010141612068416941F0400141610020BF
:1057E00076BD022076BD1020E063032010BD10B509
:1057F00000F021F80BD500F018F840B100F010F8D7
:1058000028B1606B00F0F4FB202800D1EBE700F03A
:1058100001F810BD0020E085202184F83A1070477F
:1058200000214163606B00F04FBA416921F04001F3
:105830004161606B704704462068C16821F4907133
:10584000C160206841694908490041612068416997
:105850004A06704738B5044625682968EA686B69C6
:1058600011F00F0007D188065FD593065DD520465D
:10587000BDE832402CE1D80702D412F4907F54D016
:10588000C80705D5D50503D5E06B40F00100E063FE
:10589000480705D5DD0703D5E06B40F00200E06363
:1058A000880705D5DD0703D5E06B40F00400E06311
:1058B000080707D5950601D4D80703D5E36B43F055
:1058C0000803E363E06B00286CD0880604D59106DA
:1058D00044BF204600F0FCF820684069E16B0A07ED
:1058E00001D440061BD5204600F0DEF8206841694F
:1058F0004A060FD5FFF799FF60B10FF2C911416356
:10590000606B00F006FA00284CD0606B416BBDE87C
:10591000344008472046BDE8324001F0CBBC204669
:1059200001F0C8FC0020E06331BD08062AD513064B
:1059300028D594F83900212834D1A068B0F5805FCB
:1059400004BF2069002808D1206A0188C1F308013A
:105950006960206A811C216204E0206A411C216286
:1059600000786860E08C401EE08480B2D0B9206886
:10597000C16821F08001C1602068C16841F0400128
:10598000C16031BD48060DD551060BD5E86820F041
:105990004000E860202184F839102046BDE83240FC
:1059A00001F089BC31BD0000416A006802689306BD
:1059B00013D40020C8850868C26822F48072C260CF
:1059C000086842695208520042610868426922F040
:1059D00040024261202081F83A000846FFF7E6BC09
:1059E000406A01F069BC000038B5446A206840692B
:1059F00004F139052978212906D1010604D50022B0
:105A0000E284204600F047F8216848696978222935
:105A100006D1400604D50021E185204600F044F877
:105A2000E06B40F01000E0632046BDE8324001F03A
:105A300041BC2DE9F041069C05460E4690461F46A6
:105A4000286801683140B1420CBF01200020404568
:105A500017D114F1010FF3D024B1FEF74BFFC01B97
:105A60008442EDD22868C16821F4D07100F00CF8AE
:105A700005F1380020214170817000210170032060
:105A800000E00020BDE8F081C16028684169490854
:105A90004900416170470168CA6822F0C002CA60CB
:105AA000202180F8391070470168CA6822F490728A
:105AB000CA6001684A69520852004A61202180F890
:105AC0003A107047406A0021C185C18401F0F2BBE1
:105AD00080B590F83A1022293AD18168826AB1F5EE
