:020000040800F2
:20000000B0C4002095560108E9350108EB350108ED350108EF350108F13501080000000081
:20002000000000000000000000000000B7F30008F33501080000000071F3000861D900082F
:20004000A55B0108A95B0108AD5B0108B15B0108B55B0108B95B0108BD5B0108C15B0108E8
:20006000C55B0108C95B0108CD5B0108D15B0108D55B0108D95B0108F5350108FF350108DE
:200080000936010813360108DD5B0108E15B01081D360108E55B0108E95B0108ED5B0108FD
:2000A000F15B010827360108F55B0108F95B0108FD5B0108015C0108055C0108095C010830
:2000C0000D5C0108115C0108155C0108195C0108353601083F360108513601081D5C01083C
:2000E000215C0108255C0108295C01082D5C0108315C0108355C0108395C01083D5C010860
:20010000415C0108455C0108495C01084D5C0108515C0108555C0108595C01085D5C01083F
:20012000615C0108655C0108695C01086D5C0108100703000000685B01086C0412700412A1
:200140007404127804127C041003B0580108B80412C00412C80412D00412D804F008046E35
:200160006F72666C61736830000110080100100000BD340108E70410032D3501087D041240
:20018000012C12AA01F0030A345701080001F0033E705901080001100F142E0108E44B0145
:2001A0000890530108B4550108C40412D40412A41012B804138C4F20111012F40412CC10CC
:2001C00012A81012E0081230EC1003605A0108680412700412780412800412880411E3109F
:2001E0000C000024F400F8030020473B00084B04124F04100339E200089F0412E10421236E
:200200001003A3E400086F04B0017DE400D8125B1012510412650412C504240C0902290041
:20022000010100C032090400000296201109211101000122020007058103020005070501EF
:2002400007211AF1472C611A110120010A0600082640B810035D33010867041299041271CB
:200260000412AF0412C10412E90443120128100783045057000201020331F40409040309D2
:20028000041A03C612FF0112018F1003BC020020BD0452BC042132A10852A80CF10B0110F0
:2002A0000702040101347000208404523404213461081604A0F213F0484003080202E46F02
:2002C000402108210421346108124C48F31138034812786C12C004F206082C1E605803F1E3
:2002E000070452FF01F20062144C020000645B4403F20670581B1587441104CB29876861D1
:0B030000015201156164000100C00102
:2008000000010000A058010825BF0008284C010800010000A858010805A80008C451010890
:2008200000080000A85A01089A5600080456010800210000B05A0108D9150008B85A010805
:200840000009000000415B1BF91900089C5B01080009000000425B1B071A0008C05A0108B1
:200860000019000000435B1B171A0008C85A01080019000000445B1B371A0008D05A0108E3
:200880000009000000000009511A0008A05B01080019000000000008211C000860580108A8
:2008A000001900000000007F211C00086C580108001900007E335B1B2F1C0008D85A0108C0
:2008C000001900000000000A3F1C0008E05A0108001900000000000D3F1C0008E85A01087B
:2008E00000200000F05A0108531C0008884D010800210000F85A0108291E000814560108F2
:2009000000210000005B01083D1E00082456010800210000085B0108511E000834560108D5
:2009200000210000105B0108651E00084456010800210000185B0108791E00085456010805
:2009400000010000585B0108EFED00083054010870B504000D0016000020A0810020E0815B
:200960000020A4F854000020A4F850000020A4F852000020206094F8600050F0010084F804
:2009800060002561300080B2062190FBF1F0A0860020010009B205290CDAA18E020012B271
:2009A000521C51432944020012B204EB8202D163401CEEE7DFF8100CA065DFF8101CDFF858
:2009C000100C091A0909A4F85C10200000F010F80023A26DDFF8FC1B200000F0CBFC0100AE
:2009E000200000F0ACFE0121200000F082F870BD0022110009B205290EDADFF84C3C1100F0
:200A000009B253F82110002904D1110009B243F8210001E0521CECE770470021080000B2C5
:200A2000052818DADFF8202C080000B252F8200000280ED0080000B252F8200090F860003E
:200A4000C0F34000C0B2002803D009B252F8210002E0491CE2E70020704738B504000D002B
:200A60002800C0B2A16E884731BD70B504000D000026A06E002801D100200AE028780028DA
:200A800005D02878A16E88476D1C761CF6E7300080B270BD70B504000D000026A06E0028EA
:200AA00001D1002024E0287800281FD028780D281CD028780A2819D0300080B2242815DA70
:200AC0002878A16E88476D1C761C300080B22428E9DB68780028E6D02E20A16E88472E20D3
:200AE000A16E88472E20A16E8847DCE7300080B270BD38B504000D0094F8600010F00100AF
:200B000000281ED02800C0B2002803D075A12000FFF7ABFF206841682000FFF7A6FF72A155
:200B20002000FFF7A2FFA068002801D0A16800E06EA12000FFF799FF6DA12000FFF795FF9F
:200B400005E0DFF8580C016B2000FFF78EFF31BD0A78002A09D04A7812F00F02082A04D018
:200B60000A7803681B781A420DD090F8600010F00100002805D14878C0F30010C0B20028B8
:200B800001D0002001E05FF0FF3040B2704730B40200082000240C72002A11D012F00F048C
:200BA0002300441E20001D00EDB20A2D02DB13F1570501E013F13005E4B20D551209EBE761
:200BC000D0F1080040B230BC704730B402000B000B201100002A01D5544221000024DC7261
:200BE00000290DD0401E0A2491FBF4F504FB151430340500EDB25C550A2491FBF4F1EFE798
:200C0000002A04D5401E2D240500EDB25C55002A04D1401E30240500EDB25C55D0F10B00FB
:200C200040B230BC704710B403000020020092B28A5C002A07D0020092B28A5C0400A4B285
:200C40001A55401CF2E700220400A4B21A5580B210BC704730B4030000200024220092B2BF
:200C60009A5C002A0FD0220092B28A5C002A0AD0220092B29A5C2500ADB24D5DAA4202D1DC
:200C8000401C641CEAE780B230BC704738B5040000200100C9B2092907DA3021DFF8802B5F
:200CA0000300DBB2D154401CF3E7607810F00F00022801DA606814E0607810F00F0008288A
:200CC00001DA60680DE0607810F00F00092801DA606806E0DFF8485B29006068FFF757FF2C
:200CE000280032BD0D0A00003A0000002F00000024200000417811F00F01022901DAC06821
:200D00000EE0417811F00F01082901DAC06807E0417811F00F01092901DAC06800E0C068F9
:200D200070472DE9F04104000D002800FFF7AEFF01002000FFF799FE0600D6F11606300012
:200D400000B2012800DA042620212000FFF785FE761E300000B20028F6D1687810F00F0086
:200D6000022806DADFF8340A016C2000FFF77DFE29E0687810F00F00082806DADFF81C0A51
:200D8000416C2000FFF771FE1DE0687810F00F00092806DADFF8040A816C2000FFF765FED9
:200DA00011E0687810F00F000A2806DADFF8EC09C16C2000FFF759FE05E0DFF8E009016DC8
:200DC0002000FFF752FE89A739002000FFF74DFE5FF00708404640B200280FD42878012140
:200DE00011FA08F1084201D0782100E02D21C9B22000FFF732FEB8F10108EBE7390020006F
:200E0000FFF733FE2800FFF775FF01002000FFF741FEC0A12000FFF728FEBDE8F08170B5EB
:200E20000400A56DDFF8CC0B81682000FFF71DFE0026300000B2B4F85C1088421CDA3000C4
:200E400000B200012844407810F00F00022811DA300000B2000105EB00012000FFF778FE37
:200E6000002807D1300000B2000105EB00012000FFF757FF761CDCE770BD70B50400A56D75
:200E8000DFF8700BC1682000FFF7EFFD0026300000B2B4F85C10884225DA300000B2000109
:200EA0002844407810F00F0002281ADB300000B200012844407810F00F00082811DA30007F
:200EC00000B2000105EB00012000FFF741FE002807D1300000B2000105EB00012000FFF72F
:200EE00020FF761CD3E770BD70B50400A56DDFF8040B01692000FFF7B8FD0026300000B2FC
:200F0000B4F85C10884225DA300000B200012844407810F00F0008281ADB300000B20001D2
:200F20002844407810F00F00092811DA300000B2000105EB00012000FFF70AFE002807D170
:200F4000300000B2000105EB00012000FFF7E9FE761CD3E770BD70B50400A56DDFF8940A97
:200F600041692000FFF781FD0026300000B2B4F85C10884225DA300000B200012844407843
:200F800010F00F0009281ADB300000B200012844407810F00F000A2811DA300000B2000106
:200FA00005EB00012000FFF7D3FD002807D1300000B2000105EB00012000FFF7B2FE761C2E
:200FC000D3E770BD10B504002000FFF728FF10BD38B504000D002800451EC0B2002804D060
:200FE0004DA12000FFF741FDF5E731BD2020000038B50400B4F90C00B4F90E50451B280068
:2010000000B2012805DB20212000FFF726FD6D1EF5E7A189C9B22000FFF7DAFF31BDF8B505
:2010200004000D00A089A18E491E88420EDBDFF8C40941682000FFF718FD01212000FFF77D
:2010400058FD21692000FFF710FD61E0E089A189884212D1A089411CA181216980B20D5448
:2010600000202169A2898854E089401CE0812900C9B22000FFF7F1FC4AE0E089A18988426B
:2010800046D2B4F90C00B4F90E10411A080000B2012810DB2269E389080000B2C318266970
:2010A000E789080000B2C71906EB070010F8010CD054491EEAE7E089411CE181216980B2D9
:2010C0000D54A089401CA08100202169A2898854B4F90E00461E300000B2A189884208DA81
:2010E0002069310009B2415C2000FFF7B6FC761CF1E7B4F90C00B4F90E60861B300000B255
:20110000012805DB08212000FFF7A7FC761EF5E7F1BD00000D0A000008200800F8B50400CE
:201120000D0028005FF0FF3140B2884201D1012600E00026E089002803D1280040B2012898
:2011400009D0E089A189884206D128005FF0FF3140B2884200D165E0E089A189884212D1C9
:20116000280040B201280ED1E089401EE081A089401EA08100202169A2898854012120008A
:20118000FFF726FF4EE03100C9B20A0012B2A389E0891B1A9A420FDA2269E389080000B24C
:2011A000C3181A442369E789080000B2C719D85D02F8010C491CE8E7A089401EA081300018
:2011C000C0B2002806D1E089401EE08108212000FFF743FC00202169A2898854B4F90E701C
:2011E000380000B2A189884208DA2069390009B2415C2000FFF731FC7F1CF1E720212000FE
:20120000FFF72BFCB4F90C00B4F90E70C71B7F1C380000B2012805DB08212000FFF71DFC05
:201220007F1EF5E7F1BD70B402000020012300210C0024B2082C07DA00240D002DB202EB08
:2012400085056C61491CF3E70021D18600242100958989B2A94247D20100C9B200290BD15D
:2012600011692500ADB2495D202934D011692500ADB2495D00292ED011692500ADB2495D0E
:20128000222905D1C0B2002801D0002000E001201900C9B201290FD1D18E08290ADAD18E30
:2012A0004D1CD58615692600B6B2354489B202EB81014D6100210B0011692500ADB2495DBD
:2012C0005C290FD111692500ADB229444978002908D0641C06E0002115692600B6B2A955EB
:2012E00001210B00641CB2E770BC704770B5040000263000E18E80B288423AD2300080B26D
:2013000004EB800040690078222811D10020310089B204EB810149690870300080B204EB99
:2013200080004069401C310089B204EB81014861300080B204EB8000406900F0B7FD05007F
:20134000300080B204EB80004069290089B2084410F8010C22280AD1300080B204EB800058
:201360004069290089B20844002100F8011C761CBFE770BD2DE9F04704000D0016001F00E6
:20138000B4F85C90A06D301AB9EB10195FF0000A5046494680B289B288423BD2504680B207
:2013A00000013044407810F00F00092809D0504680B2000106EB00012000FFF7C9FB00282A
:2013C00000D024E0504680B200013044FFF75EFC8046380080B200280BD14146280000F0D9
:2013E000BDFD002813D11FFA8AFA5FEA0A10304411E03A0092B24146280000F0B8FD0028C8
:2014000005D11FFA8AFA5FEA0A10304403E01AF1010ABDE70020BDE8F08770B504000D0073
:201420000026687810F00F00022809D025D304280FD009D3062810D00FD3072810D01CE0BA
:20144000A8680068060018E0A868B0F90000060013E0A868007806000FE0A86806000CE0E5
:20146000A8684068002806D0A8680068A96849688847060000E00026FFE7300070BD70B539
:2014800004000D0016006878C0F38010C0B2002806D0DFF86005016A2000FFF7E6FA37E0DE
:2014A000687810F00F00022809D031D304280CD008D3062811D00BD3072815D028E0A8683A
:2014C000066025E0A868068022E0A86806701FE03100A868FFF7A7FB1AE0DFF81805C16993
:2014E0002000FFF7C2FA13E0A868806800280ED0A8680068002806D03100A8680068AA68F8
:201500009268904703E03000A96889688847FFE72900200000F001F870BDFEB504000D000D
:201520006846DFF86C1991E84C0080E84C0029002000FFF772FF060069682000FFF795FAFC
:20154000B4A12000FFF791FA687810F00F0005280DD1B1A739002000FFF787FA3100200022
:20156000FFF783FA39002000FFF77FFA25E069463000FFF72AFB694640B24042084410F1C1
:201580000B012000FFF771FADFF808192000FFF76CFA0020010009B20B2906DA30216A4659
:2015A00003001BB2D154401CF4E769463000FFF7EEFA69462000FFF758FA98A12000FFF7DC
:2015C00054FA3000FEBD0000000800085009000800080008905A0108F8B506000F00FFF7A6
:2015E0001CFA0500002D01D100202BE00023AA6D31002800FFF7BEFE0400002C07D1DFF882
:20160000F403816A2800FFF730FA00201AE0607810F00F00022804DB607810F00F0008287F
:201620000BDB31002800FFF720FADFF8C803416A2800FFF71AFA002004E03A002100280055
:20164000FFF71DFFF2BD00003873002070B504000D00002694F8600050F0020084F8600098
:20166000687810F00F0F13D12000FFF73FFE14F11401E08EAA68904706006878C0F34010DB
:20168000C0B2002834D13100200000F089F82FE0687810F00F00012812D114F11403E28E53
:2016A0002900200000F0E2FD06006878C0F34010C0B200281CD13100200000F071F817E001
:2016C000687810F00F00022809DB687810F00F00082804DA29002000FFF71FFF08E06878EB
:2016E00010F00F00082803D12900200000F027F894F8600010F0FD0084F86000300070BD5D
:2017000010B5040020688168206900F027FC00280BD194F8600050F0010084F860001F487F
:2017200001682000FFF7A1F904E01C48416B2000FFF79BF90020A0810020E08110BD70B53E
:2017400004000D002560A86800280FD0A86800F0ADFB00280AD0E08E022805DBA169A868A0
:2017600000F0FCFB002801D0002000E0012094F8601060F3000184F860109E4EB16B200004
:20178000FFF773F994F8600010F00100002803D031682000FFF769F970BD0000E4000020BD
:2017A0007FB504000D006846DFF8EC1691E84C0080E84C00DFF8E4162000FFF756F96946FF
:2017C0002800FFF702FA694640B24042084410F10B012000FFF749F9DFF8B8162000FFF760
:2017E00044F90020010009B20B2906DA30216A4603001BB2D154401CF4E769462800FFF7C2
:20180000C6F969462000FFF730F904A12000FFF72CF97FBD203D2000220000000D0A000049
:20182000D873002010B504000020A4F85400B4F8500000280FD0B4F85200002801D1052044
:2018400001E0B4F85200216904EB8000806B00F085FB002821D02169B4F8520004EB800045
:20186000C06BFFF7E0F9002804D0B4F85200401CA4F85200B4F85000401CA4F85000B4F83A
:201880005000062802DB0520A4F85000B4F85200052802DB0020A4F8520010BD38B5040008
:2018A0000D00280040B2012822DBB4F85200B4F85010884202D2B4F8500001E0B4F8520058
:2018C000B4F954104A1EA4F85420404209B2884220DBB4F85200B4F85010884202D2B4F829
:2018E000500001E0B4F852004042A4F8540011E0280040B200280CD5B4F85400401CA4F83B
:201900005400B4F95400012804DB0020A4F8540027E026E02000FFF76BFBB4F954000028A8
:2019200004D10020A081A089E0811AE0B4F85210B4F954004118491D052091FBF0F200FBB1
:20194000121104EB8100C16B2069FFF76CF9A08180B2002805D0A089E08121692000FFF76A
:2019600084F831BD38B504000D0094F8600010F0FB0084F860002900C9B22000FFF74FFB38
:2019800031BD38B50500A889002831D000202969AA89885495F8600010F00100002824D042
:2019A0002800FFF73FFF2800FFF73DFC0020E881E889A881E88E00281AD0C5A12800FFF745
:2019C00054F80023AA6D69692800FFF7D3FC0400002C04D021002800FFF738FE08E0054814
:2019E00081692800FFF741F802E02800FFF788FE31BD0000E400002010B504000121200023
:201A0000FFF74CFF10BD10B504005FF0FF312000FFF744FF10BD10B50400E089A189884224
:201A200008D2E089411CE181216980B2095C2000FFF713F810BD10B50400E089002806D065
:201A400008212000FFF709F8E089401EE08110BD2DE9F84F0500AE8E00275FF00008A88904
:201A6000002807D12800FFF7ADFA01212800FFF740F893E0A889002800F0908000202969AB
:201A8000AA898854D5F858905FF0000A504600B2B5F85C1088424CDA504600B2000109EB9B
:201AA00000012800FFF754F800283FD1504600B200014844FFF7EAF801002869FFF7CAF88C
:201AC000A98980B2884231D1404680B2002828D0404680B2012803D17DA12800FEF7C5FF4A
:201AE000380080B2000109EB00012800FFF719F9504600B200014844FFF7C8F883463800CA
:201B000080B200014844FFF7C1F85946FFF7A2F804002000310080B289B2884201D22600A3
:201B2000FFE7504680B2070018F101081AF1010AACE7404680B2002870D0404680B2012834
:201B400002D12800FFF754FA404680B200280AD0380080B200014844FFF798F8010028697D
:201B6000FFF761F8A881404680B202280CDB380080B2000109EB00012800FFF7D2F80121BA
:201B80002800FEF7B6FFAE8100202969AA898854A889E88129692800FEF767FF00F0EAFBFF
:201BA00000283BD0404680B2012831D195F86000C0F38000C0B200282AD000F0DBFB6968C4
:201BC000401AC82824D22800FFF712FAB5F90C00010009B200290AD42969020012B2895CE1
:201BE0002A6903001BB21A445171401EF0E7AC492869FFF718F8202029690871A889401DC8
:201C0000A881A889E88129692800FEF72EFF05E095F8600050F0040085F86000BDE8F18F0D
:201C200010B5040001212000FFF778FA10BD10B504005FF0FF312000FFF770FA10BD10B50A
:201C400004002000FFF79DFE01212000FEF751FF10BD2DE9F04106000F00FEF7DEFE04004A
:201C6000002C33D0012E03D12000FFF7ABF92DE0022E2BDB0023A26D79682000FFF77AFB97
:201C80000500002D1DD08748C16A2000FEF7EDFE2800FEF7FBFF01002000FEF7E6FE0FF219
:201CA000300841462000FEF7E0FE2800FFF722F801002000FEF7D9FE41462000FEF7D5FEDE
:201CC00004E0784881692000FEF7CFFEBDE8F0810D0A00002DE9F84304000D002800C0B26B
:201CE000002800F08E8018260027A06B10F47F4F05D0002006007FF0FF00070011E0A06B10
:201D000010F47F0F04D0082006006748070008E0A06B10F07F4F04D0102006005FF07F40A0
:201D20000700D4F858805FF00009484600B2B4F85C10884253DA484600B2000140444078D4
:201D400010F00F00092847D1484600B2000108EB00012000FEF7FCFE00283DD1484600B271
:201D60000001404440683840A16B884234D1FF21484600B200014044426811FA06F0024011
:201D80002800C0B2B040824226D1A06B2A00D2B2B2401043A063002005003000C0B200280E
:201DA00009D0484600B2000140444268B6F1080081400A4210D1484600B200014044806891
:201DC000002806D02000494609B209014144896888470020A06302E019F10109A5E728007F
:201DE000C0B2002806D00020A0632900C9B22000FFF7B8FD00F0BEFA002802D000F0BAFA9B
:201E00006060BDE8F18338B504002500686E002809D06846696E8847002804D19DF8001006
:201E20002800FFF757FF31BD10B5FEF7F6FD0400002C02D02000FFF757F810BD10B5FEF7A5
:201E4000ECFD0400002C02D02000FEF7E8FF10BD10B5FEF7E2FD0400002C02D02000FFF71D
:201E60000CF810BD10B5FEF7D8FD0400002C02D02000FFF770F810BD10B5FEF7CEFD04002C
:201E8000002C04D00748816B2000FEF7EEFD10BD3C580108985A0108485801085458010844
:201EA000A05A0108E40000200000FFFF00F10103810704D010F8011B820781B1FAD10268B8
:201EC000A2F10131914311F0803104BF50F8042FF6E709BAB1FA81F100EBD100401CC01ACA
:201EE0007047F0B40246106895681318506803EB5004C0071DD54D441BE013F8017B05F8DC
:201F0000017B491EF9D1A0B1B60813F8011B06F00306032E08BF13F8016B01EB06214942D2
:201F2000801C294405D011F8016B05F8016B401EF9D1A3420ED013F8016B16F0030104BFB6
:201F400013F8011BC91C30090F28DAD113F8010B0F30D6E7F0BC02F10C00704710F8012BB1
:201F600011F8013B0AB19A42F8D0D01A704704E010F8013B6BB1491C521E52B10B7890F8F5
:201F800000C09C45F4D002D24FF0FF30704701207047002070470200130000211878302816
:201FA00008D15878782802D05878582802D10320010010E01878302808D15878622802D0E2
:201FC0005878422802D10120010004E01878302801D1022001001800431C0078002807D023
:201FE00018782E28F7D158780028F4D0042001000800C0B2704701000800C0B2302807DB6C
:202000000800C0B23A2803DAB1F13000C0B218E00800C0B2612807DB0800C0B2672803DA00
:20202000B1F15700C0B20CE00800C0B2412807DB0800C0B2472803DAB1F13700C0B200E093
:202040000020704701004A1C002310785C2817D15078302810D0622806D06E2808D07228C3
:2020600004D0742806D009E008200AE00D2008E00A2006E0092004E0002002E0507800E043
:202080001078C0B2704770B505002E0000242878222801D16D1C2E003078002819D030783F
:2020A0005C2807D1701EFFF7CDFF210089B26854761C0BE03078222804D10020210089B29C
:2020C000685403E03078210089B26854761C641CE2E70020210089B26854280070BD2DE923
:2020E000FE4F05005FF0000B0A26009500275FF001085FF0000900200190002428782D28CE
:2021000002D15FF0FF30804640465FF0FF3140B2884201D1012000E000202844FFF73BFF58
:2021200082465046C0B201280ED012D3032801D005D30EE0102006000220070009E00820B1
:2021400006000120070004E00220060002200700FFE740465FF0FF3140B2884201D1012082
:2021600000E000203900C9B2294401EB000B9BF80000002818D09BF800002E2804D10120C5
:2021800004001BF1010BF2E73000C0B200909BF80000FFF730FF009901FB090081460A20D1
:2021A00044431BF1010BE2E75046C0B2042815D1002C13D0484600F0E3F80090200000F095
:2021C000DFF80100009800F0E9F80090404640B200F062F9009900F071F904E04FFA88F8CB
:2021E00008FB09F84046BDE8FE8F70B505000E000023AA6D711C2800FFF7BCF80400002C22
:2022000004D021002800FFF708F900E0002070BD38B504000D002878272806D168780028B1
:2022200003D02800FFF70EFF1FE028782D2805D02878302806DB28783A2803DA2800FFF701
:202240004EFF12E02878242807D16878002804D029002000FFF7C9FF07E02878002803D016
:202260002800FFF710FF00E0002032BD2DE9F0438BB004000D0016001F0003A8202100F09C
:2022800089F9701EA97811F00F01884204DA95F8028018F00F0801E0B6F101085FF000093D
:2022A000701E81450BDA07EB890041682000FFF7AFFF03A941F8290019F10109F0E7B8F15B
:2022C000000F0FD0B8F1020F13D00ED3B8F1040F1BD013D3B8F1060F2BD01FD3B8F1070F9B
:2022E00034D042E0A868804741E00398A96888473DE004990398AA68904738E003A882685A
:2023000041680398AB68984731E003A8C368826841680398D5F808C0E04728E003A8016999
:202320000091C368826841680398D5F808C0E0471DE003A84169019101690091C368826803
:2023400041680398D5F808C0E04710E003A8099902914169019101690091C36882684168B8
:202360000398D5F808C0E04701E05FF0FF300BB0BDE8F08301480068704700BF30740020E9
:2023800000280AD0B0FA80F18840D1F19D01C905020672F1004241EB1020704710B5FF2383
:2023A00013EAD0541DBF13EAD1529C429A4239E0A41ADA0780EA0103134042EA012142EA53
:2023C0000020421A3CBF641E01EB4202090AB2FBF1FE01FB1E221202B2FBF1F001FB102219
:2023E0006EF30F201202B2FBF1FE4EEA00207F3406DDFE2C24DA53EA500050EBC45010BDDE
:20240000D4F1020401FB1E2240F08071192C1DDC21FA04F0C4F12004A140114371F1004295
:20242000584110BD9C421ABF03EAD1529A420FE080EA010E0EF00043400004D0490016D1A6
:2024400043F0FF4010BD490008BFD343180010BD9C4205D1D21AF7D001F00041484010BD44
:202460004A0212BF0846484000F0004010BD4AB90902B1FA81F2914044B1A418C00140F0CD
:2024800000409EE7C90141F0004152420002B0FA80F4A040141B94E7C2175040801AB0FA50
:2024A00080F10AD08840D1F19D01D20742EAC151020672F1004241EB10207047FF2212EAB5
:2024C000D05C1DBF12EAD153944593422BE09C44D30780EA01021A4043EA002043EA0121FE
:2024E000A1FB0030C04238BF40007CF17F010BDBFE294ADA5B0842EAC15153EA006373F114
:20250000004C51EB10207047D1F1080CDCF120012FDB5B0810FA01F10B4320FA0CF073F157
:2025200000415041704794451CBF02EAD153934280EA010202F000421DD0400019D0490079
:2025400017D05BB9634514D00902B1FA81F39940BCEB030CC00140F00040C1E70002B0FAB6
:2025600080FC10FA0CF0B3EB0C0CC90141F00041B6E71000704740000AD0490008D010F147
:20258000807F94BF11F1807F02E042F0FF407047D0437047002200F01DB830B4002513E031
:2025A00050F8042BD30744BFA9F101039A18091F042942F8045BFAD213468C0744BF158039
:2025C0009B1CC90748BF1D7050F8041B0029E7D130BC704700B500BF13009646944610396F
:2025E00028BFA0E80C50FAD85FEA417C28BF0CC048BF40F8042BC90728BF20F8022B48BF14
:2026000000F8012B00BD8268521C8260426832B10268531C036011704168491E41607047ED
:2026200000F5E0700268914203D343681A44914202D380680028F5D17047DFF86C1708683A
:2026400090B94FF4805048604FF480324FF0FF30C86008610420DFF854378A604861C3F8AE
:20266000BC01DFF84C0708600120704701F1080313F0070F0EBF0023C3F1080303F0070371
:202680001944D21A8161C26042F001034B60091D4FF0280C41F802C0DFF80C271369C361CE
:2026A00070472DE9FC4B074601F1080010F0070F0FBF8946C0F1080000F0070001EB000967
:2026C00002F1080111F0070F06D002F10800C0F1080000F0070002441546A5EB090009EB38
:2026E0000306A0EB030B43F00303C9F80430AE4228BF01F025FA2879C10758BF01F020FA98
:20270000BBF1100F38BF01F01BFAB869854208D1F9688B44C7F80CB0BE614BF0010070605A
:2027200051E1786985420AD1B9688B44C7F808B07E614BF00100706046F80BB043E16868A5
:2027400000F00301012940F0AC80C008C0000190C0081F2839D8AC68D5F80C80009045453F
:2027600008BF01F0EDF9A54208BF01F0E9F968680099C008C000B0EBC10F18BF01F0E0F93D
:20278000009907F1280000EBC100844206D039698C42C0F08180E268AA427DD1A04506D1D7
:2027A00000983968012383409943396076E0804506D0396988456FD3D8F80800A8426BD1E4
:2027C000C4F80C80C8F8084068E0EC68D5F81880AC420CD0A8683969884223D3C268AA4256
:2027E00004BFA168A9421DD1C460A0601CE005F114010C6834B905F110010C68A4B101E0F7
:2028000011460C6804F114021068002802BF04F1100210680028F3D13869814202D30022BB
:202820000A6001E001F08CF9B8F1000F36D0E96907F5987000EB81000268954208D10460D9
:20284000A4B9E8697968012282409143796025E03869804508D3D8F81010A94214BFC8F8A3
:202860001440C8F8104001E001F06AF9B4B139698C4211D3C4F81880286928B1884226BF99
:202880002061846101F05CF9686938B13969884202D36061846101E001F052F901996D18AF
:2028A0008B4469684908490069604BF0010070604FEADB0446F80BB01F2C23D807F1280092
:2028C00000EBC4084546BBF1100F38BF01F038F9386820FA04F1CA0705D4012101FA04F464
:2028E00004433C6007E0D8F80800396988422CBF054601F025F9C8F80860EE60B560C6F83C
:202900000C8060E05FEA1B2008BF002123D0B0F5803F28BF1F211ED2A0F58072120C02F07A
:2029200008029040A0F58051090C01F004018840A0F580431B0CC2F10E0203F00203521ADE
:20294000D21A984002EBD032D01D2BFA00F101F0010101EB4201F161002307F59872736150
:2029600002EB810033617A6822FA01F3DC0707D4012303FA01F1114379600660B0611DE0F1
:2029800002681F291DBF4908C1F119010BFA01F1594600E002465068C008C000584516D00B
:2029A00002F11003C80F03EB8003490018680028F0D13869834204D31E60B261F660B660DD
:2029C00001E001F0BDF809F10800BDE8F68B396990688A4228BF8842F3D3C6609660B0603F
:2029E000F2600020B061EEE72DE9FE4F04468B46A5692E46904699463146FFF711FE0268E4
:202A0000416802EB010AAAF1270111F007000EBF0021C1F1080101F007010AEB0100A0F121
:202A20002F0706F110018F4238BF374607F11802002101920091A8F1280259462046FFF7FE
:202A400015FE07F1080010F0070F18BF01F078F81B20786007F1080104F5E07090E80C50E4
:202A600081E80C50C0F800B0C0F80480C0F80C90816007220198009900E0001D491C00F10A
:202A8000080353454260F8D30129D8BF01F058F8B74200F09580BF1B301D321DC159490845
:202AA0004900D15147F0010070604FEAD70BF751BBF11F0F21D804EBCB0000F12805A846A7
:202AC000102F38BF01F03CF8206820FA0BF1CA0705D4012101FA0BF10843206006E0A86879
:202AE000216988422CBF804601F02AF8AE60C8F80C60C6F80880F5606FE0380A08BF002170
:202B000023D0B0F5803F28BF1F211ED2A0F58072120C02F008029040A0F58051090C01F06A
:202B200004018840A0F580431B0CC2F10E0203F00203521AD21A984002EBD032D01D27FA61
:202B400000F101F0010101EB420104EB8102002302F59870F16173613361626822FA01F33A
:202B6000DB0707D4012303FA01F1114361600660B0611DE002681F291DBF4908C1F1190151
:202B800007FA01F1394600E002465068C008C000B84216D002F11003C80F03EB80034900E4
:202BA00018680028F0D12069834204D31E60B261F660B56011E003B0BDE8F04F00F0C0BF94
:202BC0000BE0216990688A4228BF8842F3D3C6609560B060F2600020B06103B0BDE8F08FC0
:202BE0002DE9F041704F05463868884608B9FFF724FDB96801EB08002F30491E20EA010157
:202C000088457DD205F5D876B06828B1326889188A4275D2884273D300F09CFF01001CBF9A
:202C20000C6811F1010F6BD03068201805F5D87230605368984238BF18467060A86960BB49
:202C4000286908B1814200D22961316174610020F0614FF0FF303A686A62286205F12802AD
:202C60000020D260926002F1080757611761801C10322028F5D34D48854208BFA4F128020E
:202C800028D055F8040CC00805EBC002A2F108000A19121A283A01461CE005F5E070024644
:202CA00000E092687AB3136857681F44B942F8D1137B1F0727D4AB691768BB4223D3D2F8AD
:202CC00004C06744BB421ED2A444C2F804C0E868A96922182846FFF7C9FC1FE08068C0B115
:202CE00003689342FAD1027B130712D4026801604368E418446043462846BDE8F041D0E4B5
:202D00000020BDE8F0812A69914238BF29610A19E5E7002322462846FFF766FEE86880453F
:202D2000EED2A0EB0800A969E86001EB0802AA6140F00100506048F00300486001F1080027
:202D4000BDE8F08130B4184B1A6882B94FF480525A604FF480344FF0FF32DA601A61042248
:202D6000124D9C605A61C5F8BC21114A1A6011F1400F17D28269AAB1C368283199420BD212
:202D800000F5E0710C68A24203D34D682C44A24202D389680029F5D1C16999423CBF4FF0C2
:202DA000FF32C26100F0C8BEF87200200C6400206859883C2DE9F84F00258946090AC9F18C
:202DC000000B08BF002323D0B1F5803F28BF1F231ED2A1F58072120C02F008029140A1F584
:202DE00080531B0C03F004039940A1F58044240CC2F10E0204F00204D21A121BA14002EBD8
:202E0000D132D11D29FA01F303F0010303EB4203074607F5987858F8230030B31F2B0FBFB9
:202E20004C465C08C4F1190409FA04F4AC46594600E064004268D208D200A2EB09028A4240
:202E400003D21100054600F06981426910304FEAD47B50F82B00002A1CBF824294460028B6
:202E6000E7D18B466046B0BBBDBB012202FA03F35B005842796803430B4000F04E8158426B
:202E800003405B1E180B00F01000C340590901F00801CB409A0802F00402D3405C0804F0E4
:202EA00002040818E3401018C3F3400620183044F3401B1858F823000DE008464168C9086B
:202EC000C900A1EB090159453CBF8B46054601690029F2D140690028F0D1002D00F01D813B
:202EE000B868A0EB0900834580F0178139698D42C0F011816868C008C00009EB0B01884279
:202F000018BF00F01DFE05EB0906B54280F00381EC68D5F818A0AC420CD0A86839698842C6
:202F200023D3C268AA4204BFA168A9421DD1C460A0601CE005F114010C6834B905F110014D
:202F40000C68A4B101E011460C6804F114021068002802BF04F1100210680028F3D1386984
:202F6000814202D300220A6001E000F0E9FDBAF1000F36D0E86908EB800001688D4209D1E0
:202F80000460200014D1E8697968012282409143796026E03869824508D3DAF81010A942DE
:202FA00014BFCAF81440CAF8104001E000F0C8FDBCB13869844212D3C4F818A0286930B1E1
:202FC0003969884226BF2061846100F0B9FD686938B13969884202D36061846101E000F022
:202FE000AFFDBBF1100F0CD2D94449F00300291D6860281D51F8092042F0010240F80920C8
:2030000088E049F0030068604BF0010070604FEADB0046F80BB01F281DD807EBC00101F14A
:203020002804396821FA00F2D307A34605D4012202FA00F00843386006E0A06839698842CE
:203040002CBF834600F07CFDA660CBF80C60C6F808B0F4605EE05FEA1B2008BF002123D0B7
:20306000B0F5803F28BF1F211ED2A0F58072120C02F008029040A0F58051090C01F00401F3
:203080008840A0F580431B0CC2F10E0203F00203521AD21A984002EBD032D01D2BFA00F10C
:2030A00001F0010101EB4201F16100227261326108EB81007A6822FA01F4E30707D40124C3
:2030C00004FA01F1114379600660B0611DE002681F291DBF4908C1F119010BFA01F159461E
:2030E00000E002465068C008C000584518D002F11003C80F03EB8003490018680028F0D1E3
:203100003869834204D31E60B261F660B66001E000F016FD14E100F013FD0EE18B46A2E654
:20312000396990688A4228BF8842F1D3C6609660B060F2600020B061ECE72DE9F84F064689
:203140008846716848420140491E080B00F01000C1404A0902F00802D1408B0803F0040395
:20316000D9404D0805F002051018E9401818C1F34004281806F5987A2044E14009185AF827
:2031800021104868C008C0000D46A0EB080909E001464868C008C000A0EB080048453CBF54
:2031A00081460D4608690028F2D149690029F0D130698542C0F0BF806968C90808EB090B05
:2031C000C900594518BF00F0BBFC05EB08008542009080F0B080EF68AC69AF420CD0A868D2
:2031E0003169884223D3C268AA4204BFB968A9421DD1C760B8601CE005F114010F6837B9F5
:2032000005F110010F68A7B101E011460F6807F114021068002802BF07F110021068002810
:20322000F3D13069814202D300220A6001E000F087FC002C31D0E8690AEB800001688D428E
:2032400008D107608FB9E8697168012282409143716022E03069844205D32169A94214BFB1
:203260006761276101E000F06BFCB7B13069874211D3BC61286930B13169884226BF3861A7
:20328000876100F05DFC686938B13169884202D37861876101E000F053FCB9F1100F0BD283
:2032A0004BF00300291D6860281D51F80B2042F0010240F80B203DE048F003012A1D696008
:2032C00049F0010042F80800009941F80990D6F808804FEAD80BBBF1200F28BF00F030FCB7
:2032E000B8F1000F22D006EBCB00776900F12804A246B8F1100F38BF00F022FC306820FA04
:203300000BF1CA0705D4012101FA0BF10843306006E0A068316988422CBF824600F010FC12
:20332000A760CAF80C70C7F808A0FC60C6F808900098706104E000F003FC0020BDE8F28FAD
:2033400005F10800BDE8F28F2DE9FE4F0546AFF30080F52DDFF8DC6780F004810B2D31BF20
:2033600010250B35ED08ED003068EC08E04010F0030F46D0C04300F00100041906F12800F2
:2033800000EBC408E700D8F808506868C008C000B84218BF00F0D4FBD5F80890454508BFC9
:2033A00000F0CEFB4D4508BF00F0CAFB6868C008C000B84218BF00F0C3FBC84507D13068F2
:2033C000012101FA04F420EA040434600DE03069814508D3D9F80C10A94204D1C8F8089006
:2033E000C9F80C8001E000F0ABFB47F00300291D6860281DCA5942F00102C25105F108040F
:20340000F8E0B168A94280F0BE80002800F0A1804FF0010808FA04F1490000FA04F44842E5
:2034200001430C4060420440641E200B00F01000C440610901F00801CC40A20802F0040253
:20344000D440630803F002030818DC401018C4F3400718183818FC40241806F1280000EB91
:20346000C40AE700DAF80890D9F80400C008C000B84218BF00F064FBD9F808B0D14508BF4A
:2034800000F05EFBD94508BF00F05AFBD9F80400C008C000B84218BF00F052FBDA4506D158
:2034A000306808FA04F420EA040434600DE031698B4508D3DBF80C00484504D1CAF808B0E7
:2034C000CBF80CA001E000F03BFB7F1B45F0030009F10402C9F8040047F00101515109EB10
:2034E00005020192D751B4684FEAD40ABAF1200F28BF00F025FB34B3CDF800A006F128009B
:20350000756900EBCA0AD346102C38BF00F018FB3168009821FA00F2D30704D408FA00F0DD
:203520000843306007E0DAF80800316988422CBF834600F005FBCAF80850CBF80C50C5F8F1
:2035400008B0C5F80CA0B76009F108040198706150E07068C0B329463046FFF7EEFD04007E
:2035600011D047E015F1400F28BF4FF0FF350AD20B35ED087068ED0028B129463046FFF70A
:2035800019FC040036D1B068A8421DD3411B726910290AD350197061B16041F001034360A9
:2035A000415045F0030555600BE00021B1607161131D40F003015160111D1C5844F00104A9
:2035C0000C5002F1080415E0F06885420DD2401BB169F0604A19B26140F00100506045F04C
:2035E00003054D6001F1080404E029463046FFF7F7FA0446AFF300802046FFF7EEBA0028D0
:2036000000D170472DE9F047A0F10805AFF30080DFF8206531698D42C0F05982686800F005
:203620000302012A00F05382C2084FEAC209C20705EB090839D42C6810F0030F00F049828F
:20364000604205448D42A144C0F041827069854200F0C680E408202C5ED2D5F80CA0AF688A
:20366000554508BF00F06CFABD4208BF00F068FA6868C008C000B0EBC40F18BF00F060FA94
:2036800006F1280000EBC400874205D031698F423FD3FA68AA423CD1BA452CD13068012130
:2036A00001FA04F420EA04043460454580F00F82D8F80440E00740F10A82A10700F16881AC
:2036C000B069804540F09F80F168B5618944C6F80C9049F00100686071698D4202D1002089
:2036E0007061B060F069484580F0F38100213046FFF728FBEDE1824506D03069824508D3C9
:20370000DAF80810A94204D1C7F80CA0CAF80870CBE700F015FAC8E7EC68AF69AC420BD0C5
:20372000A868884222D3C168A94204BFA268AA421CD1C460A0601BE005F11402146834B96C
:2037400005F1100214689CB101E01A46146804F114031868002802BF04F1100318680028B6
:20376000F3D18A4202D30021116001E000F0E8F9002F9AD0E96906F5987000EB81000268DC
:20378000954209D10460200011D1E8697168012282409143716088E73069874205D3396913
:2037A000A94214BF7C613C6101E000F0C9F9002C3FF47BAF31698C42ABD3A761286928B15D
:2037C000884226BF2061846100F0BAF9686900283FF46BAF316988429BD36061846164E728
:2037E00098F8040000F0030003287FF45EAFC6F8089049F00101D8F8040040084000C8F8EA
:20380000040069600AE0706980450AD1B16875618944C6F8089049F00100686045F809908E
:2038200057E1E408E400A144E408202C3AD2D8F80CA0D8F80870D04508BF00F081F9B84550
:2038400008BF00F07DF9D8F80400C008C000B0EBC40F18BF00F074F906F1280000EBC4006F
:20386000874207D031698F42C0F08580FA68424540F08180BA4507D13068012101FA04F4EA
:2038800020EA0404346078E0824506D03069824571D3DAF8081041456DD1C7F80CA0CAF80E
:2038A00008706AE0D8F80C40D8F8187044450DD0D8F808003169884223D3C268424504BFC6
:2038C000A16841451DD1C460A0601CE008F114010C6834B908F110010C68A4B101E01146D1
:2038E0000C6804F114021068002802BF04F1100210680028F3D13069814202D300220A60C0
:2039000001E000F01DF9002F37D0D8F81C1006F5987000EB8100026890450AD10460200081
:2039200012D1D8F81C007168012282409143716023E03069874205D33969414514BF7C6140
:203940003C6101E000F0FCF8BCB131698C4212D3A761D8F8100028B1884226BF2061846175
:2039600000F0EEF8D8F8140038B13169884202D36061846101E000F0E3F849F00100686017
:2039800045F8099071698D420BD1C6F80890A0E064086400C8F8044049F00100686045F8E3
:2039A00009904FEAD907202F22D206F1280000EBC704A046B9F1100F38BF00F0C1F8306856
:2039C00020FA07F1CA0705D4012101FA07F70743376006E0A068316988422CBF804600F03C
:2039E000AFF8A560C8F80C50C5F80880EC6070E05FEA192008BF002123D0B0F5803F28BF76
:203A00001F211ED2A0F58072120C02F008029040A0F58051090C01F004018840A0F5804374
:203A20001B0CC2F10E0203F00203521AD21A984002EBD032D01D29FA00F101F0010101EBA5
:203A4000420106F59872002302EB8100E9616B612B61726822FA01F3DC0707D4012303FA22
:203A600001F1114371600560A8611DE002681F291DBF4908C1F1190109FA01F1494600E0B5
:203A800002465068C008C000484526D002F11003C80F03EB8003490018680028F0D1306982
:203AA000834204D31D60AA61ED60AD6001E000F047F8306A401E30620BD1D6F8C80100E09B
:203AC00080680028FCD14FF0FF30306201E000F037F8AFF30080BDE8F087316990688A426D
:203AE00028BF8842E3D3C5609560A860EA600020A861DEE738B5002558B141EA0002120C9F
:203B000001FB00F512041EBFB5FBF0F088424FF0FF352846FFF718FC04001CBF14F8040C81
:203B200010F0030F03D02946204600F029F8204632BD00000C64002030BC00207047000012
:203B4000012000F021B800207047002070470200002070470749086808B100207047064856
:203B6000C008C00008600549C908C900091A0160704700BF9C740020B7C40020B0E40020F4
:203B8000002200F00FB8010280B500F03BF8024A11001820ABBEFBE72600020062F30F2263
:203BA00062F31F42401810F0030308D0C91A1FD3DB0748BF00F8012D28BF20F8022D1300F4
:203BC00030B414461546103928BF20E93C00FAD8490728BF20E90C0048BF40F8042D8900C0
:203BE00028BF20F8022D48BF00F8012D30BC7047C91818BF00F8012DCB0728BF00F8012D0A
:203C00007047010280B500F054F802000023DB431068984204D011000220ABBE00201060E4
:203C20005068984204D0111D0220ABBE0020506001BD0000F0B583B0040000F03AF8A10038
:203C400047183D680026F643B54216D100F01AF83D68B5420FD100BF09A00090002C01D1AF
:203C6000002000E0042001900320029069460120ABBE05003D6000F014F8280003B0F0BD7B
:203C80003A7474000C480121BFF35F8FD0E84F3FC0E8421F002AF9D1BFF35F8F002BF3D11A
:203CA00070470548BFF35F8F00210170BFF35F8F7047024870470000A9740020F003002026
:203CC00070B504000025200000F05FF806003000C0B2002803D1200000F074F906003000D8
:203CE000C0B2002808D1012084F834002168DFF86C0B01F067F807E0002084F83400216819
:203D0000DFF80C0C01F05EF83000C0B270BD70B500250026DFF8FC4BDFF8443BDFF8442B74
:203D20007421200001F031F8DFF83C2B7521200001F02BF80024002C13D1DFF8DC0B742125
:203D400001FB04F20244546001FB04F10844FFF7B7FF05002800C0B2002800D02E00641C49
:203D6000E9E73000C0B270BD10B5040000F00BF8844206D2DFF8A01B7420444301EB0400AD
:203D800000E0002010BD012070472DE9FC4105000024002D0CD1DFF8840B0090DFF8803B70
:203DA000DFF8802BFC21DFF86C0B00F0EEFFFEE7280000F0D6FF06003000C0B2002802D0C5
:203DC0003000C0B2FCE0686A00280DD1DFF84C0B0090DFF8543BDFF84C2B40F20911DFF8F8
:203DE000340B00F0D2FFFEE72869002808D0A88A002805D0A869002802D0287F002872D101
:203E0000280000F0E9FC06003000C0B2002802D03000C0B2D4E0280001F00CF800282BD06D
:203E20000020A860286D2861B5F84800012802D10220A88201E00120A882686DA86195F868
:203E40005800287701200700042F4CD205EBC700406D00280ED005EBC700406DA969884248
:203E600008D205EBC700406DA86105EBC70090F8580028777F1CE7E700200700112F32D2F1
:203E8000DFF85C0B182101FB07F2024412792B7B9A4226D101FB07F2024452796B7B9A42A4
:203EA0001FD101FB07F202449279AB7B9A4218D101FB07F28258AA6001FB07F202449268D3
:203EC0002A6101FB07F202449289AA8201FB07F202441269AA6101FB07F10844007D2877B8
:203EE00001E07F1CCAE72869002808D0A88A002805D0A869002802D0287F002805D1DFF84E
:203F0000340B00F05FFF01205AE000245FF00008B8F1100F0ED2DFF8200B00EBC80109795E
:203F20002A7B914203D150F83800040002E018F10108EDE7002C0AD0A868002807D02B6940
:203F4000AA682100DFF8F40A00F03CFF0DE0002C06D02A692100DFF8580B00F033FF04E04B
:203F60002969DFF8500B00F02DFF280000F0DBFB04002000C0B2002802D02000C0B21FE052
:203F8000287D40070CD500220121280000F0D4FD04002000C0B2002802D02000C0B20FE016
:203FA0002869DFF8841B884205D30121280000F0BDFC040002E0002085F835002000C0B21B
:203FC000BDE8F68138B504000025002C0DD1DFF8E80A0090DFF84839DFF848294FF4BE713A
:203FE000DFF8300900F0D1FEFEE72800C0B232BD2DE9FE4F04000F0090461D005FF0000BC1
:2040000014F12009002C0DD1DFF8200B0090DFF81039DFF810294FF4C871DFF8F80800F063
:20402000B4FEFEE7002D0DD1DFF8000B0090DFF8003BDFF8F02840F29111DFF8D80800F0F0
:20404000A4FEFEE794F8340000280DD1DFF8DC0A0090DFF8E03ADFF8CC2840F29311DFF85D
:20406000B40800F092FEFEE7206918EB0701884205D2DFF8580B00F0A5FE052034E0D9F813
:204080000800002803D04846D9F808108847200000F0D6FC82465046C0B200281AD10320EF
:2040A0008DF804000DF105023900200000F006FD94F83500002801D0052600E00426CDF872
:2040C00000802B003200D2B201A94846D9F804C0E0478246D9F80C00002803D04846D9F88C
:2040E0000C1088475046C0B2BDE8FE8FFEB50400002714F12005002C0DD1DFF8D40A009044
:20410000DFF81C38DFF81C2840F2C111DFF8040800F03BFEFEE794F8340000280DD1DFF8C7
:20412000B00A0090DFF80C3ADFF8F82740F2C311DFF8E00700F029FEFEE7A868002802D058
:204140002800A96888470121200000F08FFB06003000C0B200282ED1C7208DF80400207DBF
:20416000000712D594208DF8050080208DF806009A208DF80700002000900023042201A9FF
:2041800028006F68B847060008E0002000900023012201A928006F68B84706003000C0B2ED
:2041A000002804D0DFF82C0A00F00CFE03E0200000F046FC06000021200000F057FBE868EE
:2041C000002802D02800E96888473000C0B2FEBD2DE9F84F84B005000E0014005FF0000831
:2041E00015F12009002D0DD1DFF8EC090090DFF83037DFF8302740F2FD11DFF8180700F097
:20420000C4FDFEE795F8340000280DD1DFF8C8090090DFF82039DFF80C2740F2FF11DFF8A6
:20422000F40600F0B2FDFEE72869A119884205D2DFF8980900F0C6FD052093E0002E06D14C
:204240002869844203D12800FFF750FF8AE0D9F80800002803D04846D9F808108847002C16
:2042600072D095F84400002810D022003100280001F02FF9824605EBCA0090F858008DF8A8
:20428000040005EBCA00406D070004E0287F8DF80400A86907000121280000F0E7FA80469F
:2042A0004046C0B200284FD19DF804008DF808000DF109023100280000F000FC95F8350088
:2042C000002802D05FF0050B01E05FF0040B0020009000235A46D2B202A94846D9F804C081
:2042E000E04780464046C0B2002804D0DFF8EC0800F068FD28E0280000F0A2FB80464046B4
:20430000C0B2002820D1B6FBF7F007FB1060002815D0B81BB6FBF7F107FB0100A0420DD2CB
:20432000E41B34192000B6FBF7F407FB1404B819801BB6FBF7F607FB060690E704E0A742FF
:2043400002D2E41BBE198AE70021280000F08EFAD9F80C00002803D04846D9F80C1088475F
:204360004046C0B205B0BDE8F08F2DE9F14F86B00D0014001E00109F5FF0000806982030AD
:204380000290069800280DD1DFF854080090DFF89035DFF8902540F26221DFF8780500F003
:2043A000F4FCFEE7300080B2012812D0300080B2B0F5807F0DD0DFF828080090DFF824380E
:2043C000DFF860254FF41971DFF8480500F0DDFCFEE7069890F8340000280DD1DFF80008A3
:2043E0000090DFF85037DFF83C2540F26621DFF8240500F0CAFCFEE70698006961198842F8
:2044000005D2DFF8C80700F0DDFC052091E002988068002803D00298029989688847002C22
:2044200079D00121069800F021FA80464046C0B2002870D1DFF8B097022089F8000019F176
:2044400001022900069800F039FB069890F83500002802D05FF0050A01E05FF0040A30004D
:2044600080B2B5FBF0F100FB1150002817D0300080B2310089B2491BB5FBF0F200FB02103D
:20448000A0420AD2300080B2310089B2491BB5FBF0F200FB021001900AE0019408E0300065
:2044A00080B2A04203D2300080B2019000E001940198241A01984519019804900397504680
:2044C000C0B209EB000B049A0399584601F092F80020009000235246D2B201988218494667
:2044E0000298DDF808C0DCF804C0E04780464046C0B2002804D0DFF8F40600F063FC0AE002
:20450000069800F09DFA80464046C0B2002802D10198074483E70021069800F0A7F9029886
:20452000C068002803D002980299C96888474046C0B207B0BDE8F08F2DE9FE4F040088461B
:2045400091461F005FF0000B14F120050126002C0DD1DFF89C060090DFF8C433DFF8C4231B
:2045600040F2B921DFF8AC0300F00FFCFEE794F8340000280DD1DFF878060090DFF8B4355E
:20458000DFF8A02340F2BA21DFF8880300F0FDFBFEE7206919EB0801884205D2DFF82C0605
:2045A00000F010FC052098E0A868002802D02800A96888475FEAC87011D53800471C0090BE
:2045C0000123012241462000FFF7CFFE834618F101085846C0B200286FD1B9F10109012101
:2045E000200000F043F983465846C0B2002864D1AD208DF80400B9F1020F4AD33000C0B269
:2046000000281CD00DF105024146200000F056FA94F83500002802D05FF0050A01E05FF051
:20462000040A387801A95246D2B28854787801A95246D2B2114448700020060006E001202A
:20464000824601A839784170797881700020009000235246D2B2921C01A92800D5F804C0A5
:20466000E04783465846C0B2002804D0DFF87C0500F0A8FB21E0200000F0E2F98346584600
:20468000C0B2002819D1B9F1020918F10208BF1CB1E70021200000F0E9F883465846C0B270
:2046A00000280AD1B9F1010F07D100970123012241462000FFF759FE83465846C0B2002892
:2046C00003D00021200000F0D1F8E868002802D02800E96888475846C0B2BDE8FE8F2DE923
:2046E000FC4104000D0016001F005FF00008207DC00709D500974FF4807332002900200056
:20470000FFF733FE80460AE0207D400707D53B00320029002000FFF70FFF8046FFE7404616
:20472000C0B2BDE8F6812DE9FC410400002614F12005002C0AD1DFF8BC040090784B794A90
:2047400040F23531734800F020FBFEE766208DF80400002000900023012201A928006F6868
:20476000B84707003800C0B2002816D1200000F067F9060099208DF80500002000900023EE
:2047800001220DF105012800D5F804C0E04780464046C0B200280BD106E0DFF85C0400F043
:2047A00011FB3800C0B215E0200000F049F980464046C0B2002807D1DFF840244FF45271FD
:2047C000544800F0E2FA03E0DFF82C0400F0FAFA4046C0B2BDE8F681F8B584B00400002585
:2047E00014F12006002C0AD1DFF8140400904C4B4C4A40F25531474800F0C7FAFEE79F203F
:204800008DF808000320009003AB012202A930007768B84707003800C0B2002815D19DF87A
:204820000C0020739DF80D0060739DF80E00A073A07B0190607B0090237BDFF8C82340F205
:204840005E31344800F0A1FA03E0DFF8BC0300F0B9FA3800C0B205B0F0BD00001849010830
:20486000005A0108444201083C400108FEB504000D000026002C0AD1DFF890030090284B63
:20488000284A40F27231234800F07FFAFEE72800C0B2002803D006208DF8050002E00420CD
:2048A0008DF8050000200090002301220DF1050114F12000676AB84707003800C0B20028A6
:2048C00004D101A9200000F08DF807003800C0B200281AD12800C0B2002809D09DF80400CC
:2048E000800705D4DFF8280300F06CFA02200EE02800C0B2002808D19DF80400800704D55C
:20490000C44800F05FFA022001E03800C0B2FEBD18470108683B010870000020E4540108F5
:20492000085A0108C84C0108F4540108FEB504000D000027002C09D1B7480090B74BB84A1A
:2049400040F29B31B74800F020FAFEE701212000FFF78CFF06003000C0B2002802D03000D6
:20496000C0B23BE02800C0B2002803D0B7208DF8040002E0E9208DF804000020009000236E
:20498000012201A914F12000676AB84707003800C0B2002816D12800C0B2002801D00120E1
:2049A00000E0002084F835002800C0B2002801D09D4B00E09D4B9E4A40F2AD31994800F03A
:2049C000E4F909E02800C0B2002801D0964900E09649984800F0F6F93800C0B2FEBD0000BC
:2049E000443001087CB505000C0005208DF80400002D09D190480090884B894A4FF4707111
:204A0000884800F0C2F9FEE7002C09D18A4800908A4B834A40F2C131824800F0B6F9FEE7BA
:204A2000012000902300012201A915F120006E6AB04776BD484401089837010844470108AC
:204A4000FEB505000026EC6B002D09D17C480090724B734A40F2CB31724800F096F9FEE700
:204A600001A92800FFF7BEFF06003000C0B2002803D19DF80400C0070BD5AF6B002C02D1B4
:204A80000420060005E03800002800D0B847641EE6E73000C0B2002803D19DF80400C0078B
:204AA00002D5684800F08EF93000C0B2FEBD00007047010840490108045501087CB50400B2
:204AC0000E001500002C09D15F480090534B544A4FF47871534800F058F9FEE7002D09D146
:204AE00059480090594B4E4A40F2E1314D4800F04CF9FEE794F83500002801D0042000E098
:204B0000032000210A000300D2B2DBB29A420AD2421A521ED2B2D2003300D3400A00D2B285
:204B2000AB54491CEEE773BD01000001DC570108105A0108145501082DE9FE4304000D0081
:204B400016005FF0000914F12007002C09D140480090324B324A4FF47E71324800F015F9FA
:204B6000FEE72800C0B200280DD050208DF80400002000900023012201A93800D7F804C04D
:204B8000E047804604E001212000FFF76FFE80464046C0B200280ED101208DF804008DF8AB
:204BA0000560002000900023022201A93800D7F804C0E04780464046C0B2002802D02548D8
:204BC00000F000F94046C0B2BDE8FE83684901082455010860460108E85701089C470108AF
:204BE000B45001089049010844680020C8470108F4570108185A01080C4B0108384F010823
:204C000034550108CC3B0108F447010818530108304B0108544B0108CC500108085A01087E
:204C2000C84C0108683B0108205A0108285A0108784B0108204801082C530108305A010845
:204C400000580108B8490108E4500108385A010840530108E049010880B500224FF48051D8
:204C6000634800F0D5FE01BD80B501224FF480515F4800F0CDFE01BD01B54FF6FF730122EC
:204C800069465C4800F058FF01BD80B5FF208DF800004FF6FF7301226946564801F027F8AC
:204CA0009DF8000002BD38B504000D00FFF7D4FF2800451E80B2002804D02078FFF7DCFFB7
:204CC000641CF5E731BD38B504000D00FFF7C4FF2800451E80B2002804D0FFF7D6FF2070BF
:204CE000641CF5E731BD704770477047C8210800411E0028FBD170472DE9F84380460F0024
:204D000016001D00089C5FF00009002E0AD0002F08D139480090394B394AD021394800F0DA
:204D200034F8FEE7002C0AD0002D08D132480090354B334AD421334800F027F8FEE7FFF7F5
:204D40008BFF310089B23800FFF7ADFF210089B22800FFF7B8FFFFF787FF4846C0B2BDE831
:204D6000F28338B504000025FFF7BDFF274860622748A0622748E062274820632748A0633F
:204D80002748E0632800C0B232BD08B42DE9F84104000D00160007AF2A002100214801F04B
:204DA000D9FADFF884803B0032004FF48071404601F0E4FA41461D4801F0CCFABDE8F10115
:204DC0005DF808FB0EB478B5040005AD184801F0C1FA154E2B0022004FF48071300001F0C5
:204DE000CDFA3100114801F0B5FA71BC5DF810FB000C01403C6F0020445501080C5801080E
:204E0000E84C0108903A010818580108F94C0008E94C0008EB4C000828740020ED4C000843
:204E2000C0270900545501084C690020405A0108485A01081FB50400002C0CD1DFF80407EA
:204E40000090DFF80437DFF804275121DFF80007FFF79BFFFEE7200000F015F800280AD0CA
:204E600001A9200000F071F8002804D001A9200000F0DDF805E02168DFF8D806FFF7A2FFCA
:204E8000002004B010BD7FB5040014F14405002602A800210022C0E90012002C0CD1DFF83D
:204EA000B8060090DFF8A036DFF8A0266D21DFF8A006FFF76AFFFEE700202870082302AA7C
:204EC0003100200000F0B3FA002805D0DFF88C06FFF778FF002036E09DF8080053280AD1E8
:204EE00002A84178462906D18078442803D19DF80B00502808D0DFF868267A21DFF85006B4
:204F0000FFF743FF00201EE09DF80C00A8709DF80D0068706878022807DBAA786978DFF842
:204F20004406FFF74FFF00200DE09DF80E000190A87800906B78DFF830268421DFF8100650
:204F4000FFF723FF012004B070BD70B586B004000D00082604A800210022C0E90012002CC7
:204F60000CD1DFF808060090DFF8DC35DFF8DC259621DFF8DC05FFF708FFFEE7002D0CD1C4
:204F8000DFF8E8050090DFF8E835DFF8C0259721DFF8BC05FFF7F9FEFEE7082304AA3100E1
:204FA000200000F044FA002805D0DFF8C805FFF709FF002039E09DF81000287004A8417829
:204FC00069708178A970C178E97000799DF8151050EA01209DF8161050EA01406860A878A8
:204FE000022807DB6A78A978DFF88C05FFF7EAFE00201AE0E878092806DAE978DFF87C0518
:20500000FFF7E0FE002010E068680390E878029068780190A87800902B78DFF86425AF2163
:20502000DFF82C05FFF7B1FE012006B070BD2DE9F84F8EB004000D0014F144066868049060
:2050400005A82421FDF7A6FA002C0CD1DFF834050090DFF8F434DFF8F424C221DFF8F00485
:20506000FFF793FEFEE7002D0CD1DFF818050090DFF8FC34DFF8D424C321DFF8D404FFF7D7
:2050800084FEFEE7242305AA0499200000F0CFF9002805D0DFF8F004FFF794FE0020C3E12A
:2050A000DFF8AC84DFF8E424CB214046FFF76DFEDFF8DC24CC214046FFF767FE5FF0000B38
:2050C0005846C0B2092826DA05A85946C9B210F82100039005A85946C9B200EB8100407821
:2050E000029005A85946C9B200EB81008078019005A85946C9B200EB8100C07800905B46C6
:20510000DBB25B1CDFF88C24CF214046FFF73DFE1BF1010BD4E70DF1140999F80100F0717C
:205120009DF8140010F00300C0B2012802D003280AD012E00120B071F379DFF85C24D72162
:205140004046FFF722FE0EE00020B071DFF84C24DB214046FFF719FE05E0DFF84404FFF7B4
:2051600031FE002060E19DF81400C0F38000C0B2002802D0012809D011E00120B080DFF83C
:205180002424E6214046FFF700FE08E04FF48070B080DFF81424EA214046FFF7F6FD9DF8DD
:2051A0001400C0F3C000C0B2002802D0012809D02DE001203072DFF8F423F5214046FFF7AA
:2051C000E4FD24E000203072DFF8E423FA214046FFF7DBFD9DF81400C0F30010C0B20028D5
:2051E00002D001280AD012E050207072DFF8C4234FF480714046FFF7C8FD08E00620707273
:20520000DFF8B42340F205114046FFF7BEFD99F80200C0F34100C0B2002803D0022819D05A
:205220000CD323E00120B0720020F072DFF88C2340F20F114046FFF7A8FD21E00120B0728A
:205240000120F072DFF878234FF48A714046FFF79CFD15E00020B0720120F072DFF86423EE
:2052600040F219114046FFF790FD09E00020B0720020F072DFF85003FFF7A4FD0020D3E088
:2052800099F8070099F806703F0457EA00679DF8190057EA002799F80400074399F80700F7
:2052A000C0B2C009002802D0012805D014E03800C008401CF0600FE027F00047242F06D3A2
:2052C0000020F060C148FFF77DFD0020ACE001213800C01E8140F160F368BD4A40F2311119
:2052E0004046FFF752FD5FF000095FF0000A4846C0B2042837DA05A84946C9B200EB410012
:20530000007F00282CD0012105A84A46D2B200EB420090F91C0081405046C0B206EBC000BB
:20532000016105A84946C9B200EB4100407F5146C9B206EBC10108755046C0B206EBC0006E
:20534000007D00905046C0B206EBC00003699B0AA04A4FF49C714046FFF717FD1AF1010A96
:2053600019F10109C3E7002200211000C0B2042857DA1000C0B206EBC000006900284ED06B
:20538000501C01000800C0B2042848DA0800C0B206EBC000006900283FD00800C0B206EBA2
:2053A000C00000691300DBB206EBC3031B69984233D21000C0B206EBC00000691300DBB2CE
:2053C00006EBC3031B7D8C465FFA8CFC06EBCC0CDCF810C096465FFA8EFE06EBCE0ECEF80A
:2053E00010C08C465FFA8CFC06EBCC0C9CF814C096465FFA8EFE06EBCE0E8EF814C08C463F
:205400005FFA8CFC06EBCC0CCCF810008C465FFA8CFC06EBCC0C8CF81430491CB2E7521C5E
:20542000A3E70120307001200FB0BDE8F08FFEB504000E0015001F0001A86749D1E90023EE
:20544000C0E900233000000C8DF805003000000A8DF8060030008DF80700002C09D15F488C
:205460000090394B394A4FF4AD713948FFF78DFCFEE7B6F1807F09D358480090584B334A7D
:2054800040F25B113248FFF780FCFEE7002D09D152480090534B2D4A4FF4AE712C48FFF78B
:2054A00074FCFEE7606A002809D14C4800904E4B264A40F25D112648FFF767FCFEE70097BB
:2054C0002B00052201A914F12000D4F824C0E047FEBDF8B504000D001600002794F844004E
:2054E000002809D141480090414B184A4FF4B7711748FFF74AFCFEE7606DB5FBF0F100FB5F
:205500001150002801D000201AE0032104EBC100406D00280FD004EBC100406D86420AD38D
:2055200004EBC100406DB5FBF0F200FB1250002801D10F0003E0002901D0491EE6E73800CD
:20554000F2BD000064550108505A0108084D0108FC3A0108883C010854530108284D01088F
:20556000603F010880440108C84101086853010874550108B84401083C3D0108AC3F010893
:20558000803601087C530108F0440108084A0108544F01089C4B010880400108FC4501082D
:2055A00028450108484D01084C48010890460108C4400108C43801083C390108FC50010876
:2055C000704F010814510108C04B0108F43F01082C51010880420108585A01088455010857
:2055E0009455010824580108A4550108684D01084451010862B38B0708D0521E11F8013BA2
:2056000000F8013B00F024808B07F6D1830740F0208000BF103A07D330B4B1E83810103A1D
:20562000A0E83810F9D230BC530724BFB1E80810A0E8081044BF51F8043B40F8043BD2077A
:2056400024BF31F8022B20F8022B44BF0B7803707047121F17D35B0009D151F8043B20F82C
:20566000023B1B0C121F20F8023BF6D20BE051F8043B00F8013B1B0A20F8023B1B0C121FFF
:2056800000F8013BF3D238BF121D521E24BF11F8013B00F8013BF8D8704700002DE9F84743
:2056A00003005FF0000E5FF00008086830FA0EF0002800F00D81012010FA0EF00400086858
:2056C00020400500A54240F000814868002831D0012820D0022825D003283CD011281DD05F
:2056E000122823D0DFF844C3604523D0DFF840C360451FD0DFF83CC360451BD0DFF838C361
:20570000604517D0DFF834C3604513D0DFF830C360450FD022E0C86880461FE0C868001D15
:2057200080461BE0C8680830804617E0C8680C30804613E08868002802D10420804609E0A0
:205740008868012803D1082080461C6102E0082080465C6102E000208046FFE7B5F5807F0D
:2057600001D21E0000E01E1DB5F5807F02D25FEA8E0702E0BEF10807BF005FF00F09D6F82E
:2057800000C019FA07F03CEA000C18FA07F050EA0C0CC6F800C04868C00040F19680DFF8A6
:2057A000A402D0F800C05CF0010CC0F800C0006810F0010000900098DFF88CC270468008F6
:2057C0005CF820A01EF00300C0B2800019FA00F93AEA090A9D48834202D15FF000091FE09B
:2057E0009B48834202D15FF0010919E09948834202D15FF0020913E09748834202D15FF050
:2058000003090DE09548834202D15FF0040907E09348834202D15FF0050901E05FF00609C8
:205820001EF00300C0B2800019FA00F9524659EA0202704680084CF820204868C00307D569
:205840008848D0F800C055EA0C0CC0F800C006E08448D0F800C03CEA050CC0F800C0486888
:20586000800307D58048D0F800C055EA0C0CC0F800C006E07C48D0F800C03CEA050CC0F889
:2058800000C04868C00207D57848D0F800C055EA0C0CC0F800C006E07448D0F800C03CEA93
:2058A000050CC0F800C04868800207D57048D0F800C055EA0C0CC0F800C006E06C48D0F8E0
:2058C00000C03CEA050CC0F800C01EF1010EECE6BDE8F1872DE9F041030000270800F8409B
:2058E000002800F093800120B84008400200002A00F08A80DFF850E1380080085EF82000B8
:205900005FF00F0C17F003085FFA88F85FEA88081CFA08F818EA000004004C48834202D111
:205920005FF000081FE04A48834202D15FF0010819E04848834202D15FF0020813E0464894
:20594000834202D15FF003080DE04448834202D15FF0040807E04248834202D15FF0050884
:2059600001E05FF0060817F00300C0B2800018FA00F844452CD117F00300C0B280001CFA4B
:2059800000F00400380080085EF82000A043B8465FEA98084EF828003248D0F800E03EEA5B
:2059A000020EC0F800E03048D0F800E03EEA020EC0F800E02D48D0F800E03EEA020EC0F842
:2059C00000E02B48D0F800E03EEA020EC0F800E0B2F5807F01D21D0000E01D1DB2F5807FA6
:2059E00001D2BE0002E0B7F10806B60028681CFA06FC30EA0C0C0420B04050EA0C0CC5F8CB
:205A000000C0D8689043D8607F1C67E7BDE8F0811300DBB2002B03D00B009BB2036103E03F
:205A20000B009BB21B040361704700000000111000001210000021100000221000003110ED
:205A400000003210181002400800014000080140000C0140001001400014014000180140BC
:205A6000001C01400004014004040140080401400C04014010B50400002C01D101205AE07B
:205A8000606A002806D16068B0F5827F06D00020E06103E000202061002060610020A06211
:205AA00094F85100002805D1002084F85000200000F0A5FC022084F851002068006830F06F
:205AC000400021680860606810F48270A16811F404410843E16811F400610843217C11F0A1
:205AE00002010843217D11F001010843A16911F400710843217F11F03801084394F82010C0
:205B000011F080010843A16A11F40051084321680860A069000C10F0040021684860206849
:205B2000C06930F400602168C86100206065012084F85100002010BD2DE9FC4706000D00DA
:205B400017001C005FF0000896F85000012801D10220CAE0012086F85000FCF70BFC814666
:205B6000BA4696F85100012802D002208046B4E0002D03D0380080B2002802D10120804683
:205B8000ABE0032086F85100002070653563B786F7860020B0630020B0870020F087002000
:205BA000706400203064B068B0F5004F0BD13068006830F04000316808603068006850F4D0
:205BC00080403168086030680068400605D43068006850F0400031680860F068B0F5006FF8
:205BE00030D17068002803D0504680B2012809D1306B00883168C860306B801C3063F08EDA
:205C0000401EF086F08E00284DD03068806880070AD5306B00883168C860306B801C306359
:205C2000F08E401EF086EDE7FCF7A4FBB0EB0900A04202D314F1010F01D1002CE2D1032068
:205C400080464AE07068002803D0504680B2012809D1306B007831680873306B401C306305
:205C6000F08E401EF086F08E00281CD03068806880070AD5306B007831680873306B401C3C
:205C80003063F08E401EF086EDE7FCF773FBB0EB0900A04202D314F1010F01D1002CE2D1C9
:205CA0000320804619E04A462100300000F03BFB002801D020207065B068002808D10020B4
:205CC00000903068C06800903068806800900098706D002801D001208046012086F851008F
:205CE000002086F850004046C0B2BDE8F6872DE9F84306000D0017001C005FF000087068D6
:205D0000B0F5827F0ED1B06800280BD1042086F8510000943B009BB22A002900300000F060
:205D2000A4F8A0E096F85000012801D102209AE0012086F85000FCF71DFB814696F8510032
:205D4000012802D00220804685E0002D03D0380080B2002802D1012080467CE0042086F8B1
:205D6000510000207065B563B787F787002030630020B0860020F0860020306400207064C2
:205D8000B068B0F5004F0BD13068006830F04000316808603068006830F4804031680860D5
:205DA00030680068400605D43068006850F0400031680860F06800281FD1F08F00283CD020
:205DC00030688068C0070AD53068007BB16B0870B06B401CB063F08F401EF087EDE7FCF751
:205DE000C9FAB0EB0900A04202D314F1010F01D1002CE2D1032080462DE0F08F00281CD036
:205E000030688068C0070AD53068C068B16B0880B06B801CB063F08F401EF087EDE7FCF713
:205E2000A9FAB0EB0900A04202D314F1010F01D1002CE2D1032080460DE04A4621003000E7
:205E400000F033FA002801D020207065706D002801D001208046012086F85100002086F8CC
:205E600050004046C0B2BDE8F2832DE9FE4F07000D00160098460C9C5FF001095FF0000AFB
:205E800097F85000012801D102200AE1012087F85000FCF76FFA834697F851008DF80000A1
:205EA00078680290ADF802809DF8000001280DD00298B0F5827F06D1B868002803D19DF8E6
:205EC0000000042802D002208246E2E0002D05D0002E03D0404680B2002802D10120824679
:205EE000D7E097F85100042802D0052087F8510000207865BE63A7F83E80A7F83C803D63A2
:205F0000A7F83680A7F83480002038640020786438680068400605D43868006850F0400072
:205F200039680860F868B0F5006F4CD17868002803D0BDF80200012809D1386B0088396866
:205F4000C860386B801C3863F88E401EF886F88E002803D1F88F002800F083803868806831
:205F6000800711D5F88E00280ED0B9F1010F0BD1386B00883968C860386B801C3863F88E3E
:205F8000401EF8860020814638688068C0070ED5F88F00280BD03868C068B96B0880B86BEB
:205FA000801CB863F88F401EF88701208146FCF7E1F9B0EB0B00A042C9D314F1010FC6D042
:205FC0000320824665E07868002803D0BDF80200012809D1386B007839680873386B401CC6
:205FE0003863F88E401EF886F88E002802D1F88F002836D038688068800711D5F88E0028CB
:206000000ED0B9F1010F0BD1386B007839680873386B401C3863F88E401EF88600208146F2
:2060200038688068C0070ED5F88F00280BD03868C068B96B0870B86B401CB863F88F401EC1
:20604000F88701208146FCF795F9B0EB0B00A04202D314F1010F01D1002CC5D10320824667
:2060600017E05A462100380000F05DF9002804D001208246202078650BE0B868002808D1DC
:20608000002001903868C06801903868806801900198012087F85100002087F850005046CE
:2060A000C0B2BDE8FE8F7CB50400206845682068866816F04100012805D1680603D52000B0
:2060C000216C884776E0B00705D5280603D52000616C88476EE016F0600F6BD0A80669D5D1
:2060E00070061BD594F8510003280DD0606D50F004006065002000902068C0680090206807
:2061000080680090009809E0002000902068C068009020688068009000984BE0B0060FD539
:20612000606D50F001006065002000902068806800902068006830F0400021680860009803
:20614000606D002835D02068406830F0E00021684860012084F8510015F0030F26D0206861
:2061600040688008800021684860E06C00280CD00FF24500E16C4863E06C00F0A5FA0028AD
:2061800003D0606D50F040006065A06C002810D00FF22500A16C4863A06C00F095FA002875
:2061A00007D0606D50F04000606502E0200000F06DFDFFE773BD000038B50400656A0020A4
:2061C000E8870020E886280000F060FD31BD00002DE9FC4705000E0017009846DDF8289071
:2061E000FCF7C8F80400B8EB040419EB0404FCF7C1F88246DFF8580100684001000D00FBDC
:2062000004F00090286880683040B04201D1012000E000203900C9B2884243D018F1010F83
:20622000F0D0FCF7A7F8B0EB0A00A04201D2002C2FD12868406830F0E00029684860686845
:20624000B0F5827F0DD1A868B0F5004F03D0A868B0F5806F05D12868006830F04000296880
:206260000860A86AB0F5005F0BD12868006830F40050296808602868006850F40050296842
:206280000860012085F85100002085F85000032009E00098002801D1002004000098401E02
:2062A0000090AFE70020BDE8F6877CB504000D0016006068B0F5827F0DD1A068B0F5004FD6
:2062C00003D0A068B0F5806F05D12068006830F04000216808606068B0F5827F12D1A068DF
:2062E000B0F5806F0ED100962B00002201212000FFF76EFF002814D0606D50F020006065A5
:2063000003200FE000962B00002280212000FFF75FFF002805D0606D50F020006065032061
:2063200000E0002076BD7CB504000D00160000962B00002280212000FFF74AFF002805D0F2
:20634000606D50F020006065032000E0002076BD3C0100200EB4C0B5024603A800210190BC
:20636000009101AB0121044878440C3000F090FC06BC5DF810FB00BF15EE000008B584B029
:206380000023039300290EBF01930190491E0291009301A904AB07487844183000F078FC8C
:2063A000019909B100220A70002858BF039805B000BD00BF53C2FFFF80B53B483B49016032
:2063C0004FF482714160002181600021C16002210161012141614FF4007181610021C16180
:2063E0000021016200214162002181620A21C162FFF740FB002801D001F0B2FB01BD30B598
:2064000085B0040068461021FCF7C4F820682749884232D12648016851F48041016000684A
:2064200010F48040049004982248016851F008010160006810F00800049004984FF42040A7
:20644000009002200190032003901B4D69462800FFF724F94FF4804000900020019000208D
:20646000029069462800FFF719F900220521242001F0EAFB242001F0FCFB05B030BD10B5B6
:2064800004002068094988420CD10948016831F4804101604FF460410748FFF71BFA2420F4
:2064A00001F0EEFB10BD00003C6F0020003800401C10024018100240000C014010B4010008
:2064C0000022002901D101203DE00868DFF8B83398420CD20B68DFF8B403C3181420B3FBB9
:2064E000F0F080000864DFF8A803C8630BE00B68DFF8A003C3181420B3FBF0F080000864C2
:20650000DFF89403C863022081F82100086803686FF30D134C6888680443C86804430869F6
:2065200004434869044388690443C869044323430868036000208863012081F8210000204D
:2065400081F82000002010BC70470100002901D1012045E008680068400840000A6810607B
:2065600000200A68106000200A68506000200A68906000200A68D0600868DFF80C2390424B
:206580000CD20A68DFF8040382181420B2FBF0F080000864DFF8F802C8630BE00A68DFF856
:2065A000F40282181420B2FBF0F080000864DFF8E802C8630122086C8240C86B4260002064
:2065C00088620020C862002008630020486300208863002081F82100002081F82000002093
:2065E00070472DE9F04104000D0016001F005FF0000894F82000012801D102203BE00120FB
:2066000084F8200094F8210001282DD1022084F821000020A0632068006840084000216827
:2066200008603B0032002900200000F019FBE06A002806D02068006850F00E0021680860C1
:206640000BE02068006830F00400216808602068006850F00A00216808602068006850F0EF
:2066600001002168086004E0002084F82000022080464046C0B2BDE8F0810100002291F8E6
:206680002100022806D004208863002081F82000012018E00868006830F00E000B68186007
:2066A00008680068400840000B6818600123086C8340C86B4360012081F82100002081F80A
:2066C00020001000C0B2704738B50400002594F82100022804D00420A06301200500CFE0A4
:2066E0002068006830F00E00216808602068006840084000216808602068DFF8A011884248
:2067000059D32068DFF89811884201D101204EE02068DFF89011884201D1102047E02068DF
:20672000DFF88411884202D14FF480703FE02068DFF87811884202D14FF4805037E02068C7
:20674000DFF86C11884202D15FF480302FE02068DFF86011884202D15FF4801027E0206857
:20676000DFF85411884202D15FF080701FE02068DFF81411884201D1012018E02068DFF86A
:206780003C11884201D1102011E02068DFF83011884202D14FF4807009E02068DFF8241102
:2067A000884202D14FF4805001E05FF48030DFF81811086058E02068DFF8E410884201D1B6
:2067C00001204EE02068DFF8DC10884201D1102047E02068DFF8D010884202D14FF480701D
:2067E0003FE02068DFF8C410884202D14FF4805037E02068DFF8B810884202D15FF48030B9
:206800002FE02068DFF8AC10884202D15FF4801027E02068DFF8A010884202D15FF08070DC
:206820001FE02068DFF86010884201D1012018E02068DFF88810884201D1102011E0206899
:20684000DFF87C10884202D14FF4807009E02068DFF87010884202D14FF4805001E05FF459
:206860008030DFF8C0130860012084F82100002084F82000606B002802D02000616B88475C
:206880002800C0B232BD000008040240F8FFFDBF00000240F8FBFDBF000402408100024074
:2068A000080002401C0002403000024044000240580002406C000240800002401C040240CC
:2068C00030040240440402400404024070B50400E06B0568206806680421206C81400D42D6
:2068E00000F0C080700740F1BD8020680068800605D42068006830F00400216808602068A7
:20690000DFF82413884258D32068DFF82013884201D104204EE02068DFF81413884201D1D2
:20692000402047E02068DFF80C13884202D14FF480603FE02068DFF80013884202D14FF421
:20694000804037E02068DFF8F412884202D15FF480202FE02068DFF8E812884202D15FF413
:20696000800027E02068DFF8DC12884202D15FF080601FE02068DFF8D012884201D1042077
:2069800018E02068DFF8C412884201D1402011E02068DFF8BC12884202D14FF4806009E007
:2069A0002068DFF8B012884202D14FF4804001E05FF48020A84908604CE020689B49884287
:2069C00001D1042044E020689949884201D140203EE020689749884202D14FF4806037E0DA
:2069E00020689549884202D14FF4804030E020689249884202D15FF4802029E02068904924
:206A0000884202D15FF4800022E020688D49884202D15FF080601BE020688B49884201D1E7
:206A2000042015E020688949884201D140200FE020688749884202D14FF4806008E0206870
:206A40008449884202D14FF4804001E05FF4802074490860E06A002800F0E3802000E16AA0
:206A60008847DEE00221206C81400D4200F0B980B00740F1B68020680068800608D42068A9
:206A8000006830F00A0021680860012084F821002068654988424DD320686449884201D1C4
:206AA000022044E020686249884201D120203EE020686049884202D14FF4007037E0206843
:206AC0005D49884202D14FF4005030E020685B49884202D15FF4003029E020685849884288
:206AE00002D15FF4001022E020685649884202D15FF000701BE020685349884201D10220FE
:206B000015E020685149884201D120200FE020684F49884202D14FF4007008E020684D491D
:206B2000884202D14FF4005001E05FF400304A4908604CE020683D49884201D1022044E0AA
:206B400020683B49884201D120203EE020683949884202D14FF4007037E0206836498842ED
:206B600002D14FF4005030E020683449884202D15FF4003029E020683149884202D15FF47F
:206B8000001022E020682F49884202D15FF000701BE020682C49884201D1022015E0206854
:206BA0002A49884201D120200FE020682849884202D14FF4007008E020682649884202D1D2
:206BC0004FF4005001E05FF4003016490860002084F82000A06A002823D02000A16A88471C
:206BE0001FE00821206C81400D421AD0300718D52068006830F00E00216808600121206C06
:206C00008140E06B41600120A063012084F82100002084F82000206B002802D02000216BF8
:206C2000884770BD0400024081000240080002401C00024030000240440002405800024015
:206C40006C00024080000240080402401C040240300402404404024004040240806B704728
:206C600030B40125046CA540C46B6560046863604468102C04D10468A2600468E16003E0D7
:206C80000468A1600468E26030BC7047704700002DE9F0439FB000BF65A6269CDFF8B48A46
:206CA0008DF83B40029100240B944FF0FF37044691461D460AE019F8011B0298A0470028C5
:206CC000029000F0A1800B98401C0B9099F8000050B12528EFD100210022059106920791CF
:206CE000089209910A9203E00B98A5E041F0010119F8010F2028F9D023280CD02B2804D006
:206D00002D2805D0302809D080E041F00201EFE741F00401ECE741F00801E9E741F0100159
:206D2000E6E70D920AE00D98404505DA00EB800002EB4002303A0D9209F1010999F800209C
:206D4000A2F130000A28EED399F800002E2818BF0C9726D119F8010F2A2808D128682860C1
:206D600009F1010950F8042B28600C9219E02D280CBF09F10109002000220C920BE040B991
:206D80000C9A424505DA02EB820203EB4203303B0C9309F1010999F80030A3F130020A2A7A
:206DA000EDD3ADF83810304699F8001000F07CFF08B119F8010B8DF83A009DF83A006828B0
:206DC00005D199F8000068280CD1622106E06C2804BF99F800006C2804D171218DF83A10C4
:206DE00009F1010910A804902A4619F8013B6946204600F061F838B910AA6946204600F078
:206E00008FF900287FF562AF384615E02A2888D12A682A6052F8040B2A6000280D9003D583
