:020000040802F0
:10000000B0290020699E0208C99B0208CB9B020808
:10001000CD9B0208CF9B0208D19B02080000000084
:10002000000000000000000000000000D39B020858
:10003000D59B020800000000D79B0208D99B02084C
:10004000919E0208959E0208999E02089D9E0208B4
:10005000A19E0208A59E0208A99E0208AD9E020864
:10006000B19E0208B59E0208B99E0208BD9E020814
:10007000C19E0208C59E0208E79B0208ED9B02088C
:10008000C99E0208CD9E0208D19E0208D59E020894
:10009000F39B0208D99E0208DD9E0208E19E020839
:1000A000E59E0208E99E0208ED9E0208F19E020804
:1000B000F59E0208F99E0208FD9E0208019F0208B3
:1000C000059F0208099F02080D9F0208119F020860
:1000D000159F0208F99B0208199F02081D9F02083C
:1000E000219F0208259F0208299F02082D9F0208D0
:1000F000319F0208359F0208399F02083D9F020880
:10010000419F0208459F0208499F02084D9F02082F
:10011000519F0208559F0208599F02085D9F0208DF
:10012000619F0208659F0208699F02086D9F02088F
:1001300000F5E0700268914203D343681A4491428B
:1001400002D380680028F5D17047DFF808170868E7
:1001500090B94FF4805048604FF480324FF0FF3038
:10016000C86008610420DFF8F0368A604861C3F88F
:10017000BC01DFF8E80608600120704701F10803C0
:1001800013F0070F0EBF0023C3F1080303F00703AA
:100190001944D21A8161C26042F001034B60091D0B
:1001A0004FF0280C41F802C0DFF8A8261369C3619C
:1001B00070472DE9FC4B074601F1080010F0070FCE
:1001C0000FBF8946C0F1080000F0070001EB0009ED
:1001D00002F1080111F0070F06D002F10800C0F18A
:1001E000080000F0070002441546A5EB090009EBE2
:1001F0000306A0EB030B43F00303C9F80430AE423F
:1002000028BF00F073FF2879C10758BF00F06EFFC8
:10021000BBF1100F38BF00F069FFB869854208D103
:10022000F9688B44C7F80CB0BE614BF001007060F8
:1002300051E1786985420AD1B9688B44C7F808B0A2
:100240007E614BF00100706046F80BB043E16868D6
:1002500000F00301012940F0AC80C008C00001900B
:10026000C0081F2839D8AC68D5F80C8000904545E7
:1002700008BF00F03BFFA54208BF00F037FF6868E9
:100280000099C008C000B0EBC10F18BF00F02EFFEE
:10029000009907F1280000EBC100844206D03969BB
:1002A0008C42C0F08180E268AA427DD1A04506D18F
:1002B00000983968012383409943396076E080458E
:1002C00006D0396988456FD3D8F80800A8426BD1A9
:1002D000C4F80C80C8F8084068E0EC68D5F81880CD
:1002E000AC420CD0A8683969884223D3C268AA42BC
:1002F00004BFA168A9421DD1C460A0601CE005F143
:1003000014010C6834B905F110010C68A4B101E0C6
:1003100011460C6804F114021068002802BF04F1B1
:10032000100210680028F3D13869814202D30022FC
:100330000A6001E000F0DAFEB8F1000F36D0E9699A
:1003400007F5987000EB81000268954208D10460BF
:10035000A4B9E8697968012282409143796025E077
:100360003869804508D3D8F81010A94214BFC8F8DE
:100370001440C8F8104001E000F0B8FEB4B139698B
:100380008C4211D3C4F81880286928B1884226BF4E
:100390002061846100F0AAFE686938B13969884239
:1003A00002D36061846101E000F0A0FE01996D1844
:1003B0008B4469684908490069604BF0010070602E
:1003C0004FEADB0446F80BB01F2C23D807F12800B6
:1003D00000EBC4084546BBF1100F38BF00F086FEA5
:1003E000386820FA04F1CA0705D4012101FA04F49F
:1003F00004433C6007E0D8F80800396988422CBF04
:10040000054600F073FEC8F80860EE60B560C6F8F7
:100410000C8060E05FEA1B2008BF002123D0B0F50C
:10042000803F28BF1F211ED2A0F58072120C02F05F
:1004300008029040A0F58051090C01F004018840A9
:10044000A0F580431B0CC2F10E0203F00203521A06
:10045000D21A984002EBD032D01D2BFA00F101F0F5
:10046000010101EB4201F161002307F5987273610C
:1004700002EB810033617A6822FA01F3DC0707D4CA
:10048000012303FA01F1114379600660B0611DE0B8
:1004900002681F291DBF4908C1F119010BFA01F1BA
:1004A000594600E002465068C008C000584516D0C2
:1004B00002F11003C80F03EB8003490018680028FD
:1004C000F0D13869834204D31E60B261F660B66031
:1004D00001E000F00BFE09F10800BDE8F68B396978
:1004E00090688A4228BF8842F3D3C6609660B060A5
:1004F000F2600020B061EEE72DE9FE4F04468B4626
:10050000A5692E46904699463146FFF711FE0268CE
:10051000416802EB010AAAF1270111F007000EBFA2
:100520000021C1F1080101F007010AEB0100A0F16F
:100530002F0706F110018F4238BF374607F1180226
:10054000002101920091A8F1280259462046FFF7A8
:1005500015FE07F1080010F0070F18BF00F0C6FDE8
:100560001B20786007F1080104F5E07090E80C505A
:1005700081E80C50C0F800B0C0F80480C0F80C90BE
:10058000816007220198009900E0001D491C00F1DC
:10059000080353454260F8D30129D8BF00F0A6FDF7
:1005A000B74200F09580BF1B301D321DC15949086C
:1005B0004900D15147F0010070604FEAD70BF75165
:1005C000BBF11F0F21D804EBCB0000F12805A84692
:1005D000102F38BF00F08AFD206820FA0BF1CA07FF
:1005E00005D4012101FA0BF10843206006E0A86858
:1005F000216988422CBF804600F078FDAE60C8F8C3
:100600000C60C6F80880F5606FE0380A08BF00216A
:1006100023D0B0F5803F28BF1F211ED2A0F58072E5
:10062000120C02F008029040A0F58051090C01F074
:1006300004018840A0F580431B0CC2F10E0203F0B8
:100640000203521AD21A984002EBD032D01D27FA78
:1006500000F101F0010101EB420104EB81020023F2
:1006600002F59870F16173613361626822FA01F3F7
:10067000DB0707D4012303FA01F11143616006602F
:10068000B0611DE002681F291DBF4908C1F11901B1
:1006900007FA01F1394600E002465068C008C00080
:1006A000B84216D002F11003C80F03EB80034900D3
:1006B00018680028F0D12069834204D31E60B2611B
:1006C000F660B56011E003B0BDE8F04F00F00EBD7C
:1006D0000BE0216990688A4228BF8842F3D3C66044
:1006E0009560B060F2600020B06103B0BDE8F08FAB
:1006F0002DE9F041574F05463868884608B9FFF79D
:1007000024FDB96801EB08002F30491E20EA0101E1
:1007100088457DD205F5D876B06828B13268891849
:100720008A4275D2884273D300F020FD01001CBFBD
:100730000C6811F1010F6BD03068201805F5D872E4
:1007400030605368984238BF18467060A86960BB33
:10075000286908B1814200D22961316174610020A9
:10076000F0614FF0FF303A686A62286205F12802B2
:100770000020D260926002F1080757611761801C67
:1007800010322028F5D33448854208BFA4F128024E
:1007900028D055F8040CC00805EBC002A2F10800EF
:1007A0000A19121A283A01461CE005F5E0700246C3
:1007B00000E092687AB3136857681F44B942F8D1D1
:1007C000137B1F0727D4AB691768BB4223D3D2F82A
:1007D00004C06744BB421ED2A444C2F804C0E86807
:1007E000A96922182846FFF7C9FC1FE08068C0B13C
:1007F00003689342FAD1027B130712D402680160A6
:100800004368E418446043462846BDE8F041D0E41C
:100810000020BDE8F0812A69914238BF29610A1998
:10082000E5E7002322462846FFF766FEE868804594
:10083000EED2A0EB0800A969E86001EB0802AA610A
:1008400040F00100506048F00300486001F10800EA
:10085000BDE8F08158150020E80D00206859883C5B
:100860002DE9F84F00258946090AC9F1000B08BF98
:10087000002323D0B1F5803F28BF1F231ED2A1F54E
:100880008072120C02F008029140A1F580531B0CFB
:1008900003F004039940A1F58044240CC2F10E0238
:1008A00004F00204D21A121BA14002EBD132D11D76
:1008B00029FA01F303F0010303EB4203074607F5AE
:1008C000987858F8230030B31F2B0FBF4C465C08B4
:1008D000C4F1190409FA04F4AC46594600E0640076
:1008E0004268D208D200A2EB09028A4203D2110068
:1008F000054600F06981426910304FEAD47B50F818
:100900002B00002A1CBF824294460028E7D18B4668
:100910006046B0BBBDBB012202FA03F35B00584244
:10092000796803430B4000F04E81584203405B1E40
:10093000180B00F01000C340590901F00801CB402A
:100940009A0802F00402D3405C0804F0020408187C
:10095000E3401018C3F3400620183044F3401B183E
:1009600058F823000DE008464168C908C900A1EB0A
:10097000090159453CBF8B46054601690029F2D162
:1009800040690028F0D1002D00F01D81B868A0EB6F
:100990000900834580F0178139698D42C0F01181CB
:1009A0006868C008C00009EB0B01884218BF00F05E
:1009B0009DFB05EB0906B54280F00381EC68D5F894
:1009C00018A0AC420CD0A8683969884223D3C26809
:1009D000AA4204BFA168A9421DD1C460A0601CE066
:1009E00005F114010C6834B905F110010C68A4B1CB
:1009F00001E011460C6804F114021068002802BFDF
:100A000004F1100210680028F3D13869814202D342
:100A100000220A6001E000F069FBBAF1000F36D055
:100A2000E86908EB800001688D4209D1046020006C
:100A300014D1E8697968012282409143796026E007
:100A40003869824508D3DAF81010A94214BFCAF8F1
:100A50001440CAF8104001E000F048FBBCB138690E
:100A6000844212D3C4F818A0286930B13969884289
:100A700026BF2061846100F039FB686938B13969AB
:100A8000884202D36061846101E000F02FFBBBF17A
:100A9000100F0CD2D94449F00300291D6860281DAD
:100AA00051F8092042F0010240F8092088E049F09D
:100AB000030068604BF0010070604FEADB0046F80D
:100AC0000BB01F281DD807EBC00101F128043968BD
:100AD00021FA00F2D307A34605D4012202FA00F05E
:100AE0000843386006E0A068396988422CBF834615
:100AF00000F0FCFAA660CBF80C60C6F808B0F46011
:100B00005EE05FEA1B2008BF002123D0B0F5803FE4
:100B100028BF1F211ED2A0F58072120C02F008021D
:100B20009040A0F58051090C01F004018840A0F527
:100B300080431B0CC2F10E0203F00203521AD21AB8
:100B4000984002EBD032D01D2BFA00F101F00101E8
:100B500001EB4201F16100227261326108EB810018
:100B60007A6822FA01F4E30707D4012404FA01F1B8
:100B7000114379600660B0611DE002681F291DBF46
:100B80004908C1F119010BFA01F1594600E002468A
:100B90005068C008C000584518D002F11003C80FB3
:100BA00003EB8003490018680028F0D138698342BC
:100BB00004D31E60B261F660B66001E000F096FA00
:100BC00014E100F093FA0EE18B46A2E639699068D1
:100BD0008A4228BF8842F1D3C6609660B060F26056
:100BE0000020B061ECE72DE9F84F064688467168B1
:100BF00048420140491E080B00F01000C1404A095C
:100C000002F00802D1408B0803F00403D9404D08DC
:100C100005F002051018E9401818C1F3400428181F
:100C200006F5987A2044E14009185AF821104868DE
:100C3000C008C0000D46A0EB080909E0014648685D
:100C4000C008C000A0EB080048453CBF81460D46E7
:100C500008690028F2D149690029F0D1306985423C
:100C6000C0F0BF806968C90808EB090BC900594585
:100C700018BF00F03BFA05EB08008542009080F0B9
:100C8000B080EF68AC69AF420CD0A8683169884287
:100C900023D3C268AA4204BFB968A9421DD1C76064
:100CA000B8601CE005F114010F6837B905F11001B7
:100CB0000F68A7B101E011460F6807F11402106830
:100CC000002802BF07F1100210680028F3D1306934
:100CD000814202D300220A6001E000F007FA002CF2
:100CE00031D0E8690AEB800001688D4208D10760C5
:100CF0008FB9E8697168012282409143716022E0F6
:100D00003069844205D32169A94214BF6761276114
:100D100001E000F0EBF9B7B13069874211D3BC6153
:100D2000286930B13169884226BF3861876100F097
:100D3000DDF9686938B13169884202D37861876129
:100D400001E000F0D3F9B9F1100F0BD24BF0030022
:100D5000291D6860281D51F80B2042F0010240F85F
:100D60000B203DE048F003012A1D696049F00100B5
:100D700042F80800009941F80990D6F808804FEA37
:100D8000D80BBBF1200F28BF00F0B0F9B8F1000F6D
:100D900022D006EBCB00776900F12804A246B8F117
:100DA000100F38BF00F0A2F9306820FA0BF1CA0723
:100DB00005D4012101FA0BF10843306006E0A06878
:100DC000316988422CBF824600F090F9A760CAF8CA
:100DD0000C70C7F808A0FC60C6F808900098706115
:100DE00004E000F083F90020BDE8F28F05F108006F
:100DF000BDE8F28F2DE9FE4F0546AFF30080F52DDB
:100E0000DFF8E46280F004810B2D31BF10250B3533
:100E1000ED08ED003068EC08E04010F0030F46D01C
:100E2000C04300F00100041906F1280000EBC408DB
:100E3000E700D8F808506868C008C000B84218BF7A
:100E400000F054F9D5F80890454508BF00F04EF978
:100E50004D4508BF00F04AF96868C008C000B842B4
:100E600018BF00F043F9C84507D13068012101FAE5
:100E700004F420EA040434600DE03069814508D3AD
:100E8000D9F80C10A94204D1C8F80890C9F80C8010
:100E900001E000F02BF947F00300291D6860281DD0
:100EA000CA5942F00102C25105F10804F8E0B168E4
:100EB000A94280F0BE80002800F0A1804FF0010818
:100EC00008FA04F1490000FA04F4484201430C40D6
:100ED00060420440641E200B00F01000C440610911
:100EE00001F00801CC40A20802F00402D4406308DB
:100EF00003F002030818DC401018C4F34007181868
:100F00003818FC40241806F1280000EBC40AE7005A
:100F1000DAF80890D9F80400C008C000B84218BF39
:100F200000F0E4F8D9F808B0D14508BF00F0DEF8C9
:100F3000D94508BF00F0DAF8D9F80400C008C000AD
:100F4000B84218BF00F0D2F8DA4506D1306808FA86
:100F500004F420EA040434600DE031698B4508D3C1
:100F6000DBF80C00484504D1CAF808B0CBF80CA057
:100F700001E000F0BBF87F1B45F0030009F104021B
:100F8000C9F8040047F00101515109EB0502019233
:100F9000D751B4684FEAD40ABAF1200F28BF00F045
:100FA000A5F834B3CDF800A006F12800756900EB70
:100FB000CA0AD346102C38BF00F098F83168009860
:100FC00021FA00F2D30704D408FA00F00843306095
:100FD00007E0DAF80800316988422CBF834600F048
:100FE00085F8CAF80850CBF80C50C5F808B0C5F819
:100FF0000CA0B76009F108040198706150E07068B6
:10100000C0B329463046FFF7EEFD040011D047E09B
:1010100015F1400F28BF4FF0FF350AD20B35ED0810
:101020007068ED0028B129463046FFF719FC04002E
:1010300036D1B068A8421DD3411B726910290AD36A
:1010400050197061B16041F001034360415045F0B7
:10105000030555600BE00021B1607161131D40F084
:1010600003015160111D1C5844F001040C5002F1A1
:10107000080415E0F06885420DD2401BB169F060AC
:101080004A19B26140F00100506045F003054D601F
:1010900001F1080404E029463046FFF729FB044625
:1010A000AFF300802046FFF720BB38B5002558B1CC
:1010B00041EA0002120C01FB00F512041EBFB5FB51
:1010C000F0F088424FF0FF352846FFF793FE04000A
:1010D0001CBF14F8040C10F0030F03D0294620465F
:1010E00000F05AF8204632BDE80D0020012000F043
:1010F00073B8F0B40246106895681318506803EB93
:101100005004C0071DD54D441BE013F8017B05F8C2
:10111000017B491EF9D1A0B1B60813F8011B06F0F6
:101120000306032E08BF13F8016B01EB06214942A9
:10113000801C294405D011F8016B05F8016B401E95
:10114000F9D1A3420ED013F8016B16F0030104BFCE
:1011500013F8011BC91C30090F28DAD113F8010B51
:101160000F30D6E7F0BC02F10C0070470749086861
:1011700008B1002070470648C008C0000860054953
:10118000C908C900091A0160704700BFA4150020F2
:10119000B7290020B02D0020002200F027B830B47D
:1011A000002513E050F8042BD30744BFA9F1010335
:1011B0009A18091F042942F8045BFAD213468C07D7
:1011C00044BF15809B1CC90748BF1D7050F8041B05
:1011D0000029E7D130BC704780B500F01DF8024A05
:1011E00011001820ABBEFBE7260002004018491C86
:1011F0001CBFB1F1010100F8012DF9D170478268DF
:10120000521C8260426832B10268531C0360117044
:101210004168491E4160704780B500F015F8020032
:101220000023DB431068984204D011000220ABBEBB
:10123000002010605068984204D0111D0220ABBEFF
:101240000020506001BD0000014870470000000010
:10125000100200202DE9F0439FB000BF65A6269C38
:10126000DFF8B48A8DF83B40029100240B944FF0D4
:10127000FF37044691461D460AE019F8011B029803
:10128000A0470028029000F0A1800B98401C0B9012
:1012900099F8000050B12528EFD1002100220591D6
:1012A00006920791089209910A9203E00B98A5E033
:1012B00041F0010119F8010F2028F9D023280CD0A2
:1012C0002B2804D02D2805D0302809D080E041F00B
:1012D0000201EFE741F00401ECE741F00801E9E722
:1012E00041F01001E6E70D920AE00D98404505DA5D
:1012F00000EB800002EB4002303A0D9209F1010947
:1013000099F80020A2F130000A28EED399F80000E5
:101310002E2818BF0C9726D119F8010F2A2808D1BA
:101320002868286009F1010950F8042B28600C9204
:1013300019E02D280CBF09F10109002000220C92B0
:101340000BE040B90C9A424505DA02EB820203EB4E
:101350004203303B0C9309F1010999F80030A3F1E5
:1013600030020A2AEDD3ADF83810304699F8001053
:1013700000F06AFE08B119F8010B8DF83A009DF8EB
:101380003A00682805D199F8000068280CD162213C
:1013900006E06C2804BF99F800006C2804D1712184
:1013A0008DF83A1009F1010910A804902A4619F89D
:1013B000013B6946204600F061F838B910AA694639
:1013C000204600F08FF900287FF562AF384615E01F
:1013D0002A2888D12A682A6052F8040B2A6000283B
:1013E0000D9003D540420D9041F0040109F101092F
:1013F0008CE70000686A6C747A4C00001FB0BDE88E
:10140000F083622820D0682811D06A2803D06C2885
:1014100027D0712825D10868C01D20F0070008607A
:10142000D0E9002308300860194610467047002AAA
:101430000A680A60106803D0121D0A6000B217E043
:10144000121D0A6080B217E0002A0A680A6010685C
:1014500003D0121D0A6040B20AE0121D0A60C0B239
:101460000AE0002A0A680A60106803D0121D0A60A8
:10147000C1177047121D0A600021704770B51C46E5
:101480000D46B4F125002E69114600F019811C3873
:1014900068D0001F022865D9133842D0093861D0BE
:1014A000801E16D0401E1ED0401E02285AD9001F92
:1014B00019D0401F00F08180401E32D0401E00F045
:1014C000CB80C01E00F0DA80801E2AD0C01E28D03B
:1014D000FCE06869421C6A610A680A6052F8043BD1
:1014E0000A603354FCE095F83A000122FFF789FFC7
:1014F000C5E90001002904D56869411C69612D22F4
:101500000DE0288F810704D56869411C69612B2291
:1015100005E0C00721D56869411C69612022325469
:101520001BE095F83A000022FFF76BFFC5E90001C8
:1015300095F83800010710D5D5E90023002B08BF26
:10154000002A0AD044F02000782806D168693021AA
:101550003154401C421C6A6134542146686930444D
:10156000E86087E00868C01D20F007000860D0E947
:10157000002308300860C5E90023D5E90001C80F41
:1015800004D06869411C69612D220DE0288F810714
:1015900004D56869411C69612B2205E0C00704D5A8
:1015A0006869411C69612022325468693044E860EE
:1015B0002146284600F0C4F992E005F13A0250783D
:1015C00020B14FF0FF340FF6202062E0107862283F
:1015D00008D0682824D06A2812D06C282ED0712810
:1015E0000ED02BE00A680A6052F8040B0A6020B99A
:1015F0004FF0FF340FF608204BE0E96A01706FE00E
:101600000A680A6052F8040B0A6020B94FF0FF34F0
:101610000FF6EC103DE0EA6AD317C0E900235FE063
:101620000A680A6052F8040B0A6020B94FF0FF34D0
:101630000FF6CC102DE0E96A018051E00A680A60DB
:1016400052F8040B0A6020B94FF0FF340FF6B010C7
:101650001FE0E96A016043E00A680A6052F8040B7F
:101660000A60002120F0000221F0FF33C5E90023C9
:10167000EE607821284600F0BBF831E00868086089
:1016800050F8044B0860EC603CB94FF0FF340FF6A3
:10169000881000F0E5FC201A70BD2E6B002E04D5DA
:1016A000204600F0FDFC044608E0324600212046BA
:1016B00000F000FD002814BF041B3446AC610FE0AD
:1016C0006869411C69612522325409E06969481C36
:1016D000686125227254210002D0431C6B6134548E
:1016E000002070BD2DE9FC410F46064690467A6BFE
:1016F0007869396ABC6A121AB869521A796A121A78
:10170000F869521A121A97F83800141B41070FD4BF
:101710002020002C8DF800000ADD254601236A46B2
:101720003946304600F048FC00285DD16D1EF5D1E9
:101730007B6942463946304600F03EFC002853D1D2
:1017400030208DF800003D6A002D09DD01236A4636
:101750003946304600F030FC002845D16D1EF5D1E9
:10176000BB69FA683946304600F026FC00283BD1B8
:1017700030208DF800007D6A002D08DD01236A46C7
:101780003946304600F018FC70BB6D1EF6D1F86883
:10179000B969FB6942183946304600F00DFC18BBA8
:1017A00030208DF80000BD6A002D08DD01236A4657
:1017B0003946304600F000FCB0B96D1EF6D197F8FE
:1017C000380041070DD52020002C8DF8000008DDE1
:1017D00001236A463946304600F0EEFB20B9641E0C
:1017E000F6D10020BDE8F6814FF0FF30BDE8F6816C
:1017F0002DE9FC4307466F293E6908BF082405D040
:1018000041F02000782814BF0A2410243C25D7E991
:101810000023642918BF69299046994605D1002BF9
:1018200003D5D8F1000869EB4909B9F1000F08BFE9
:10183000B8F1000F1FD1386BE8B9082C4CD197F8DC
:101840003800010748D530203B2586F83B0043E0AF
:1018500000280ED597F8380000F01400102808D1A1
:101860007B6B7969386A5B1A1B1A9A1A002AC8BFFF
:101870003A62BDE8F3838DF800104046494622469F
:10188000E31700F043FC3032D0B26D1E3A280195C8
:1018900004DB9DF80000A0F151018A187255404602
:1018A00049462246E31700F031FC80465FEA010911
:1018B00008BFB8F1000F03D0F86871198842DCD373
:1018C000082C09D197F83800010705D5705D30283C
:1018D00002D06D1E30207055C5F13C02BA617119FD
:1018E000F960386B8242B3DA821A3A624FF6EF70CF
:1018F000398F01403987BDE8F3832DE9D04306468F
:101900000F4614464FF00008DFF8109412E0E0078D
:1019100007D542464B463046394600F07BFC06462A
:101920000F464046494642464B4600F073FC641061
:1019300080468946002CEAD130463946BDE8D0833E
:101940002DE9F84F05468A464AF020048EB0D5E9C5
:101950000089612C02AE09D0286B002848BF062000
:1019600003D408BF672C01D101202863D5E9000109
:101970004A005215521C0DD10B030BD0AAF1610184
:1019800003201A29A86102D20FF2A86110E00FF219
:10199000A8610DE04A005215521C0ED10B030CD168
:1019A000AAF1610103201A29A86116D30FF29061F0
:1019B000E868032200F000FDC0E1CDE90C01DDE99B
:1019C0000C2323F00043B3F5801F0DD20027002B1A
:1019D00008BF002A019703D111E00FF26061E7E729
:1019E00001AA00F0F5FC0AE0CD48CE4900EB135007
:1019F000DDE90C2301900B40CB4910461943C5E9A2
:101A00000001612C0DD1E86830210170821CBAF10F
:101A1000610FEA600CBF7821582141706869801C11
:101A20006861D5E90001CDE90C01DDE90C2333F053
:101A3000004104BF0028002300F04881612C40F0E1
:101A4000A080286B494600284CBF4FF0210B00F1C5
:101A5000010B404600220023DDE90C8900F0F0FC78
:101A600001990BF1010738BF89F00049091F002FC8
:101A700001918DF808200DF1090040F33581A94945
:101A800000910646404649460022002300F0F0FC43
:101A900080F029814800400D00F11C0211D0002A7D
:101AA0000FDD40F2FF739A4205DBA04909F00040C8
:101AB0000143002011E0009B194041EA02514046D9
:101AC0000BE028F0000039F0004108BF00280FBFEC
:101AD00049461C22494600F0E3FC8046894600F056
:101AE0007DFDFF1F002F044609DD00F095FD024635
:101AF0000B464046494600F0A1FD80468946F01D50
:101B0000072104E004F00F0200F8012D2411002C3D
:101B100001DD491EF6D5491E5CBF002200F8012DEB
:101B2000F9D5DCE00020194602AA0A4400E05B1E59
:101B300012F80149491E8442F9D00F2804D10DF151
:101B40000900425C521C4254002904D50198001D32
:101B500002AE5B1C0190581E0CD43118AAF13A0455
:101B60000A783032D7B23A2FA8BFA218401E01F827
:101B70000129F5D5286B002840F1A780591E29635B
:101B8000A3E001996A4A47F29750414391FBF2F270
:101B9000019229F00046D2F1070204DD40463146A9
:101BA000FFF7ABFE0AE0524200206249FFF7A5FEB4
:101BB00002460B464046314600F0B2FD8046662C98
:101BC000286B06BF019F0A3706273F18142FC8BF8E
:101BD000142730208DF8080089460DF1090000E037
:101BE0003046002F34DD06464046494600F0BCFE34
:101BF00001460A4606F1080304200A26B2FBF6F65F
:101C000006EB860EA2EB4E02303203F8012C0A22BC
:101C1000B6FBF2F202EB820EA6EB4E063036401E09
:101C200003F8026DE9D1083F002F03F10806D7DD64
:101C3000084600F0ADFE02460B464046494600F01D
:101C4000FDFC00223C4B00F0E5FA80468946CBE7DC
:101C50000DF10901401A0DF1090604E00199491E30
:101C6000401E0191761C31783029F7D0662C02D1C4
:101C70000199491C03E0652C0CBF012100212B6B4D
:101C8000CB189842B8BF431E002B1ED4834204DAFF
:101C9000F05C3528A8BF392000DA30201946721EC2
:101CA00002EB010800E05B1E18F80199491E81450E
:101CB000F9D0392802D1705C401C7054002904D539
:101CC0000198401C16465B1C0190019800B20090E0
:101CD0001BB232465146284600F034F82EE0C61DAD
:101CE000002F3FF7CFAE30460DF10901401A0346F1
:101CF0005845C8BF5B46002B0DF109063FF53AAFCA
:101D00008342BFF60FAF0DF10900C15C07297FF7D1
:101D100009AF0F2007E70000CBCCCC0C000024401B
:101D200002FCFFFFFFFF0F800000E03F0000F07F9C
:101D3000A08601000000F03F84D797410FB0BDE8B6
:101D4000F08F00002DE9F84783B006468A46174613
:101D5000984600F02BFEB8F1000F406A356B90F802
:101D6000009002DC4FF00108B6A74AF02000BDF950
:101D70003040662808BF641C15D0672840F0848076
:101D800014F1040FC0F28680AC4280F2838096F892
:101D90003800641C010702D4A845B8BF454620B2EC
:101DA0002D1A48BF00250FFA84FAF068B169BAF11C
:101DB000000F25DC4A1C30234354002D03DC96F829
:101DC0003800010703D5F06800F80290521C15EBAB
:101DD0000A0FB8BF6C4220B2441941424445B8BF13
:101DE000A046B26171620FFA88F5F561F068B369D7
:101DF0002A463946184400F0DFFA641BB462C4E096
:101E000022B29045084417DA4246394600F0D4FA27
:101E1000B0694044B061AAEB0801002D716203DC97
:101E200096F838100A0705D5F16801F80090F069B6
:101E3000401CF061B562A8E0394600F0BDFAB06917
:101E4000002D5044A8EB040803DC96F838100A076C
:101E500003D5F16801F80090401CB0610FFA88F0DA
:101E60008542F368B069B8BFA8460FFA88F207EB5D
:101E70000A01184400F0A0FAB1690FFA88F0014491
:101E8000B161281A706280E0BAF1610F14D14FF08D
:101E9000700A16E0A84504DA96F838100A0758BF09
:101EA00045466D1E48BF0025BAF1670F14BF4FF0BD
:101EB000450A4FF0650A04E0BAF1410F08BF4FF040
:101EC000500AB169F368481CB061002D17F8012B66
:101ED0005A5403DC96F838100A071BD5F168431CE6
:101EE000B36101F80090002D14DDA8F101080FFA8C
:101EF00088F039468542F768B8BFA8460FFA88F2DD
:101F0000F81800F059FAB0690FFA88F108446D1A10
:101F1000B0617562F068B1690844002C80F800A0D7
:101F200003D42B224270811C03E02D2141706442B6
:101F3000811C00206A460AE023460A2493FBF4F43D
:101F400004EB8405A3EB450302F8013B401C24B2DB
:101F5000002CF1DC012806DC4AF02002652A04BFCF
:101F6000302201F8012B48B9302001F8010B07E0BD
:101F7000401E1DF80030303301F8013B0028F7DC2B
:101F8000F268B0691044091AF16196F8380000F05F
:101F9000140010280DD17269B169706A8A18F1694C
:101FA0008218B06A8A188218706B8242BCBF821A8B
:101FB000326204B0BDE8F087F8B505460E46174614
:101FC0001C46002074B117F8011BB068A847B06028
:101FD00030B1F06A401CF0620020641EF3D1F2BD03
:101FE0004FF0FF30F2BD00007072696E74665F736F
:101FF0003A20256E20646973616C6C6F77656400AC
:102000007072696E74663A2062616420256E206188
:102010007267756D656E74007072696E74665F7359
:102020003A2062616420257320617267756D656E68
:10203000740000006E616E004E414E00696E6600D5
:10204000494E460030000000C9B202788A421AB1F7
:102050001CBF10F8012FF9E718BF002070470000DF
:1020600080B500B906A005490B681BB122220021EA
:10207000984701E0FFF73AF8222002BDA81500209A
:10208000636F6E73747261696E742068616E646CE4
:1020900065723A20626164206D65737361676500E3
:1020A00000F1010310F8011B11B110F8011BFBE74F
:1020B000C01A7047C9B2830706D0521E22D310F847
:1020C000013B9942F7D11FE0083A13D302F1040211
:1020D00041EA012141EA014150F8043B121F21BFAE
:1020E0004B40A3F1013C2CEA030C1CF0803FF3D0E1
:1020F000C9B2001F083210F8013B521E28BF91EAF6
:10210000030FF8D818BF0120401E7047D3BBD9B1C8
:10211000B2F5803F5BD2022A1ED98C46B1FBF2F1A8
:1021200002FB11C31B0443EA1043B3FBF2FC02FBA6
:102130001C3380B240EA0343B3FBF2F002FB1032DF
:1021400040EA0C4000237047022A05D98446B0FBC0
:10215000F2F002FB10C270474AB105D100F0010253
:1021600049085FEA3000704700220023704700F002
:1021700021BC0B000200002100207047F7D3002291
:1021800000237047904271EB030CF2D370B5B1FAA3
:1021900081F4B3FA83F52C1BA340C4F1200532FA75
:1021A00005F63343A2405FF00046E64002E05B08DC
:1021B0005FEA3202841A71EB030524BF20462946E8
:1021C0007641F4D302000B003000002170BD70B5E1
:1021D000B1FA81F4B2FA82F5C4F120046419B4F1C1
:1021E0002006DAD3B2405FF00044F440002502E05C
:1021F00052085FEA3303C61A71EB020E24BF304661
:10220000714664416D41F3D302000B0020002900A8
:1022100070BD0000B0B581EA030C0CF0004C40F238
:10222000FF7515EA11541DBF15EA1357AC42AF42B2
:1022300039E0E41923EA455343F48013C90241F01D
:10224000004141EA505EC7021100A7FB02020028CC
:102250004FF00000EEFB01204FF00001E3FB0721EF
:1022600018BF42F00102401800214941E3FB0E0172
:10227000A4F580640F0302D252004041494154F159
:1022800001046CDD470872F1004250F1000051EB8F
:102290000451A1F580115CBF41EA0C01B0BD4CEACC
:1022A00005510020B0BD05EA1357AC4214BFAF4240
:1022B00041E050EA410E1CBF52EA430E02E0614683
:1022C0000020B0BD24423C441BD15FEA070EF6D08B
:1022D000090302BF01460020AEF1140EB1FA81F7E6
:1022E000AEEB070401FA07FE0C37C7F1200100FA34
:1022F00007F7C8404EEA000E23EA455343F4801323
:10230000A2E733F00043B3FA83F704BFB2FA82FEC8
:1023100077440B3FE41BB7F1200E2FBF02FA0EF3F8
:10232000BB40C7F1200E22FA0EFE38BF43EA0E036F
:10233000BA40641C82E750EA410E14BF52EA430ED1
:102340006FF000014FF4001717EB430F8ABF1946D7
:1023500017EB410FB5E74CEA05510020B0BDD4F1B1
:102360000104B4F120070FDAC4F12007520828BF96
:1023700042F0010210FA07F501FA07F7E1BF2A431C
:10238000E0403843E1400FE0352C98DCC7F12004F1
:1023900052EA400220FA07F218BF42F0010231FA75
:1023A00007F0A1400A43002172F1004250F1000001
:1023B00051EB0C01B0BD00004AB1000011F8013B27
:1023C000521E00F8013B1CBF11F8013BF8E77047B3
:1023D00010B5144600F002F8226010BDC1F30A5394
:1023E00043B14A0012F5001F28D2A3F2FE32A1EB3E
:1023F0000251704750EA410C20D001F0004C31EA04
:102400000C01B1FA81F204BFB0FA80F3D2180B3A92
:10241000B2F120032CBF00FA03F1914041EA0C0114
:102420003EBFC2F1200C20FA0CF3194390405242F7
:1024300040F2FD33D21A01EB03517047002270477E
:102440004FF4001C1CEB410F94BF1CEB430F09E041
:1024500041EA030C50EA4C0C52EA0C0C03D29942AC
:1024600008BF9042704714BF8B4282427047000001
:102470004FF4001C1CEB410F94BF1CEB430F09E011
:1024800041EA030C50EA4C0C52EA0C0C03D28B428A
:1024900008BF8242704714BF9942904270470000C3
:1024A000124254D440F2FF7C1CEA11530FD0634512
:1024B00031D09B1863453CBF01EB0251704701F0DE
:1024C000004141EA0C510020AFF30080704750EA10
:1024D000410320D001F0004C91EA0C011CD0B1FA6C
:1024E00081F30B3B9A420DD9D21A994051EA0C0163
:1024F000C3F1200C20FA0CFC61449840531C40F2BC
:10250000FF7CD7E7914041EA0C01C2F1200C20FA90
:102510000CF3194390407047B0FA80F31533202B29
:10252000E0D3202AEED3203A203B9A4209D9D21A8E
:1025300000FA03F141EA0C010020531C40F2FF7C39
:10254000B8E700FA02F141EA0C010020704752425C
:1025500040F2FF7C1CEA11530DD06345DBD0B2EB97
:10256000030C3CBFA1EB025170470CF1010221EAC0
:10257000035141F4801150EA410CCCD001F0004CE1
:10258000352A27DC30B481EA0C01B2F1200309DAE4
:10259000C2F12003044601FA03F5D0402843D1409C
:1025A0009C400CE0C3F12002450020FA03F418BF60
:1025B00044F0010421FA03F091400C43002174F12E
:1025C000004550F1000051EB0C01244230BC7FF477
:1025D0007BAF70476146002076E70000C1F30A53E5
:1025E00040F2FE329B1A14DDD3F120034FEAE17270
:1025F00008DDC90241EA505141F00040D84080183E
:102600005040704703F2E13010B1D24382F00040F5
:102610007047002070470000C11768B14840401A59
:10262000B0FA80F29040D21CC907C2F5846241EA38
:10263000025202EBD02140057047000070B44FF009
:10264000004591EA030F40F1B7816B40841A71EBAA
:10265000030603D2001BB141121973414FF4001C51
:102660001CEB410F34BF7CEB430442E00C0DA4EBA8
:102670001356352E4FDC45EAC323DB0A45EAC12158
:10268000C912B6F120050DDD63FA05F6EB4086EAC6
:102690000305124218BF45F00105C01851F10001B1
:1026A0000CD213E062FA06F5F2405540F3415A406D
:1026B000B340F3405A408018594107D349085FEAB4
:1026C00030005FEA350528BF45F0010501F58011AE
:1026D000420875F1004250F1000041EB04514E00F8
:1026E00016F5001F70BC38BF70470020090D0905A2
:1026F00070471CEB410F10D252EA43060BD0BCEBE3
:10270000410F05D80C0DAB43661E342EB6DD02E03A
:10271000AB438018594170BC704770BC70470000D3
:10272000F0B540F2FF7581EA030C0CF0004C15EA9D
:1027300011541DBF15EA1357AC42AF42E5E0BC414E
:10274000C1F31301C3F31303801A994143F48013B7
:1027500004D2641E4000494180185941C90241EA2F
:102760005051B1FBF3F603FB1611A2FB0675D7EB34
:10277000C020A94102D2761E80185941C90241EAFF
:102780005051B1FBF3FE03FB1E11A2FB0E75D7EBFC
:10279000C020A94103D2AEF1010E8018594189022F
:1027A00041EA9051760546EA8E2EB1FBF3F603FB23
:1027B0001611A2FB0675D7EB8020A94102D2761E26
:1027C00080185941C90241EA50514EEA060EB1FB48
:1027D000F3F603FB1611A2FB0675D7EBC020A94147
:1027E00002D2761E80185941C90241EA5051B1FB0C
:1027F000F3F703FB1711A2FB0735D3EBC020A94168
:1028000067F100070CBF004247F0010766F3D527C8
:102810004FEA1E31B80814F5806412DDBD0775F16A
:10282000004250EB0E5051EB045111F5801F5CBF7C
:1028300041EA0C01F0BD4CF07F6141F0E041002025
:10284000F0BDBD076D0840EA0E5041F48011D4F18F
:102850000104B4F120060ADAC4F120060200E040C7
:1028600001FA06F3E1401843B24015430EE0342C60
:1028700013DCC6F1200445EA40056D0820FA06F293
:10288000154321FA06F0A1400D43002175F10042E5
:1028900050F1000051EB0C01F0BD00205FEA0C018B
:1028A000F0BDCFB992185B41B3FA83F704BFB2FA17
:1028B00082F6BF190B3FB7F120062FBF02FA06F3CD
:1028C000BB40C7F1200622FA06F638BF3343BA40B0
:1028D0001CB1E419641E33E77F4231F00041B1FAC4
:1028E00081F404BFB0FA80F6A4190B3CB4F12006C1
:1028F0002FBF00FA06F1A140C4F1200620FA06F627
:1029000038BF3143A0403C1B1AE7AC421ABF05EA6E
:102910001357AF4212E050EA41061CBF52EA430689
:10292000BFE750EA4107304661461CBF41EA055106
:10293000F0BD52EA430C08BFC143F0BD00204FF484
:10294000001616EB410F98BF16EB430F08BF16EBAE
:10295000410F24BFC14305E016EB430F0CBF614696
:102960004CEA0551F0BD0000400D491840EA8120B5
:102970000CD2490DA1F58061491C40F0004005DBF7
:10298000D1F11F0154BFC840C017704700207047E5
:10299000014648B1B0FA80F18840C91CC1F5846194
:1029A000090501EBD0214005704700000048704741
:1029B000D801002070470000841A71EB030604D28E
:1029C0006E40001BB141121973414FF4001C1CEB07
:1029D000410F34BF7CEB430683E00C0DA4EB135690
:1029E000362E00F37C80012E45EAC32341DC43EA06
:1029F000525312BFD20292025B08240545EAC1215C
:102A000041EA5051D2EBC020994125D407D1B0FA08
:102A100080F610FA06F162D00020203608E0B1FA04
:102A200081F6B140C6F1200220FA02F21143B04013
:102A30004FEAF474B4EB465434F001064FEA7404E0
:102A40000AD8D6F50016760D04F00044F04061FA7D
:102A500006F25040F1404840C00A40EA415021F09F
:102A6000004128BF5FEA500550F1000044EBD1213E
:102A700035E0DB0A45EAC121C90AB6F120050EDDC1
:102A800042EA0242120CC5F1200603FA06F6EB40B8
:102A900042EA06056D42984161F100010DE062FADB
:102AA00006F5F240554063FA06FC82EA0C02F34058
:102AB0005A406D42904161EB030111F4801F05D132
:102AC000641E620502D06D004041494121F480112D
:102AD000430875F1004350F1000041EB045170BC14
:102AE00070471CEB410F15D223F0004352EA430616
:102AF0000BD04FEA4C0CBCEB410F04D80C0D661EFA
:102B0000342EB7DDEBE7801A994150EA410608BF41
:102B10000021E4E708BF1CEB430F28BF6FF0000162
:102B2000DDE7000078B5040085B045D004F52A75CE
:102B3000687820B900212970204600F0C9FC0320E4
:102B40006870206800F0AEFD83B000F048F80EBC5D
:102B5000206800F09DFD00282CD12068002100F0A5
:102B6000A7FD0021282000260AE000FB01F22244F4
:102B70002832012353701170D181002300F028F80E
:102B800062689142F1D3002109E000FB01F2224486
:102B900002F5B47200231170537000F019F86268E6
:102BA0009142F2D383B000F01AF80EBC206800F016
:102BB00081FD18B102206870012007E084F824002C
:102BC00001216970206801F054F9002006B070BD41
:102BD000491CD670136156619361C9B27047211DBB
:102BE00068462022FFF7E8BB10B500F0D1F801D10C
:102BF000022010BD00F0C8F8206800F04BFDB9E0DD
:102C000010B500F0C5F801D1022010BD00F0BCF8ED
:102C1000206800F047FD00F004F8206801F029F971
:102C2000AEE00021204600F028BD7FB5044600F04C
:102C30009EF8000444BF204600F07BF900F097F8AE
:102C400040050CD500F08FF84FF6FF3000F087F804
:102C5000204600F074FC0021204600F09EF800F0B1
:102C600086F8400405D500F07EF84BF6FF7000F0C2
:102C700076F800F07CF8800405D500F074F84DF685
:102C8000FF7000F06CF800F072F8C00417D52168EE
:102C9000B1F840204FF6FB700240A1F840204FF6FB
:102CA000F770B1F840200240A1F84020204600F023
:102CB00066FC00F058F84EF6FF7000F050F800F097
:102CC00056F8000533D52168002031F820302DF862
:102CD0001030401C0828F8D301F140034FF6FE7075
:102CE0001D8845F001051D801E8806401E809D88B8
:102CF0006805FCD54FF6FF309D8805409D8000207B
:102D00003DF8105021F82050401C0828F8D31888AE
:102D100040F0080018804FF2FF70998801409980B8
:102D200020461A8842F004021A8000F01AFC00F0D3
:102D30001EF8800508D500F016F84FF6FF5000F099
:102D40000EF8204600F0F7FB00F011F8C00505D59D
:102D500000F009F84FF6FF6000F001F87FBD024077
:102D6000A1F8442070472168B1F8442070472068DA
:102D700001F081B80121FFF755FF206801F077F8D5
:102D8000002084F8A80210BD012084F8A802704732
:102D9000044694F8A8020128704710B5FFF7F8FF21
:102DA00001D1022010BDFFF7EFFF84F82410206846
:102DB00001F057F8E4E738B5054601F0070428208C
:102DC000444328190C0647BF00F12804012000F5F0
:102DD000B474002001F00701607021702261E3707B
:102DE000607808B12178E181022B04BF00202071B6
:102DF00095F8A802012801D1022032BD012085F8F2
:102E0000A8022146286800F061FC5AE038B501F0BC
:102E1000070528246543441904F5B47401F007013B
:102E20006261A3610022E26162702170214614E0B8
:102E300038B51C4601F0070528235D4343192833A4
:102E40005A619C611C620122002401F0070183F891
:102E50002420DC615A7019701946006800F04AFDA0
:102E6000002032BD38B505460C46696804F00700FD
:102E7000814201D2012032BD2821220605D54843D6
:102E8000284400F12801012004E06143681800F59E
:102E9000B4710020487001228A7004F007040C709D
:102EA00095F8A802012801D1022032BD85F8A82298
:102EB000286800F080FF24B9286805F52C7100F01F
:102EC000DDFF002085F8A80232BD10B5044601F0F0
:102ED0000F036068984201D2012010BD00F019F87C
:102EE0000023837000F00EF801D1022010BD00F025
:102EF00003F800F079FF43E7012284F8A822014695
:102F00002068704701F00701017094F8A8120129A8
:102F1000704701F0070228204243A0180A0603D593
:102F2000283001234370704700F5B47000224270CE
:102F300070472DE9F84F00F5B47500F124060746F7
:102F400027E0018848F60F72114041F400410180EA
:102F50003868B0F85010327901EBC20100EB410043
:102F600000F204400088B269C0F3090030620244F4
:102F7000B2610021384600F0D5FA32784AB1F069E2
:102F800038B93178386841F08001A0F84C10002140
:102F90003170386800F144010A88130440F11A8145
:102FA0000A8812F00F0A62D1D206CAD50288130528
:102FB00011D5898900F017F9EA88C3F30903EB6199
:102FC00007F52C7100F073FF386800F015F93846EA
:102FD00000F098FADDE71104DBD500F00DF9386850
:102FE000B0F8501000F0FFF8C3F30903002BEB61B9
:102FF0001CBF696900290AD0EA8800F058FF686997
:10300000E969014469613846002100F081FA3968B4
:10301000B1F850004118286901F20C4148B90888FC
:1030200048F2FF32104008800B8843F400430B80C5
:1030300010E03F2805D24208C00748BF521C90024A
:1030400007E0420910F01F0F08BF521E900240F423
:1030500000400880386801884BF68F72114081F477
:10306000405141F4004141F08001018091E730F886
:103070002A80282101FB0AF15FEA084207EB0109D7
:103080006BD530F82A1040F68F72114041F0800164
:1030900020F82A1009F5B474207B78B93868B0F8A4
:1030A0005010227801EBC20100EB410303F20C4304
:1030B000198800F093F83CD0E28836E0E0780228E6
:1030C00006D142462146384600F09EF8834630E05D
:1030D0003868217830F8212048F68F731A4042F47E
:1030E000004242F0C00220F82120217838680B46C7
:1030F00030F8232053040CD5B0F8502002EBC10166
:1031000000EB410202F2044200F067F811D022897C
:103110000BE0B0F8503003EBC10300EB430202F2C6
:103120000C4200F05AF804D062895B46616900F0F5
:10313000BEFEE0695844E06162695A446261A06978
:1031400010B12069834504D22178384600F0E0F9B7
:1031500003E03868214600F0CDFB5FEA086029D51E
:10316000386830F82A2048F60F731A4042F40042BB
:1031700009F1280120F82A20C878022802D15FEA44
:10318000C85022D438680A78B0F8503003EBC20334
:1031900000EB430000F2044003888869C3F309038D
:1031A000834234BFC01A0020886120B911463846D6
:1031B00000F0B8F9EDE64869CA69184448619B18FF
:1031C000CB61386800F096FBE3E64246384600F0F3
:1031D00077F8DEE60020BDE8F28F1188C1F3090B15
:1031E000BBF1000F70472A7801EBC20100EB4103ED
:1031F00003F20C431B887047018840F68F72114020
:1032000041F08001018070472DE9F041006891F89C
:1032100000808B69B0F85050540405EBC80448F2A4
:10322000C00648F68F7748F2800C4BF68F7E00EB95
:10323000440518D505F204452C88C4F30904A342BB
:103240002CBF1B1B00238B612BB930F828300EEAF2
:10325000030300F026F8520601D500F029F8ECB17E
:1032600023460A8917E005F20C452C88C4F30904AB
:10327000A3422CBF1B1B00238B612BB930F82830D5
:103280000EEA030300F00DF8520601D400F010F826
:1032900024B123464A89496900F009FE2046BDE869
:1032A000F08183F400534CEA030320F82830704780
:1032B0000A7830F822301F403E4320F822607047E1
:1032C0002DE9F8430D46044616462978A869226878
:1032D00073064CF2800748F68F7867D5B2F85090A5
:1032E00009EBC10302EB430C0CF2044CBCF80030B8
:1032F000C3F30903834234BFC01A0020A86128B970
:10330000204600F00FF9700470D566E0700401D516
:1033100000F0C2F895F82400012867D100F0CDF83C
:1033200003D31346C01A286208E010B985F82400B8
:1033300004E0002285F8242003462A62687828BB2E
:103340002268B2F850008218287802EB001202F2CC
:1033500004424BB9168848F2FF30064016801788A1
:1033600047F4004717801DE03F2B05D25808DE07C1
:1033700048BF401C800207E0580913F01F0F08BF28
:10338000401E800240F4004010800BE0012809D16B
:103390002068B0F8502010182A7800EB021000F2D4
:1033A000044003802A8920689BB261E0B2F850E0B3
:1033B0000EEBC10302EB430C0CF20C4CBCF80030DA
:1033C000C3F3090398422CBFC01A0020A86170B94A
:1033D000204600F0A7F870044CD42168287831F812
:1033E000202008EA0202174321F8207042E070040E
:1033F00001D400F051F895F8240001283AD100F0EA
:103400005CF803D31346C01A286208E010B985F8A7
:10341000240004E0002203462A6285F8242026685E
:103420006878E8B900F040F843B9178848F2FF30EF
:1034300007401780108840F400400FE03F2B05D272
:103440005808DF0748BF401C800207E0580913F006
:103450001F0F08BF401E800240F40040108004E0AF
:10346000012802D100F020F813809BB26A8930460F
:1034700000F00BFD2268297832F8213048F6BF7041
:10348000034083F0300343F4004343F0800322F809
:1034900021300020BDE8F28332F8210008EA000064
:1034A000074322F821707047B6F850008219287837
:1034B00002EB001202F20C427047EA6968699A183E
:1034C000EA61C1182A69286A696190427047000060
:1034D00000686449884200D0704780B5624802683D
:1034E00042F4000202600022006800F40000009034
:1034F00000210098142000F009FDBDE802401420CE
:1035000000F021BD00F52C71D0F8E80200F085BD77
:103510000B4628225343C218D0F8E802D2F87C2187
:1035200000F0A5BD0B4628225343C218D0F8E8028C
:10353000D26B00F0DDBDD0F8E80200F06DBE10B532
:103540000446A068022818BF00F0CAFED4F8E802BA
:10355000012100F04DFED4F8E802BDE8104000F073
:103560001EBE10B50446D4F8E80200F044FEA0697F
:1035700020B13E48016841F00601016010BDD0F85D
:10358000E80200F040BE10B5044639483549C0F89D
:10359000E842C4F8C0020160082202230021426010
:1035A00083608161C1610162FFF7BCFA08B100F07C
:1035B00097FED4F8C00218230022002100F092FEEA
:1035C000D4F8C00258230022802100F08BFE002096
:1035D00010BD80B5D0F8C002FFF706FBBDE8024081
:1035E0004CE080B5D0F8C002FFF70AFBF6E710B553
:1035F0001C461346D0F8C0022246FFF7DCFBBDE8AC
:1036000010403BE080B5D0F8C002FFF72BFCE5E7A7
:1036100080B5D0F8C002FFF758FCDFE7D0F8C02231
:1036200001F07F0328204343D018090602D590F803
:103630002A00704790F86A01704780B5D0F8C00240
:10364000FFF7ABFBCAE780B5D0F8C002FFF7F0FB8D
:10365000C4E780B5D0F8C002FFF7D8FBBEE7054845
:1036600070470000005C00401C10024010ED00E0BC
:1036700038060020180200207047704701460020DD
:1036800021B1022901D101207047022070470000BA
:103690000EB417E04030002181804FF43F42028099
:1036A00000207047B0F8402044F2FF0100F0E8BB72
:1036B000002070470EB4012120F8401F0022028034
:1036C00082800282002003B0704700002DE9F0479D
:1036D0000B4602461C7832F82460DD7848F68F11DC
:1036E00000200E40032D0CD8DFE805F002080C0581
:1036F00046F4007606E046F4C06603E046F48066D1
:1037000000E0012048F280052E4322F8246048F6AC
:103710008F7619780C4632F82470374039432943A4
:1037200022F824104BF68F78197B93F800A000291B
:103730004CF2800C48F6BF7748F2C0095BD1D988BB
:103740004FF6FE740C4059780029B2F8501011D091
:10375000891801EB0A1101F580610C8000F0BCF8BA
:10376000DB78012B32F8213000F081801F4087F098
:1037700020077DE0891801EB0A1101F581610C80B9
:10378000B2F850108C18197804EB011E19690EF26A
:103790000C4E69B9BEF8004048F2FF310C40AEF85B
:1037A0000040BEF8007047F40047AEF8007011E02A
:1037B0003F2905D24C08C90748BF641CA10207E095
:1037C0004C0911F01F0F08BF641EA10241F4004113
:1037D000AEF80010197832F82140640406D532F8AA
:1037E000214026404CEA060622F8216000F06EF8DF
:1037F00083F440535BE032F82A10314041F4014138
:1038000041F0800122F82A10B2F850401978B3F83C
:1038100008A0A41804EB011404F580644FF6FE71AF
:1038200001EA0A012180B2F850101C78891801EBD6
:10383000041101F5816E59894FF6FE742140AEF8EE
:10384000001059781C78002932F8241012D100F0A9
:1038500033F800F041F832F8214008EA040484F417
:1038600040542C4322F82140197832F821301F406F
:103870003D431DE000F020F8197832F8214064063D
:1038800006D532F82140264049EA060622F8216092
:10389000DC781978012C32F821401ABF274087F0D4
:1038A000200727402F4322F8217000F00FF81D4316
:1038B00022F82150BDE8F087490406D532F82410DB
:1038C00031404CEA010122F824107047197832F88F
:1038D000213008EA03037047197832F82140640662
:1038E00006D532F82140264049EA060622F8216032
:1038F000197870472DE9F0470E4605467178307B00
:10390000012948F2C00848F2800948F68F7A40F051
:103910000D813269B16914468C4288BF0C4628B9C2
:10392000F28800F044FA00F028FAF6E0F3783078F4
:10393000022B014640F0C980336A9A4280F0B2807F
:1039400035F821000AEA000040F4014040F0800010
:1039500025F821001B1B7178336263093278964683
:1039600035F82E707F0604F001004FEA540C4CD558
:10397000A9B900F0E4F901F20C4114B900F0D5F94D
:1039800018E03F2C02D200F0B6F906E014F01F0F49
:1039900008BF5B1E980240F4004008800AE001293D
:1039A00008D1B5F85000284400EB021E0EF20C4E70
:1039B000AEF80040728900F0FAF900F0F1F932BF78
:1039C000001B0446002030627078B8B900F0CCF9D2
:1039D00014B900F0A0F915E03F2C05D26008E20709
:1039E00048BF401C800207E0600914F01F0F08BFA9
:1039F000401E800240F40040388003E0012801D1DD
:103A000000F0BBF9A3B232895BE0A9B900F097F9E5
:103A100001F2044114B900F088F917E03F2C02D2FA
:103A200000F069F906E014F01F0F08BF5B1E980252
:103A300040F40040088009E0012907D1B5F85000A2
:103A4000401900EB021000F204400480328900F0BB
:103A5000AEF900F0A5F932BF001B04460020306229
:103A60007078B8B900F093F914B900F054F916E081
:103A70003F2C05D26008E20748BF401C800207E0E7
:103A8000600914F01F0F08BF401E800240F4004080
:103A9000388004E0012802D100F079F93C80A3B21B
:103AA00072890EE035F8212048F68F60024049EA1D
:103AB000020225F8212000F057F93B803289716914
:103AC0009BB2284600F0E1F927E035F821104A06BC
:103AD000B5F8501007D54F1907EB001707F20C4740
:103AE0003C80728906E04F1907EB001707F2044784
:103AF0003C80328900F05BF9707820B900F025F93C
:103B000048EA010107E0012807D100F01EF941F45D
:103B1000404141F0800125F82010317835F821200E
:103B200048F6BF70024082F0300216E000282DD126
:103B3000B1693069884232BF091A08460021B16173
:103B400000F009F980B900F0DCF84BF68F7031789D
:103B500035F82120024082F4405249EA020025F85B
:103B600021000020BDE8F0873F2806D24108C007A9
:103B700048BF491C88023880E7E7410910F01F0F51
:103B800008BF491E880240F40040F4E7F07802289C
:103B90005ED1E9B9B5F850103078491901EB001140
:103BA000306901F2044110B900F0BFF810E03F287D
:103BB00005D24208C00748BF521C900207E04209E4
:103BC00010F01F0F08BF521E900240F40040088002
:103BD0007078F0B9B5F850004719307807EB001746
:103BE000306907F20C4710B900F08BF819E03F2854
:103BF00005D24108C00748BF491C880207E04109B7
:103C000010F01F0F08BF491E880240F400403880A2
:103C100007E0012805D1B5F85000316900F0B9F886
:103C20003980F069002890D0307835F8201044F2BF
:103C3000400202EA0103934218BF114285D135F8D0
:103C400020100AEA010148EA010125F820107CE76A
:103C500001284ED1B2693069904232BF121A104623
:103C60000022B261430900F00102440819BBB5F813
:103C700050C03178AC440CEB011C0CF2044C48B938
:103C8000BCF8007048F2FF313940ACF80010BCF8C5
:103C900000100CE03F2804D2214602B1491C8902E1
:103CA00007E0194610F01F0F08BF491E890241F4B2
:103CB0000041ACF800107178B1B9B5F850104F1947
:103CC000317807EB0117002807F20C473FF43BAFB0
:103CD0003F2803D202B1641CA0024CE710F01F0F72
:103CE00008BF5B1E98024EE70129B0D100F033F8FF
:103CF00041E7012036E708B10CF1010C4FEA8C20B6
:103D00007047398848F2FF30014039803A8842F4E0
:103D100000423A8070473A8848F2FF3002403A80C9
:103D20003B8843F400433B8070470A8848F2FF30E9
:103D300002400A800B8843F400430B807047B5F8BB
:103D40005010491901EB02117047307835F82010F6
:103D50000AEA01017047B5F850104F19317807EBA6
:103D6000011707F20C477047B5F850004719307833
:103D700007EB001707F204477047B5F850004719E2
:103D8000307807EB001707F204473C807047B5F81E
:103D900050004719307807EB001707F20C477047BF
:103DA000326970690119306A7161824270477169C4
:103DB000A3B2284669E010B50A78497830F8224065
:103DC000002948F2800305D048F6BF710C4084F00A
:103DD000100404E04BF68F710C4084F480542343AC
:103DE00020F82230002010BD30B50A7B002A36D1E1
:103DF0004A780C78002A30F8242048F2800348F6EC
:103E00008F7516D0520608D530F82420154045F499
:103E1000004545F0C00520F82450CA78012A1ED07C
:103E20000A7830F8224048F6BF710C4084F0200434
:103E300012E0520408D530F82420154045F44045DE
:103E400045F0800520F824500A7830F822404BF6DF
:103E50008F710C4084F44054234320F8223000201A
:103E600030BD11B98021A0F84C100020704700200F
:103E7000704700207047B0F844007047002070473A
:103E80000A40A0F840200020704710B500EB420027
:103E90005B1C00F580605B0807E00A784C7842EA1A
:103EA0000422891C20F8042B5B1EF6D110BD10B52E
:103EB00000EB420000F580605A0806E030F8044B41
:103EC0000C70240A4C70891C521EF7D1DA0744BFCB
:103ED0000088087010BD00000901020002D42948C2
:103EE00081547047284B02F00F021A4402F8041C58
:103EF0007047264B19684FF6FF020002114000F48C
:103F0000E0600843224908431860704738B51F4BEA
:103F10001C68C4F30223C3F10704052C28BF042442
:103F20001D1D072D34BF0023DB1E012505FA04F4F7
:103F3000641E2140994005FA03F35B1E1A401143A9
:103F4000BDE83440C8E7010007D4012200F01F019A
:103F5000104B8A40400943F82020704710B5401E9E
:103F6000B0F1807F01D3012010BD0B4C60600F21A8
:103F70004FF0FF30FFF7B0FF0021A1600720206065
:103F8000002010BD00E400E018ED00E00CED00E0C2
:103F90000000FA0500E100E010E000E000F0C2B926
:103FA00038B508B9022032BD00F52774A3690BB1FA
:103FB0000025A56101B16161012121700270FFF747
:103FC000E2FA002032BD0246002011B1C2F8B4125C
:103FD00070470220704780B5FFF7FBFA002002BD52
:103FE00010B50446D4F8B42261685368C9B2984742
:103FF0002046FFF7F6FA002010BD10B5D0F8B42225
:1040000002241AB11268904700B90024204610BD5E
:1040100080B5D0F8B42253680AE138B5044604F5F7
:104020002A75284600F0C7FB04F5257001210160C0
:10403000428B017D426011F01F0003D002280BD09B
:1040400005D30EE02946204600F0BEF90DE02946D2
:10405000204600F063FA08E02946204600F085FA81
:1040600003E001F0800100F040F8002032BD38B5D7
:10407000044610460A0004F5257329D1196803295E
:104080001ED104F5B0714A680D68AA420BD2AD1A70
:104090000D60954238BF2A46014692B2204600F094
:1040A000E6FB002032BD196A086928B1187A032896
:1040B00002D1096920468847204600F0E0FBF0E77E
:1040C0000529EED100201860002100F00EF8E8E785
:1040D0001A6A906930B1187A032803D19269204690
:1040E0009047DEE7022032BD80212046FFF78ABAE2
:1040F00038B504460800134604F5257543D12868F1
:10410000022833D1226A616A914207D2521A22628E
:10411000194692B2204600F098FB11E0E269B2FB2A
:10412000F1F001FB102090B98A4210D368688242F6
:104130000DD200220021204600F087FB002068609D
:104140000023002200212046FFF783FA14E0296AA9
:10415000C86828B1287A032802D1C9682046884750
:10416000FFF7C2FF204600F091FB05E0042818BFCE
:10417000002801D1FFF7B8FF287B012804BF0021E8
:104180002973002032BD2A6A506930B1287A032889
:1041900003D1526920469047F3E7022032BD38B57B
:1041A0000446402300220021FFF721FA04F5AC70F9
:1041B000012140220160C26040230022802120466C
:1041C000FFF715FA0120402104F52572A061616214
:1041D00010720021116061600025506A156128B1DC
:1041E000126A61685368C9B220469847002032BD00
:1041F00001740020704700F5277004220178417097
:1042000002700020704700F527700178042904BF70
:10421000417801700020704780B500F527710A7859
:10422000032A03D18969C96901B18847002002BD09
:104230009847002002BD80B500F040FB00F048FB2D
:1042400000F00FF800F056FB00F090FB00F0AEFB22
:1042500000F03AFC00F062FC00F024FB00F01EFBD2
:10426000FCE700B595B00BA8282100F0B5FC684626
:10427000142100F0B1FC05A8182100F0ADFC4FF4AA
:10428000803100220C910D92139101200B900F9020
:1042900002224FF4E011129214910BA800F0A0FC3E
:1042A00008B100F01DF8022101910F204FF4806148
:1042B000009000220391029204920221684600F0CD
:1042C0001FFE08B100F00CF81021002205910A929F
:1042D00005A800F0EBFE08B100F002F815B000BD33
:1042E00072B6FEE730B528240D0605D501F00701AA
:1042F00061430844283003E06143084400F5B4708A
:104300001AB900210173C38004E0038101211B0C51
:1043100001734381002030BD704700F0A9BF01F058
:1043200034B9704780B522480168491CB1F57A7FDD
:1043300003D14268521C00214260016001F069F91A
:10434000BDE8014001F06CB901F04EB910B5194C4F
:10435000194941F288334FF47A72204601F022F96C
:10436000204601F027F900233222144904F11000FD
:1043700001F018F904F1100001F01CF905234FF4C5
:104380007A720F4904F1200001F00CF904F12000C9
:1043900001F010F932234FF47A720A4904F1300027
:1043A00001F000F904F13000BDE8104001F002B95D
:1043B0007C15002098140020194302081B430208B2
:1043C0001F43020823430208F8B500F0C8F804F5BB
:1043D000277608D0202818BF402850D1B2699368AA
:1043E0002046984795E06878092848D8DFE800F02B
:1043F0006E864780470905475C25204600F04AF94C
:1044000087E0A888002804BFE888002837D16F8893
:10441000802F34D23078032807F07F072FD0B77071
:1044200039462046FFF709F900F030F9002F07BFA1
:1044300001213170022030706BE0374F688838708E
:10444000397802291BDA3378022B08461AD0032B5D
:1044500023D131B90220307061602046FFF7D8FDCA
:1044600055E06168884252D0C9B22046FFF7D0FDBE
:10447000397861602046FFF7C0FD022847D100F07F
:1044800097F946E0002942D0606003203070204652
:10449000FFF7B3FD0228F2D039E000F089F939784E
:1044A0002046FFF7B5FD34E0E8880128E7D13178F0
:1044B000491E012904D9891EE1D10122211D13E0E1
:1044C0000020A060012204F108010DE03078401EB8
:1044D0000228D4D8EA88022AD1D1B068012100B1DB
:1044E0000321E16004F10C01204600F0A6F910E080
:1044F000688801280DD10121B16008E03078401EA4
:104500000228BCD86A88012A03D10020B06000F0DC
:10451000BDF80020F2BD0000AE15002038B500F057
:104520001EF81CBF2028402815D104F527721078EA
:10453000401E02280FD82B79022B0CDA926993685F
:10454000204698470146E888002808BF002904D182
:1045500000F09CF801E000F02CF9002032BD0D467F
:104560000446287810F060007047F8B50446084605
:1045700004F527730278017912F0600509D0202D27
:1045800018BF402D69D19A69936801462046984723
:1045900066E002F06002202A06D19A69936801461B
:1045A0002046BDE8F440184742788AB3012A12D069
:1045B000032A52D11B78022B13D0032B4DD14288F2
:1045C0001ABB002918BF80291FD0C088E8B920462F
:1045D000FFF718F819E01A78022A02D0032A0CD043
:1045E0003BE0002918BF802937D02046FFF70AF8A2
:1045F00080212046FFF706F832E0408880BB11F0AA
:104600007F0F1CBF2046FFF703F800F03FF827E0BC
:10461000142201F07F051B7855436619022B06F51D
:10462000AA7502D0032B10D017E0002918BF8029EB
:1046300013D1080648BF06F11405002028600222A5
:104640002946204600F0F9F80AE001F00F035A432A
:104650000F06224406D5926972B9014600F0A9F806
:104660000020F2BDD2F85821002AF6D0002918BF48
:10467000802904D10020E1E706F11405F6E7204681
:10468000FEF7CCFF0028D9D00120D7E7204600F064
:10469000F6B8000038B504460D460020ADF800001D
:1046A00004F52C726988080A012808D0022823D052
:1046B00003282ED0062868D007286DD075E0126830
:1046C000207C136869469847BDF8001079B1E988E5
:1046D00079B1BDF80010EA88914288BF1146ADF863
:1046E00000100146BDF80020204600F0A6F8E8883A
:1046F00008B9FFF7CBFF31BD207C51680028684620
:1047000004D1896A884702224270DDE7C96A884776
:10471000F9E7C8B2052830D8DFE800F0030B131A18
:10472000212810684268002A3FD0207C69469047C3
:10473000CAE710688268002A37D0207C6946904713
:10474000C2E71068C26882B3207C69469047BBE725
:10475000106802694AB3207C69469047B4E7106844
:10476000426912B3207C69469047ADE710688269C0
:10477000DAB1207C69469047A6E75068836BA3B105
:104780006A46C9B2204698479EE7207C68B95168BE
:104790004A6B6846904797E7207C30B951680A6BAE
:1047A00068469047072141708EE700F001F831BD5F
:1047B0002946204613E00A7802704B7843708A78C5
:1047C000CB7802EB032242804B790A7902EB032279
:1047D00082808A79C97902EB0122C280704710B5C4
:1047E00004468021FEF70EFF2046BDE81040002160
:1047F000FEF708BF00280B4600D1704770B5014690
:10480000002400E0641C11F8015B002DFAD124069D
:10481000E40DA41C14801178197003225A7002222E
:1048200007E010F8011BD4B2521C1955D6B2521C25
:104830009D5501780029F4D170BD80B51346022240
:10484000C0F89422C361036201E080B513460A46B2
:104850000021FEF7F8FE002002BD80B513460322BA
:10486000C0F8942200F5AE721360536001E080B589
:1048700013460A460021FEF7ECFE002002BD80B57B
:104880000421C0F8941200230022E1E780B505213D
:10489000C0F8941200230022ECE7000080B5FFF777
:1048A00053FDFCE780B5074800F0C8FE00F058FF54
:1048B00000F0DEFFBDE80140FFF748BD02490348B4
:1048C00008607047BC9D020808ED00E00000020887
:1048D00080B50748016841F0100101600320FFF72F
:1048E00008FB002000F0C6FF00F0E4FF002002BD3E
:1048F0000020024018B585B001A8102100F06CF925
:104900001848046844F0100404600168164C01F073
:10491000100100910099026842F0080202600368E9
:1049200003F0080300930099026842F00402026059
:104930000022006800F0040000904FF480510098BD
:10494000204601F0A3F84FF4805101910122029218
:10495000002103910222049201A9204600F0CCFF1D
:1049600006B010BD18100240000C014080B50E4882
:10497000016841F0010101600022006800F00100BF
:104980000090002100980E20FFF7C0FA0E20FFF7DC
:10499000DAFA002200210F20FFF7B8FABDE8024042
:1049A0000F20FFF7D0BA00BF1410024080B5404876
:1049B000404901604FF4E13200230C2142608360E2
:1049C000C360036141618361C36101F081F818B183
:1049D000BDE80140FFF784BC01BD78B585B0044651
:1049E00001A8102100F0F8F82568324EB5425CD1DC
:1049F0003148324D0168324E41F480410160026815
:104A000002F4804200920099026842F004020260BF
:104A10004FF40071006800F004000090022200983A
:104A20000191029203210491284601A900F064FF3C
:104A30004FF480600021019002910391284601A962
:104A400000F05AFF1F4D05F1140030600021802056
:104A5000F0607160B16031617161B161F1613046E6
:104A600001F00AFB08B1FFF73BFC10200021666350
:104A7000B064F164802030657165B165F1653166BF
:104A80007462756406F1440001F0F6FA08B1FFF7AC
:104A900027FC06F144002063B46600220021252093
:104AA000FFF734FA2520FFF74EFA06B070BD00007C
:104AB000D8140020003801401810024000080140BE
:104AC000681300204400024010B5104C1049002229
:104AD0002046FFF765FA08B1FFF702FC0D492046B2
:104AE000FFF771FA08B1FFF7FBFB0B49204601F015
:104AF000B1FE08B1FFF7F4FB2046FFF76CFA18B1DE
:104B0000BDE81040FFF7ECBB10BD00BF240900203A
:104B1000C0000020100100207401002080B52A4848
:104B20002A4901604FF4827242600121022202612F
:104B3000416100234FF400720A218360C3608261E7
:104B4000C361036243628362C16201F03DFF18B139
:104B5000BDE80140FFF7C4BB01BD30B585B00446D8
:104B600001A8102100F038F82468184DAC4228D173
:104B70001748184C416841F480414160416801F494
:104B8000804100910099026842F0080202604FF4EF
:104B90002041006800F00800009002220098019176
:104BA000029203210491204601A900F0A5FE4FF4D2
:104BB00080400021019002910391204601A900F05C
:104BC0009BFE05B030BD0000F0130020003800400F
:104BD00018100240000C0140002202F02BBA000025
:104BE0002DE9F843040016D02078DFF87C64C10773
:104BF00013D5706800F00C00042807D0706800F02E
:104C00000C00082840D17068C1033DD5306881038D
:104C100003D56068002800F0F4802078DFF858742D
:104C2000810719D5706810F00C0F07D0706800F07C
:104C30000C00082860D17068C1035DD4306881071A
:104C400003D52069012840F0DC803168606921F0DB
:104C5000F80141EAC00131602178080770D5A069E8
:104C6000DFF81814002865D001220A6002F0FCF970
:104C70000546706A810700F1C68002F0F5F9401B15
:104C80000228F6D9032035E16068B0F5803F04D1F1
:104C9000306840F48030306014E008B930680AE0D1
:104CA000B0F5A02F306806D140F480203060316824
:104CB00041F4803105E020F480303060316821F427
:104CC00080213160606858B102F0CEF90546306845
:104CD0008103A2D402F0C8F9401B6528F7D3D1E7BD
:104CE00002F0C2F905463068810396D502F0BCF99E
:104CF000401B6528F7D3C5E7206970B101213960F1
:104D000002F0B2F905463068810700F1B68002F082
:104D1000ABF9401B0228F6D9B4E7386002F0A4F9D9
:104D200005463168880797D502F09EF9401B022896
:104D3000F7D9A7E7086002F097F90546706A81077E
:104D400070D502F091F9401B0228F7D99AE708B90B
:104D5000306A09E00528306A06D140F0040030626C
:104D6000306A40F0010005E0400840003062306ADF
:104D700020F00400306241F28938E06868B102F046
:104D800073F98146306A810700F1848002F06CF982
:104D9000A0EB09004045F5D374E702F065F98146C0
:104DA000306A810776D502F05FF9A0EB0900404533
:104DB000F6D367E702F058F9401B02287BD961E778
:104DC00002F052F9001B022840F28F805AE700F0EF
:104DD00093F804463068810140F18B8002F044F979
:104DE000001B0228F6D94DE701280AD07068226A14
:104DF00000F48031914202BF00F47010616A884271
:104E000077D0012076E0DFF864020168C9084FF42A
:104E10007A72B1FBF2F2009200BF0098411E0028A6
:104E20000091F9D12078410739D5F0690025C100FA
:104E300009D4F06940F08050F0610125F06900F07C
:104E4000805000900098DFF83882D8F80000C10543
:104E50001BD4D8F8000040F48070C8F8000002F0BD
:104E600003F98146D8F80000C1050ED402F0FCF821
:104E7000A0EB09006528F5D304E73068616920F0EC
:104E8000F80040EAC1003060E6E6E06801287FF4FF
:104E90005EAF65E71DB1F06920F08050F061E06918
:104EA00038B3716801F00C0108299DD002288ED119
:104EB00000F022F80546306881013FF57BAF206A9B
:104EC000B0F5803F05D17168A06821F4003101433D
:104ED00071607268206A616A22F4741202430A43A4
:104EE0007260012000F009F80446306881017FF506
:104EF00067AF0020BDE8F2830020386602F0B4B846
:104F00002DE9F0410400884672D05E4E00F077F83B
:104F100002D200F06FF86BD12068534D810712D593
:104F2000400703D5696841F4E061696020780107B2
:104F300003D5686840F4605068606968A06821F033
:104F4000F001014369602178C80749D560680128EC
:104F500002D129688A0303E00228296802D18A0164
:104F600002D445E08A0743D56968890840EA810090
:104F7000686002F079F807466868616800F00C0024
:104F8000B0EB810F2CD002F06FF8C01B41F28931D9
:104F90008842F1D3032021E02078410705D56A68D3
:104FA000E06822F4E06202436A602178080706D5CF
:104FB0006968206921F4605141EAC001696000F02C
:104FC00023F86A683049294BC2F30312895CC84050
:104FD00018602848006800F04DFC0020BDE8F08112
:104FE000306800F007008045D6D200F003F8D3D037
:104FF0000120F3E73168C90848EAC101316030682F
:1050000000F0070040457047204919480A6802F03F
:105010000C03082B00D0704710B500BF1EA4C2F3CC
:105020008343D203E35C08D5096858431EA3C1F348
:1050300040415A5CB0FBF2F010BD18461449484399
:1050400010BD0A48114A006813681249C3F30222CE
:1050500006E006480D4A006813680E49C3F3C222F1
:10506000895CC8407047000000100240BC0000206E
:1050700000127A00B8000020000042428004424240
:105080000070004000200240589E020804100240B8
:1050900000093D00849E0208020304050607080972
:1050A0000A0B0C0D0E0F1010010200002DE9FC413F
:1050B0000646354D3078C10750D5A8690024C10097
:1050C00009D4A86940F08050A8610124A86900F0C3
:1050D0008050009000982D4F3868C10519D4386869
:1050E00040F48070386001F0BFFF80463868C10529
:1050F0000FD401F0B9FFA0EB08006528F6D3032018
:105100003FE001F0B1FFC01B41F28931884217D363
:10511000F5E7E86910F440701EBF716801F4407152
:10512000884210D01A49E86901220A60002320F45D
:1051300040700B60E861C00705D501F095FF074698
:10514000E8698107DDD5EA69706822F4407202439C
:10515000EA611CB1A86920F08050A861307881070D
:1051600005D52A68B06822F4404202432A603178AB
:10517000C80605D52968706921F4800101432960BA
:105180000020BDE8F68100000410024000700040DD
:105190004004424238B504460FF2781064A500F08E
:1051A0004DFA0121284600F04FFB01200090A0237A
:1051B000002221464FEA050000F024FBBDE8324002
:1051C0005DA000F03BBA00001CB500BF0FF2441018
:1051D00057A400F033FA0121204600F035FB47497F
:1051E0004748C1F8880001220092A02300222046EF
:1051F00000F008FBBDE81640424800F01FBA00006E
:105200002DE9F04105000C4618BF002C16462CD0A5
:10521000304600F024FBA04227D3402267A1DFF8EC
:10522000DC80304601F026FF08F1400778B94022C3
:105230002946404601F032FF3C6000213248B86404
:10524000F9644046FFF7A6FF0120BDE8F081402247
:105250005DA1304601F00EFF38B94022294608F121
:10526000440001F01BFF7C64EBE70020EDE7000049
:1052700070B5224C2EA0A0230022214600F0D1FAC6
:10528000002844BF0FF2CC0000F0D8F9002004F150
:10529000400584F83F00AB6C2A681C48214600F0AA
:1052A000CDF9A86C1849884203D01949884203D027
:1052B00006E000BF33A000E02DA000F0BFF913E02E
:1052C0000FF2D80039A600F0B9F940223146204645
:1052D00001F0E4FE4022314604F1440001F0DEFE1C
:1052E0004FF4842068642860A96C0948814204D086
:1052F000A8642046BDE870404CE770BDC81200208D
:105300005555AD00149D02086666AD00AC9C0208C0
:105310008888AD00657261736520666C6167207076
:105320006172746974696F6E202E2E2E0D0A000052
:10533000666C616700000000777269746520666CB6
:10534000616720706172746974696F6E206F6B2E73
:105350000D0A0000676574206672696D7761726579
:1053600020696E666F206661696C642E0D0A00000C
:10537000417070204672696D77617265204F6B2EA7
:105380000D0A0000557064617465204672696D777E
:10539000617265204F6B2E0D0A000000556E6B6E1A
:1053A0006F7720666C61672E0D0A0000466163749A
:1053B0006F72795F4150502E62696E00646F776E34
:1053C0006C6F616400000000666163746F72790045
:1053D00038B5044660688047E17811F0070F02D0C5
:1053E0002188491C2180E178B0EBD11F10D001F059
:1053F000C705C908491CC90001F038012943C1F398
:10540000C202032AE17006DB01F07F0141EAC0110C
:1054100001F0C701E170E07800F00701052923D809
:10542000DFE801F003234177A58BC209800900F072
:1054300001008242A07800F00F0012D1A168A07094
:1054400009B12046884700202080A178E07801F04B
:10545000F00141F0010100F0F800A17040F00100FE
:1054600084E040F08000A07031BD00F088F807D0E3
:1054700000F07EF80029A07057D02046884754E0FD
:105480002088C92873DBA078E16900F00F0040F0A4
:105490005000A07009B120468847E07800F0F8007D
:1054A00040F0050062E000F06AF81CD1A078A16825
:1054B00000F00F00A07009B120468847A07800F0E6
:1054C000F001401C00F00F0008432169A07009B1F1
:1054D0002046884700202080E17801F0F80141F063
:1054E0000301E17031BD20883C2840DDA07800F048
:1054F0000F01012905D100F00F0040F03000616973
:105500002DE002292FD100F00F0040F04000A169EA
:1055100025E000F034F82AD000F02AF8A07009B194
:105520002046884720883C281DDA00212180E07829
:1055300000F0F80040F0020018E000F020F8A07839
:1055400000F00F0008D140F06000216AA07071B136
:105550002046BDE83440084740F01000E168A070E4
:1055600009B120468847E07800F0F800E07031BDCE
:10557000A078E16800F00F0040F010007047C1090A
:10558000800900F001008142704710B504480468AA
:1055900003E02046FFF71CFF646A002CF9D110BD20
:1055A000A015002010B581601C494C6812190260DA
:1055B000436010BD194A1368194600E0C96821B15B
:1055C0008142FBD14FF0FF307047C3601060002074
:1055D0007047124A116831B1814212BF01F10C02C9
:1055E000C9681160F6E7704738B50C4D2C687CB17E
:1055F00069682068814209D36068002819BF411892
:1056000021602046FFF7E5FFA0688047E468EEE7E9
:1056100031BD02484168491C416070478C1500202B
:1056200005484168491CB1F57A7F03D10268521CD4
:105630000021026041607047941500200EB4C0B58F
:10564000024603A800210190009101AB012104480A
:1056500078440C30FBF7FEFD06BC5DF810FB00BF84
:10566000D34700002DE9F8438046DDF828900D4629
:1056700017461C461C20FBF7BDFB06464846356016
:105680007760B46001F03DFDF06000B9FEE7099875
:105690000899B08219B9FBF7ADFB306100E03161C8
:1056A000306978B10B98B061484840F828602868A4
:1056B000C16841F01001C1602846B28A316900F02A
:1056C0009BFA3046BDE8F2837CB501683F4D00246B
:1056D00055F8240018B1006802688A4203D0641C9F
:1056E000072CF5DB73BDE4B24CB355F82400006819
:1056F00001680A68D30622D500F0CBFA002000909A
:1057000055F82430196809680A68009249680091C0
:10571000009858680268998A5668D8688E1B19697B
:10572000324601F0CAFC55F8240000693146FBF707
:1057300033FD55F8240000F004F802B00BE073BD0F
:10574000704701680968CA6842F01002CA600169BE
:10575000828A00687047BDE8704000F04DBA0000D2
:10576000F8B500204FF480718022039002910192DD
:105770000090174B174A18490120FFF773FF134990
:10578000486830B90DF1140D5DF804EB15A0FFF772
:1057900055BF05B000BD01B5FF23012269460E4883
:1057A00000F0D1F900990D480268D3070BD50C48D9
:1057B0000268D30701D406E000BF4FF060421068D2
:1057C0000028F9D01170009802BD000038150020A3
:1057D000AC13002068130020D8140020800E00E0D5
:1057E000000E00E06372656174652075617274205B
:1057F0006F70742068616E646C65206661696C64AA
:105800002E0A00007CB500F01AF810B94FF0FF30F6
:1058100076BD0699009133462246294601F0E6FD01
:1058200076BD70B500F00BF810B94FF0FF3070BDC9
:10583000334622462946BDE8704001F083BD0C4640
:1058400015461E4601F05BBD10B50C4601F057FD34
:1058500020B1214601F084FEC043C00F10BD80B5C9
:1058600001F04DFD10B94FF0FF3002BD806B02BD5D
:1058700001F0F4BE38B50D4D0D4B2A7804464FF4B7
:105880007A711868B1FBF2F2B0FBF2F0FEF766FB3A
:1058900050B9102C08D2002221464FF0FF30FEF7FD
:1058A00035FBAC60002032BD012032BDB0000020CD
:1058B000BC0000200E4881B0016841F00101016088
:1058C000026802F0010200920099426842F08052A0
:1058D0004260406800F080500090009805480168E0
:1058E00021F0E06141F00071016001B0704700BF3C
:1058F00018100240040001402DE9F8470027BE4679
:10590000644A654B4FF00F0882460BE0D668304082
:10591000D06006E094604C68A402F7D5D0680643D6
:10592000D6607F1C0E6836FA07F000F0AD800120CB
:1059300000FA07F52E40AE42F3D1486858B301286B
:105940001AD002281FD0032833D0112817D01228CC
:105950001DD0524CA0421CBF514CA0421BD0514CF8
:10596000A0421CBF504CA04215D0504CA0421CBFBE
:105970004F4CA0420FD01EE0D1F80CE01BE0C868ED
:1059800000F1040E17E0C86800F1080E13E0C868C3
:1059900000F10C0E0FE0886810B94FF0040E0AE019
:1059A00001284FF0080E14BFCAF81450CAF810505E
:1059B00001E04FF0000EB6F5807F03D250464FEA6B
:1059C000870C05E0A7F108040AF104004FEA840CF3
:1059D000046808FA0CF5AC430EFA0CF52C4304608D
:1059E0004868C0009DD51868DFF8C8C040F00100C5
:1059F00018601C6804F001040094BC000098B8080A
:105A00005CF8205004F00C0408FA04F925EA0909AE
:105A1000294DAA4508BF002518D0284DAA4508BF22
:105A2000012513D0264DAA4508BF02250ED0254DCD
:105A3000AA4508BF032509D0234DAA4508BF042560
:105A400004D0224DAA450CBF0525062505FA04F40D
:105A500044EA09044CF82040F0434C68E40314681D
:105A60004CBF3443044014604C68A40354684CBFDA
:105A70003443044054604C689568E4024CBF46EAE5
:105A8000050400EA050445E7BDE8F18702B9090409
:105A9000016170470004014018100240000011101D
:105AA0000000121000002110000022100000311030
:105AB000000032100800014000080140000C0140C5
:105AC000001001400014014000180140001C01407A
:105AD00038B5040001D1012032BD00F021F808B929
